{
  "_format": "hh-sol-artifact-1",
  "contractName": "EToken",
  "sourceName": "contracts/EToken.sol",
  "abi": [
    {
      "inputs": [
        {
          "internalType": "contract IPolicyPool",
          "name": "policyPool_",
          "type": "address"
        }
      ],
      "stateMutability": "nonpayable",
      "type": "constructor"
    },
    {
      "inputs": [
        {
          "internalType": "address",
          "name": "target",
          "type": "address"
        }
      ],
      "name": "AddressEmptyCode",
      "type": "error"
    },
    {
      "inputs": [
        {
          "internalType": "address",
          "name": "borrower",
          "type": "address"
        }
      ],
      "name": "BorrowerAlreadyAdded",
      "type": "error"
    },
    {
      "inputs": [
        {
          "internalType": "address",
          "name": "account",
          "type": "address"
        },
        {
          "internalType": "uint256",
          "name": "value",
          "type": "uint256"
        }
      ],
      "name": "DepositNotWhitelisted",
      "type": "error"
    },
    {
      "inputs": [],
      "name": "ECDSAInvalidSignature",
      "type": "error"
    },
    {
      "inputs": [
        {
          "internalType": "uint256",
          "name": "length",
          "type": "uint256"
        }
      ],
      "name": "ECDSAInvalidSignatureLength",
      "type": "error"
    },
    {
      "inputs": [
        {
          "internalType": "bytes32",
          "name": "s",
          "type": "bytes32"
        }
      ],
      "name": "ECDSAInvalidSignatureS",
      "type": "error"
    },
    {
      "inputs": [
        {
          "internalType": "address",
          "name": "implementation",
          "type": "address"
        }
      ],
      "name": "ERC1967InvalidImplementation",
      "type": "error"
    },
    {
      "inputs": [],
      "name": "ERC1967NonPayable",
      "type": "error"
    },
    {
      "inputs": [
        {
          "internalType": "address",
          "name": "spender",
          "type": "address"
        },
        {
          "internalType": "uint256",
          "name": "allowance",
          "type": "uint256"
        },
        {
          "internalType": "uint256",
          "name": "needed",
          "type": "uint256"
        }
      ],
      "name": "ERC20InsufficientAllowance",
      "type": "error"
    },
    {
      "inputs": [
        {
          "internalType": "address",
          "name": "sender",
          "type": "address"
        },
        {
          "internalType": "uint256",
          "name": "balance",
          "type": "uint256"
        },
        {
          "internalType": "uint256",
          "name": "needed",
          "type": "uint256"
        }
      ],
      "name": "ERC20InsufficientBalance",
      "type": "error"
    },
    {
      "inputs": [
        {
          "internalType": "address",
          "name": "approver",
          "type": "address"
        }
      ],
      "name": "ERC20InvalidApprover",
      "type": "error"
    },
    {
      "inputs": [
        {
          "internalType": "address",
          "name": "receiver",
          "type": "address"
        }
      ],
      "name": "ERC20InvalidReceiver",
      "type": "error"
    },
    {
      "inputs": [
        {
          "internalType": "address",
          "name": "sender",
          "type": "address"
        }
      ],
      "name": "ERC20InvalidSender",
      "type": "error"
    },
    {
      "inputs": [
        {
          "internalType": "address",
          "name": "spender",
          "type": "address"
        }
      ],
      "name": "ERC20InvalidSpender",
      "type": "error"
    },
    {
      "inputs": [
        {
          "internalType": "uint256",
          "name": "deadline",
          "type": "uint256"
        }
      ],
      "name": "ERC2612ExpiredSignature",
      "type": "error"
    },
    {
      "inputs": [
        {
          "internalType": "address",
          "name": "signer",
          "type": "address"
        },
        {
          "internalType": "address",
          "name": "owner",
          "type": "address"
        }
      ],
      "name": "ERC2612InvalidSigner",
      "type": "error"
    },
    {
      "inputs": [
        {
          "internalType": "uint256",
          "name": "requested",
          "type": "uint256"
        },
        {
          "internalType": "uint256",
          "name": "maxWithdraw",
          "type": "uint256"
        }
      ],
      "name": "ExceedsMaxWithdraw",
      "type": "error"
    },
    {
      "inputs": [],
      "name": "FailedCall",
      "type": "error"
    },
    {
      "inputs": [
        {
          "internalType": "address",
          "name": "account",
          "type": "address"
        },
        {
          "internalType": "uint256",
          "name": "currentNonce",
          "type": "uint256"
        }
      ],
      "name": "InvalidAccountNonce",
      "type": "error"
    },
    {
      "inputs": [
        {
          "internalType": "address",
          "name": "borrower",
          "type": "address"
        }
      ],
      "name": "InvalidBorrower",
      "type": "error"
    },
    {
      "inputs": [
        {
          "internalType": "contract ICooler",
          "name": "cooler",
          "type": "address"
        }
      ],
      "name": "InvalidCooler",
      "type": "error"
    },
    {
      "inputs": [],
      "name": "InvalidInitialization",
      "type": "error"
    },
    {
      "inputs": [
        {
          "internalType": "enum IEToken.Parameter",
          "name": "parameter",
          "type": "uint8"
        }
      ],
      "name": "InvalidParameter",
      "type": "error"
    },
    {
      "inputs": [
        {
          "internalType": "contract ILPWhitelist",
          "name": "whitelist",
          "type": "address"
        }
      ],
      "name": "InvalidWhitelist",
      "type": "error"
    },
    {
      "inputs": [],
      "name": "InvalidYieldVault",
      "type": "error"
    },
    {
      "inputs": [],
      "name": "NoZeroPolicyPool",
      "type": "error"
    },
    {
      "inputs": [
        {
          "internalType": "uint256",
          "name": "required",
          "type": "uint256"
        },
        {
          "internalType": "uint256",
          "name": "available",
          "type": "uint256"
        }
      ],
      "name": "NotEnoughCash",
      "type": "error"
    },
    {
      "inputs": [
        {
          "internalType": "uint256",
          "name": "required",
          "type": "uint256"
        },
        {
          "internalType": "uint256",
          "name": "available",
          "type": "uint256"
        }
      ],
      "name": "NotEnoughScrFunds",
      "type": "error"
    },
    {
      "inputs": [],
      "name": "NotInitializing",
      "type": "error"
    },
    {
      "inputs": [
        {
          "internalType": "address",
          "name": "caller",
          "type": "address"
        }
      ],
      "name": "OnlyBorrower",
      "type": "error"
    },
    {
      "inputs": [],
      "name": "OnlyPolicyPool",
      "type": "error"
    },
    {
      "inputs": [
        {
          "internalType": "address",
          "name": "receiver",
          "type": "address"
        }
      ],
      "name": "ReserveInvalidReceiver",
      "type": "error"
    },
    {
      "inputs": [
        {
          "internalType": "uint8",
          "name": "bits",
          "type": "uint8"
        },
        {
          "internalType": "uint256",
          "name": "value",
          "type": "uint256"
        }
      ],
      "name": "SafeCastOverflowedUintDowncast",
      "type": "error"
    },
    {
      "inputs": [
        {
          "internalType": "uint256",
          "name": "value",
          "type": "uint256"
        }
      ],
      "name": "SafeCastOverflowedUintToInt",
      "type": "error"
    },
    {
      "inputs": [
        {
          "internalType": "address",
          "name": "token",
          "type": "address"
        }
      ],
      "name": "SafeERC20FailedOperation",
      "type": "error"
    },
    {
      "inputs": [
        {
          "internalType": "uint256",
          "name": "rejectedScale",
          "type": "uint256"
        }
      ],
      "name": "ScaleTooSmall",
      "type": "error"
    },
    {
      "inputs": [
        {
          "internalType": "address",
          "name": "from_",
          "type": "address"
        },
        {
          "internalType": "address",
          "name": "to_",
          "type": "address"
        },
        {
          "internalType": "uint256",
          "name": "value",
          "type": "uint256"
        }
      ],
      "name": "TransferNotWhitelisted",
      "type": "error"
    },
    {
      "inputs": [],
      "name": "UUPSUnauthorizedCallContext",
      "type": "error"
    },
    {
      "inputs": [
        {
          "internalType": "bytes32",
          "name": "slot",
          "type": "bytes32"
        }
      ],
      "name": "UUPSUnsupportedProxiableUUID",
      "type": "error"
    },
    {
      "inputs": [],
      "name": "UpgradeCannotChangePolicyPool",
      "type": "error"
    },
    {
      "inputs": [
        {
          "internalType": "uint256",
          "name": "actualUtilization",
          "type": "uint256"
        },
        {
          "internalType": "uint256",
          "name": "minUtilization",
          "type": "uint256"
        }
      ],
      "name": "UtilizationRateTooLow",
      "type": "error"
    },
    {
      "inputs": [
        {
          "internalType": "address",
          "name": "account",
          "type": "address"
        },
        {
          "internalType": "uint256",
          "name": "value",
          "type": "uint256"
        }
      ],
      "name": "WithdrawalNotWhitelisted",
      "type": "error"
    },
    {
      "inputs": [
        {
          "internalType": "contract ICooler",
          "name": "cooler",
          "type": "address"
        }
      ],
      "name": "WithdrawalsRequireCooldown",
      "type": "error"
    },
    {
      "anonymous": false,
      "inputs": [
        {
          "indexed": true,
          "internalType": "address",
          "name": "owner",
          "type": "address"
        },
        {
          "indexed": true,
          "internalType": "address",
          "name": "spender",
          "type": "address"
        },
        {
          "indexed": false,
          "internalType": "uint256",
          "name": "value",
          "type": "uint256"
        }
      ],
      "name": "Approval",
      "type": "event"
    },
    {
      "anonymous": false,
      "inputs": [
        {
          "indexed": true,
          "internalType": "uint256",
          "name": "policyId",
          "type": "uint256"
        },
        {
          "indexed": true,
          "internalType": "address",
          "name": "receiver",
          "type": "address"
        },
        {
          "indexed": false,
          "internalType": "uint256",
          "name": "amount",
          "type": "uint256"
        }
      ],
      "name": "CoCRefunded",
      "type": "event"
    },
    {
      "anonymous": false,
      "inputs": [
        {
          "indexed": false,
          "internalType": "contract ICooler",
          "name": "oldCooler",
          "type": "address"
        },
        {
          "indexed": false,
          "internalType": "contract ICooler",
          "name": "newCooler",
          "type": "address"
        }
      ],
      "name": "CoolerChanged",
      "type": "event"
    },
    {
      "anonymous": false,
      "inputs": [],
      "name": "EIP712DomainChanged",
      "type": "event"
    },
    {
      "anonymous": false,
      "inputs": [
        {
          "indexed": true,
          "internalType": "address",
          "name": "owner",
          "type": "address"
        },
        {
          "indexed": false,
          "internalType": "uint256",
          "name": "distributedProfit",
          "type": "uint256"
        }
      ],
      "name": "ETokensRedistributed",
      "type": "event"
    },
    {
      "anonymous": false,
      "inputs": [
        {
          "indexed": false,
          "internalType": "int256",
          "name": "earnings",
          "type": "int256"
        }
      ],
      "name": "EarningsRecorded",
      "type": "event"
    },
    {
      "anonymous": false,
      "inputs": [
        {
          "indexed": true,
          "internalType": "contract IERC4626",
          "name": "oldVault",
          "type": "address"
        },
        {
          "indexed": false,
          "internalType": "uint256",
          "name": "shares",
          "type": "uint256"
        }
      ],
      "name": "ErrorIgnoredDeinvestingVault",
      "type": "event"
    },
    {
      "anonymous": false,
      "inputs": [
        {
          "indexed": false,
          "internalType": "uint64",
          "name": "version",
          "type": "uint64"
        }
      ],
      "name": "Initialized",
      "type": "event"
    },
    {
      "anonymous": false,
      "inputs": [
        {
          "indexed": true,
          "internalType": "address",
          "name": "borrower",
          "type": "address"
        }
      ],
      "name": "InternalBorrowerAdded",
      "type": "event"
    },
    {
      "anonymous": false,
      "inputs": [
        {
          "indexed": true,
          "internalType": "address",
          "name": "borrower",
          "type": "address"
        },
        {
          "indexed": false,
          "internalType": "uint256",
          "name": "defaultedDebt",
          "type": "uint256"
        }
      ],
      "name": "InternalBorrowerRemoved",
      "type": "event"
    },
    {
      "anonymous": false,
      "inputs": [
        {
          "indexed": true,
          "internalType": "address",
          "name": "borrower",
          "type": "address"
        },
        {
          "indexed": false,
          "internalType": "uint256",
          "name": "value",
          "type": "uint256"
        },
        {
          "indexed": false,
          "internalType": "uint256",
          "name": "amountAsked",
          "type": "uint256"
        }
      ],
      "name": "InternalLoan",
      "type": "event"
    },
    {
      "anonymous": false,
      "inputs": [
        {
          "indexed": true,
          "internalType": "address",
          "name": "borrower",
          "type": "address"
        },
        {
          "indexed": false,
          "internalType": "uint256",
          "name": "value",
          "type": "uint256"
        }
      ],
      "name": "InternalLoanRepaid",
      "type": "event"
    },
    {
      "anonymous": false,
      "inputs": [
        {
          "indexed": false,
          "internalType": "enum IEToken.Parameter",
          "name": "param",
          "type": "uint8"
        },
        {
          "indexed": false,
          "internalType": "uint256",
          "name": "newValue",
          "type": "uint256"
        }
      ],
      "name": "ParameterChanged",
      "type": "event"
    },
    {
      "anonymous": false,
      "inputs": [
        {
          "indexed": true,
          "internalType": "uint256",
          "name": "policyId",
          "type": "uint256"
        },
        {
          "indexed": false,
          "internalType": "uint256",
          "name": "interestRate",
          "type": "uint256"
        },
        {
          "indexed": false,
          "internalType": "uint256",
          "name": "value",
          "type": "uint256"
        }
      ],
      "name": "SCRLocked",
      "type": "event"
    },
    {
      "anonymous": false,
      "inputs": [
        {
          "indexed": true,
          "internalType": "uint256",
          "name": "policyId",
          "type": "uint256"
        },
        {
          "indexed": false,
          "internalType": "uint256",
          "name": "interestRate",
          "type": "uint256"
        },
        {
          "indexed": false,
          "internalType": "uint256",
          "name": "value",
          "type": "uint256"
        },
        {
          "indexed": false,
          "internalType": "int256",
          "name": "adjustment",
          "type": "int256"
        }
      ],
      "name": "SCRUnlocked",
      "type": "event"
    },
    {
      "anonymous": false,
      "inputs": [
        {
          "indexed": true,
          "internalType": "address",
          "name": "from",
          "type": "address"
        },
        {
          "indexed": true,
          "internalType": "address",
          "name": "to",
          "type": "address"
        },
        {
          "indexed": false,
          "internalType": "uint256",
          "name": "value",
          "type": "uint256"
        }
      ],
      "name": "Transfer",
      "type": "event"
    },
    {
      "anonymous": false,
      "inputs": [
        {
          "indexed": true,
          "internalType": "address",
          "name": "implementation",
          "type": "address"
        }
      ],
      "name": "Upgraded",
      "type": "event"
    },
    {
      "anonymous": false,
      "inputs": [
        {
          "indexed": false,
          "internalType": "contract ILPWhitelist",
          "name": "oldWhitelist",
          "type": "address"
        },
        {
          "indexed": false,
          "internalType": "contract ILPWhitelist",
          "name": "newWhitelist",
          "type": "address"
        }
      ],
      "name": "WhitelistChanged",
      "type": "event"
    },
    {
      "anonymous": false,
      "inputs": [
        {
          "indexed": true,
          "internalType": "contract IERC4626",
          "name": "oldVault",
          "type": "address"
        },
        {
          "indexed": true,
          "internalType": "contract IERC4626",
          "name": "newVault",
          "type": "address"
        },
        {
          "indexed": false,
          "internalType": "bool",
          "name": "forced",
          "type": "bool"
        }
      ],
      "name": "YieldVaultChanged",
      "type": "event"
    },
    {
      "inputs": [],
      "name": "DOMAIN_SEPARATOR",
      "outputs": [
        {
          "internalType": "bytes32",
          "name": "",
          "type": "bytes32"
        }
      ],
      "stateMutability": "view",
      "type": "function"
    },
    {
      "inputs": [],
      "name": "UPGRADE_INTERFACE_VERSION",
      "outputs": [
        {
          "internalType": "string",
          "name": "",
          "type": "string"
        }
      ],
      "stateMutability": "view",
      "type": "function"
    },
    {
      "inputs": [
        {
          "internalType": "address",
          "name": "borrower",
          "type": "address"
        }
      ],
      "name": "addBorrower",
      "outputs": [],
      "stateMutability": "nonpayable",
      "type": "function"
    },
    {
      "inputs": [
        {
          "internalType": "address",
          "name": "owner",
          "type": "address"
        },
        {
          "internalType": "address",
          "name": "spender",
          "type": "address"
        }
      ],
      "name": "allowance",
      "outputs": [
        {
          "internalType": "uint256",
          "name": "",
          "type": "uint256"
        }
      ],
      "stateMutability": "view",
      "type": "function"
    },
    {
      "inputs": [
        {
          "internalType": "address",
          "name": "spender",
          "type": "address"
        },
        {
          "internalType": "uint256",
          "name": "value",
          "type": "uint256"
        }
      ],
      "name": "approve",
      "outputs": [
        {
          "internalType": "bool",
          "name": "",
          "type": "bool"
        }
      ],
      "stateMutability": "nonpayable",
      "type": "function"
    },
    {
      "inputs": [
        {
          "internalType": "address",
          "name": "account",
          "type": "address"
        }
      ],
      "name": "balanceOf",
      "outputs": [
        {
          "internalType": "uint256",
          "name": "",
          "type": "uint256"
        }
      ],
      "stateMutability": "view",
      "type": "function"
    },
    {
      "inputs": [],
      "name": "cooler",
      "outputs": [
        {
          "internalType": "address",
          "name": "",
          "type": "address"
        }
      ],
      "stateMutability": "view",
      "type": "function"
    },
    {
      "inputs": [],
      "name": "currency",
      "outputs": [
        {
          "internalType": "contract IERC20Metadata",
          "name": "",
          "type": "address"
        }
      ],
      "stateMutability": "view",
      "type": "function"
    },
    {
      "inputs": [],
      "name": "decimals",
      "outputs": [
        {
          "internalType": "uint8",
          "name": "",
          "type": "uint8"
        }
      ],
      "stateMutability": "view",
      "type": "function"
    },
    {
      "inputs": [
        {
          "internalType": "uint256",
          "name": "amount",
          "type": "uint256"
        },
        {
          "internalType": "address",
          "name": "caller",
          "type": "address"
        },
        {
          "internalType": "address",
          "name": "receiver",
          "type": "address"
        }
      ],
      "name": "deposit",
      "outputs": [],
      "stateMutability": "nonpayable",
      "type": "function"
    },
    {
      "inputs": [
        {
          "internalType": "uint256",
          "name": "amount",
          "type": "uint256"
        }
      ],
      "name": "depositIntoYieldVault",
      "outputs": [],
      "stateMutability": "nonpayable",
      "type": "function"
    },
    {
      "inputs": [],
      "name": "eip712Domain",
      "outputs": [
        {
          "internalType": "bytes1",
          "name": "fields",
          "type": "bytes1"
        },
        {
          "internalType": "string",
          "name": "name",
          "type": "string"
        },
        {
          "internalType": "string",
          "name": "version",
          "type": "string"
        },
        {
          "internalType": "uint256",
          "name": "chainId",
          "type": "uint256"
        },
        {
          "internalType": "address",
          "name": "verifyingContract",
          "type": "address"
        },
        {
          "internalType": "bytes32",
          "name": "salt",
          "type": "bytes32"
        },
        {
          "internalType": "uint256[]",
          "name": "extensions",
          "type": "uint256[]"
        }
      ],
      "stateMutability": "view",
      "type": "function"
    },
    {
      "inputs": [],
      "name": "fundsAvailable",
      "outputs": [
        {
          "internalType": "uint256",
          "name": "",
          "type": "uint256"
        }
      ],
      "stateMutability": "view",
      "type": "function"
    },
    {
      "inputs": [],
      "name": "fundsAvailableToLock",
      "outputs": [
        {
          "internalType": "uint256",
          "name": "",
          "type": "uint256"
        }
      ],
      "stateMutability": "view",
      "type": "function"
    },
    {
      "inputs": [
        {
          "internalType": "bool",
          "name": "updated",
          "type": "bool"
        }
      ],
      "name": "getCurrentScale",
      "outputs": [
        {
          "internalType": "uint256",
          "name": "",
          "type": "uint256"
        }
      ],
      "stateMutability": "view",
      "type": "function"
    },
    {
      "inputs": [
        {
          "internalType": "address",
          "name": "borrower",
          "type": "address"
        }
      ],
      "name": "getLoan",
      "outputs": [
        {
          "internalType": "uint256",
          "name": "",
          "type": "uint256"
        }
      ],
      "stateMutability": "view",
      "type": "function"
    },
    {
      "inputs": [
        {
          "internalType": "address",
          "name": "user",
          "type": "address"
        }
      ],
      "name": "getScaledUserBalanceAndSupply",
      "outputs": [
        {
          "internalType": "uint256",
          "name": "",
          "type": "uint256"
        },
        {
          "internalType": "uint256",
          "name": "",
          "type": "uint256"
        }
      ],
      "stateMutability": "view",
      "type": "function"
    },
    {
      "inputs": [
        {
          "internalType": "string",
          "name": "name_",
          "type": "string"
        },
        {
          "internalType": "string",
          "name": "symbol_",
          "type": "string"
        },
        {
          "internalType": "uint256",
          "name": "maxUtilizationRate_",
          "type": "uint256"
        },
        {
          "internalType": "uint256",
          "name": "internalLoanInterestRate_",
          "type": "uint256"
        }
      ],
      "name": "initialize",
      "outputs": [],
      "stateMutability": "nonpayable",
      "type": "function"
    },
    {
      "inputs": [
        {
          "internalType": "uint256",
          "name": "amount",
          "type": "uint256"
        },
        {
          "internalType": "address",
          "name": "receiver",
          "type": "address"
        }
      ],
      "name": "internalLoan",
      "outputs": [
        {
          "internalType": "uint256",
          "name": "",
          "type": "uint256"
        }
      ],
      "stateMutability": "nonpayable",
      "type": "function"
    },
    {
      "inputs": [],
      "name": "internalLoanInterestRate",
      "outputs": [
        {
          "internalType": "uint256",
          "name": "",
          "type": "uint256"
        }
      ],
      "stateMutability": "view",
      "type": "function"
    },
    {
      "inputs": [],
      "name": "investedInYV",
      "outputs": [
        {
          "internalType": "uint256",
          "name": "",
          "type": "uint256"
        }
      ],
      "stateMutability": "view",
      "type": "function"
    },
    {
      "inputs": [],
      "name": "liquidityRequirement",
      "outputs": [
        {
          "internalType": "uint256",
          "name": "",
          "type": "uint256"
        }
      ],
      "stateMutability": "view",
      "type": "function"
    },
    {
      "inputs": [
        {
          "internalType": "uint256",
          "name": "policyId",
          "type": "uint256"
        },
        {
          "internalType": "uint256",
          "name": "scrAmount",
          "type": "uint256"
        },
        {
          "internalType": "uint256",
          "name": "policyInterestRate",
          "type": "uint256"
        }
      ],
      "name": "lockScr",
      "outputs": [],
      "stateMutability": "nonpayable",
      "type": "function"
    },
    {
      "inputs": [],
      "name": "maxNegativeAdjustment",
      "outputs": [
        {
          "internalType": "uint256",
          "name": "",
          "type": "uint256"
        }
      ],
      "stateMutability": "view",
      "type": "function"
    },
    {
      "inputs": [],
      "name": "maxUtilizationRate",
      "outputs": [
        {
          "internalType": "uint256",
          "name": "",
          "type": "uint256"
        }
      ],
      "stateMutability": "view",
      "type": "function"
    },
    {
      "inputs": [],
      "name": "minUtilizationRate",
      "outputs": [
        {
          "internalType": "uint256",
          "name": "",
          "type": "uint256"
        }
      ],
      "stateMutability": "view",
      "type": "function"
    },
    {
      "inputs": [],
      "name": "name",
      "outputs": [
        {
          "internalType": "string",
          "name": "",
          "type": "string"
        }
      ],
      "stateMutability": "view",
      "type": "function"
    },
    {
      "inputs": [
        {
          "internalType": "address",
          "name": "owner",
          "type": "address"
        }
      ],
      "name": "nonces",
      "outputs": [
        {
          "internalType": "uint256",
          "name": "",
          "type": "uint256"
        }
      ],
      "stateMutability": "view",
      "type": "function"
    },
    {
      "inputs": [
        {
          "internalType": "address",
          "name": "owner",
          "type": "address"
        },
        {
          "internalType": "address",
          "name": "spender",
          "type": "address"
        },
        {
          "internalType": "uint256",
          "name": "value",
          "type": "uint256"
        },
        {
          "internalType": "uint256",
          "name": "deadline",
          "type": "uint256"
        },
        {
          "internalType": "uint8",
          "name": "v",
          "type": "uint8"
        },
        {
          "internalType": "bytes32",
          "name": "r",
          "type": "bytes32"
        },
        {
          "internalType": "bytes32",
          "name": "s",
          "type": "bytes32"
        }
      ],
      "name": "permit",
      "outputs": [],
      "stateMutability": "nonpayable",
      "type": "function"
    },
    {
      "inputs": [],
      "name": "policyPool",
      "outputs": [
        {
          "internalType": "contract IPolicyPool",
          "name": "",
          "type": "address"
        }
      ],
      "stateMutability": "view",
      "type": "function"
    },
    {
      "inputs": [],
      "name": "proxiableUUID",
      "outputs": [
        {
          "internalType": "bytes32",
          "name": "",
          "type": "bytes32"
        }
      ],
      "stateMutability": "view",
      "type": "function"
    },
    {
      "inputs": [],
      "name": "recordEarnings",
      "outputs": [],
      "stateMutability": "nonpayable",
      "type": "function"
    },
    {
      "inputs": [
        {
          "internalType": "uint256",
          "name": "amount",
          "type": "uint256"
        }
      ],
      "name": "redistribute",
      "outputs": [],
      "stateMutability": "nonpayable",
      "type": "function"
    },
    {
      "inputs": [
        {
          "internalType": "address",
          "name": "borrower",
          "type": "address"
        }
      ],
      "name": "removeBorrower",
      "outputs": [],
      "stateMutability": "nonpayable",
      "type": "function"
    },
    {
      "inputs": [
        {
          "internalType": "uint256",
          "name": "amount",
          "type": "uint256"
        },
        {
          "internalType": "address",
          "name": "onBehalfOf",
          "type": "address"
        }
      ],
      "name": "repayLoan",
      "outputs": [],
      "stateMutability": "nonpayable",
      "type": "function"
    },
    {
      "inputs": [
        {
          "internalType": "address",
          "name": "user",
          "type": "address"
        }
      ],
      "name": "scaledBalanceOf",
      "outputs": [
        {
          "internalType": "uint256",
          "name": "",
          "type": "uint256"
        }
      ],
      "stateMutability": "view",
      "type": "function"
    },
    {
      "inputs": [],
      "name": "scaledTotalSupply",
      "outputs": [
        {
          "internalType": "uint256",
          "name": "",
          "type": "uint256"
        }
      ],
      "stateMutability": "view",
      "type": "function"
    },
    {
      "inputs": [],
      "name": "scr",
      "outputs": [
        {
          "internalType": "uint256",
          "name": "",
          "type": "uint256"
        }
      ],
      "stateMutability": "view",
      "type": "function"
    },
    {
      "inputs": [],
      "name": "scrInterestRate",
      "outputs": [
        {
          "internalType": "uint256",
          "name": "",
          "type": "uint256"
        }
      ],
      "stateMutability": "view",
      "type": "function"
    },
    {
      "inputs": [
        {
          "internalType": "contract ICooler",
          "name": "newCooler",
          "type": "address"
        }
      ],
      "name": "setCooler",
      "outputs": [],
      "stateMutability": "nonpayable",
      "type": "function"
    },
    {
      "inputs": [
        {
          "internalType": "enum IEToken.Parameter",
          "name": "param",
          "type": "uint8"
        },
        {
          "internalType": "uint256",
          "name": "newValue",
          "type": "uint256"
        }
      ],
      "name": "setParam",
      "outputs": [],
      "stateMutability": "nonpayable",
      "type": "function"
    },
    {
      "inputs": [
        {
          "internalType": "contract ILPWhitelist",
          "name": "lpWhitelist_",
          "type": "address"
        }
      ],
      "name": "setWhitelist",
      "outputs": [],
      "stateMutability": "nonpayable",
      "type": "function"
    },
    {
      "inputs": [
        {
          "internalType": "contract IERC4626",
          "name": "newYieldVault",
          "type": "address"
        },
        {
          "internalType": "bool",
          "name": "force",
          "type": "bool"
        }
      ],
      "name": "setYieldVault",
      "outputs": [],
      "stateMutability": "nonpayable",
      "type": "function"
    },
    {
      "inputs": [
        {
          "internalType": "bytes4",
          "name": "interfaceId",
          "type": "bytes4"
        }
      ],
      "name": "supportsInterface",
      "outputs": [
        {
          "internalType": "bool",
          "name": "",
          "type": "bool"
        }
      ],
      "stateMutability": "view",
      "type": "function"
    },
    {
      "inputs": [],
      "name": "symbol",
      "outputs": [
        {
          "internalType": "string",
          "name": "",
          "type": "string"
        }
      ],
      "stateMutability": "view",
      "type": "function"
    },
    {
      "inputs": [],
      "name": "tokenInterestRate",
      "outputs": [
        {
          "internalType": "uint256",
          "name": "",
          "type": "uint256"
        }
      ],
      "stateMutability": "view",
      "type": "function"
    },
    {
      "inputs": [],
      "name": "totalSupply",
      "outputs": [
        {
          "internalType": "uint256",
          "name": "",
          "type": "uint256"
        }
      ],
      "stateMutability": "view",
      "type": "function"
    },
    {
      "inputs": [],
      "name": "totalWithdrawable",
      "outputs": [
        {
          "internalType": "uint256",
          "name": "",
          "type": "uint256"
        }
      ],
      "stateMutability": "view",
      "type": "function"
    },
    {
      "inputs": [
        {
          "internalType": "address",
          "name": "to",
          "type": "address"
        },
        {
          "internalType": "uint256",
          "name": "value",
          "type": "uint256"
        }
      ],
      "name": "transfer",
      "outputs": [
        {
          "internalType": "bool",
          "name": "",
          "type": "bool"
        }
      ],
      "stateMutability": "nonpayable",
      "type": "function"
    },
    {
      "inputs": [
        {
          "internalType": "address",
          "name": "from",
          "type": "address"
        },
        {
          "internalType": "address",
          "name": "to",
          "type": "address"
        },
        {
          "internalType": "uint256",
          "name": "value",
          "type": "uint256"
        }
      ],
      "name": "transferFrom",
      "outputs": [
        {
          "internalType": "bool",
          "name": "",
          "type": "bool"
        }
      ],
      "stateMutability": "nonpayable",
      "type": "function"
    },
    {
      "inputs": [
        {
          "internalType": "uint256",
          "name": "policyId",
          "type": "uint256"
        },
        {
          "internalType": "uint256",
          "name": "scrAmount",
          "type": "uint256"
        },
        {
          "internalType": "uint256",
          "name": "policyInterestRate",
          "type": "uint256"
        },
        {
          "internalType": "int256",
          "name": "adjustment",
          "type": "int256"
        }
      ],
      "name": "unlockScr",
      "outputs": [],
      "stateMutability": "nonpayable",
      "type": "function"
    },
    {
      "inputs": [
        {
          "internalType": "uint256",
          "name": "policyId",
          "type": "uint256"
        },
        {
          "internalType": "uint256",
          "name": "scrAmount",
          "type": "uint256"
        },
        {
          "internalType": "uint256",
          "name": "policyInterestRate",
          "type": "uint256"
        },
        {
          "internalType": "int256",
          "name": "adjustment",
          "type": "int256"
        },
        {
          "internalType": "address",
          "name": "receiver",
          "type": "address"
        },
        {
          "internalType": "uint256",
          "name": "refundAmount",
          "type": "uint256"
        }
      ],
      "name": "unlockScrWithRefund",
      "outputs": [],
      "stateMutability": "nonpayable",
      "type": "function"
    },
    {
      "inputs": [
        {
          "internalType": "address",
          "name": "newImplementation",
          "type": "address"
        },
        {
          "internalType": "bytes",
          "name": "data",
          "type": "bytes"
        }
      ],
      "name": "upgradeToAndCall",
      "outputs": [],
      "stateMutability": "payable",
      "type": "function"
    },
    {
      "inputs": [],
      "name": "utilizationRate",
      "outputs": [
        {
          "internalType": "uint256",
          "name": "",
          "type": "uint256"
        }
      ],
      "stateMutability": "view",
      "type": "function"
    },
    {
      "inputs": [],
      "name": "whitelist",
      "outputs": [
        {
          "internalType": "contract ILPWhitelist",
          "name": "",
          "type": "address"
        }
      ],
      "stateMutability": "view",
      "type": "function"
    },
    {
      "inputs": [
        {
          "internalType": "uint256",
          "name": "amount",
          "type": "uint256"
        },
        {
          "internalType": "address",
          "name": "caller",
          "type": "address"
        },
        {
          "internalType": "address",
          "name": "owner",
          "type": "address"
        },
        {
          "internalType": "address",
          "name": "receiver",
          "type": "address"
        }
      ],
      "name": "withdraw",
      "outputs": [
        {
          "internalType": "uint256",
          "name": "",
          "type": "uint256"
        }
      ],
      "stateMutability": "nonpayable",
      "type": "function"
    },
    {
      "inputs": [
        {
          "internalType": "uint256",
          "name": "amount",
          "type": "uint256"
        }
      ],
      "name": "withdrawFromYieldVault",
      "outputs": [
        {
          "internalType": "uint256",
          "name": "deinvested",
          "type": "uint256"
        }
      ],
      "stateMutability": "nonpayable",
      "type": "function"
    },
    {
      "inputs": [],
      "name": "yieldVault",
      "outputs": [
        {
          "internalType": "contract IERC4626",
          "name": "",
          "type": "address"
        }
      ],
      "stateMutability": "view",
      "type": "function"
    }
  ],
  "bytecode": "0x60c060405230608052348015610013575f5ffd5b506040516153e13803806153e183398101604081905261003291610129565b80806001600160a01b03811661005b57604051636b23cf0160e01b815260040160405180910390fd5b610063610077565b6001600160a01b031660a052506101569050565b7ff0c57e16840df040f15088dc2f81fe391c3923bec73e23a9662efc9c229c6a00805468010000000000000000900460ff16156100c75760405163f92ee8a960e01b815260040160405180910390fd5b80546001600160401b03908116146101265780546001600160401b0319166001600160401b0390811782556040519081527fc7f505b2f371ae2175ee4913f4499e1f2633a7b5936321eed1cdaeb6115181d29060200160405180910390a15b50565b5f60208284031215610139575f5ffd5b81516001600160a01b038116811461014f575f5ffd5b9392505050565b60805160a05161521d6101c45f395f818161059e01528181610ee9015281816111a30152818161139801528181611a5401528181611c2d0152818161259f0152818161292901528181612a320152613f7e01525f8181613197015281816131c001526134f8015261521d5ff3fe608060405260043610610371575f3560e01c80637d919a97116101c8578063ad3cb1cc116100fd578063d17e6c931161009d578063dfcb48bd1161006d578063dfcb48bd146109ce578063e3a8e29c146109e2578063e5a6b10f14610a01578063ee01a18314610a15575f5ffd5b8063d17e6c9314610952578063d336078c14610971578063d505accf14610990578063dd62ed3e146109af575f5ffd5b8063c1cca2b3116100d8578063c1cca2b3146108e3578063c3df9dac14610902578063cda4bcc214610921578063cf6a9a9414610935575f5ffd5b8063ad3cb1cc14610882578063b1bf962d146108b2578063ba4e8df5146108cf575f5ffd5b80639d90724d11610168578063a227dc4111610143578063a227dc4114610808578063a7f8a5e214610827578063a9059cbb14610844578063ac860f7414610863575f5ffd5b80639d90724d146107b1578063a08f2203146107d5578063a0ce552d146107e9575f5ffd5b8063854cff2f116101a3578063854cff2f14610742578063918344d31461076157806393e59dc11461078057806395d89b411461079d575f5ffd5b80637d919a97146106e85780637ecebe00146106fc57806384b0196e1461071b575f5ffd5b806333481fc9116102a95780634ffcda8c116102495780636fe0e395116102195780636fe0e3951461066c57806370a082311461068b57806376c7fc55146106aa57806379d989fb146106c9575f5ffd5b80634ffcda8c1461061157806352d1902d146106305780636c321c8a146106445780636c6f454214610658575f5ffd5b80634d15eb03116102845780634d15eb03146105905780634eb978a4146105d65780634f1ef286146105ea5780634fe0bd1e146105fd575f5ffd5b806333481fc91461053e5780633644e5151461055d5780633ad2820b14610571575f5ffd5b806318160ddd1161031457806323b872dd116102ef57806323b872dd146104bb57806323e103a8146104da5780632e2d2984146104f9578063313ce56714610518575f5ffd5b806318160ddd14610467578063194448e51461047b5780631da24f3e1461049c575f5ffd5b8063095ea7b31161034f578063095ea7b3146103ec5780630afbcdc91461040b578063159ec2df1461043f57806316db000f14610453575f5ffd5b806301ffc9a7146103755780630600a865146103a957806306fdde03146103cb575b5f5ffd5b348015610380575f5ffd5b5061039461038f36600461489c565b610a29565b60405190151581526020015b60405180910390f35b3480156103b4575f5ffd5b506103bd610a8a565b6040519081526020016103a0565b3480156103d6575f5ffd5b506103df610ae6565b6040516103a091906148f1565b3480156103f7575f5ffd5b50610394610406366004614917565b610b8b565b348015610416575f5ffd5b5061042a610425366004614941565b610ba2565b604080519283526020830191909152016103a0565b34801561044a575f5ffd5b506103bd610bc4565b34801561045e575f5ffd5b506103bd610c04565b348015610472575f5ffd5b506103bd610c26565b348015610486575f5ffd5b5061049a610495366004614969565b610c54565b005b3480156104a7575f5ffd5b506103bd6104b6366004614941565b610eae565b3480156104c6575f5ffd5b506103946104d53660046149a0565b610eb8565b3480156104e5575f5ffd5b506103bd6104f43660046149de565b610edd565b348015610504575f5ffd5b5061049a610513366004614a2e565b611198565b348015610523575f5ffd5b5061052c611395565b60405160ff90911681526020016103a0565b348015610549575f5ffd5b506103bd610558366004614941565b611475565b348015610568575f5ffd5b506103bd6114f7565b34801561057c575f5ffd5b5061049a61058b366004614a6d565b611500565b34801561059b575f5ffd5b507f00000000000000000000000000000000000000000000000000000000000000005b6040516001600160a01b0390911681526020016103a0565b3480156105e1575f5ffd5b5061049a6115a6565b61049a6105f8366004614b49565b6116d6565b348015610608575f5ffd5b506103bd6116f5565b34801561061c575f5ffd5b5061049a61062b366004614ba9565b611709565b34801561063b575f5ffd5b506103bd61186c565b34801561064f575f5ffd5b506103bd611887565b348015610663575f5ffd5b506103bd611905565b348015610677575f5ffd5b5061049a610686366004614bf0565b611918565b348015610696575f5ffd5b506103bd6106a5366004614941565b611a30565b3480156106b5575f5ffd5b5061049a6106c4366004614941565b611a49565b3480156106d4575f5ffd5b506103bd6106e3366004614c64565b611b2d565b3480156106f3575f5ffd5b506032546103bd565b348015610707575f5ffd5b506103bd610716366004614941565b611b67565b348015610726575f5ffd5b5061072f611b71565b6040516103a09796959493929190614c7f565b34801561074d575f5ffd5b5061049a61075c366004614941565b611c1a565b34801561076c575f5ffd5b5061049a61077b366004614d15565b611d55565b34801561078b575f5ffd5b506067546001600160a01b03166105be565b3480156107a8575f5ffd5b506103df611e9a565b3480156107bc575f5ffd5b50606554600160801b90046001600160801b03166103bd565b3480156107e0575f5ffd5b506103bd611ed8565b3480156107f4575f5ffd5b5061049a610803366004614d38565b611fcb565b348015610813575f5ffd5b5061049a610822366004614d4f565b61201e565b348015610832575f5ffd5b506068546001600160a01b03166105be565b34801561084f575f5ffd5b5061039461085e366004614917565b612076565b34801561086e575f5ffd5b5061049a61087d366004614d38565b612083565b34801561088d575f5ffd5b506103df604051806040016040528060058152602001640352e302e360dc1b81525081565b3480156108bd575f5ffd5b506064546001600160801b03166103bd565b3480156108da575f5ffd5b506103bd612209565b3480156108ee575f5ffd5b5061049a6108fd366004614d7e565b612222565b34801561090d575f5ffd5b506103bd61091c366004614d15565b612426565b34801561092c575f5ffd5b506103bd612573565b348015610940575f5ffd5b506069546001600160a01b03166105be565b34801561095d575f5ffd5b5061049a61096c366004614941565b61258c565b34801561097c575f5ffd5b506103bd61098b366004614d38565b6126c7565b34801561099b575f5ffd5b5061049a6109aa366004614dab565b612767565b3480156109ba575f5ffd5b506103bd6109c9366004614e17565b6128bc565b3480156109d9575f5ffd5b506103bd612905565b3480156109ed575f5ffd5b5061049a6109fc366004614941565b61291e565b348015610a0c575f5ffd5b506105be612a2f565b348015610a20575f5ffd5b506103bd612ab0565b5f610a3382612ac9565b80610a4e57506001600160e01b031982166336372b0760e01b145b80610a6957506001600160e01b0319821663a219a02560e01b145b80610a8457506001600160e01b03198216636d5136b160e11b145b92915050565b5f5f610ab9610a97612209565b670de0b6b3a7640000610ab26065546001600160801b031690565b9190612afe565b90505f610ac4610c26565b9050818110610ade57610ad78282614e57565b9250505090565b5f9250505090565b60605f5f5160206151885f395f51905f525b9050806003018054610b0990614e6a565b80601f0160208091040260200160405190810160405280929190818152602001828054610b3590614e6a565b8015610b805780601f10610b5757610100808354040283529160200191610b80565b820191905f5260205f20905b815481529060010190602001808311610b6357829003601f168201915b505050505091505090565b5f33610b98818585612bae565b5060019392505050565b5f5f610bad83612bbb565b60645490946001600160801b039091169350915050565b5f5f610bce610c26565b9050805f03610bde575f91505090565b606554610bfe906001600160801b03600160801b82048116911683612afe565b91505090565b5f610c0f6064612beb565b610c17610c26565b610c219190614e57565b905090565b606480545f91610c21916001600160801b031690610c45906065612c0f565b6001600160601b031690612c8b565b5f5f610c5e612a2f565b90506001600160a01b0384161580610ce65750806001600160a01b0316846001600160a01b03166338d52e0f6040518163ffffffff1660e01b8152600401602060405180830381865afa158015610cb7573d5f5f3e3d5ffd5b505050506040513d601f19601f82011682018060405250810190610cdb9190614ea2565b6001600160a01b0316145b610d0357604051638959269160e01b815260040160405180910390fd5b5f610d166068546001600160a01b031690565b90505f6001600160a01b03821615610e2b576040516370a0823160e01b81523060048201525f906001600160a01b038416906370a0823190602401602060405180830381865afa158015610d6c573d5f5f3e3d5ffd5b505050506040513d601f19601f82011682018060405250810190610d909190614ebd565b90508015610e29578515610db157610da88382612ca9565b95509150610e29565b604051635d043b2960e11b815260048101829052306024820181905260448201526001600160a01b0384169063ba087652906064016020604051808303815f875af1158015610e02573d5f5f3e3d5ffd5b505050506040513d601f19601f82011682018060405250810190610e269190614ebd565b91505b505b606880546001600160a01b0319166001600160a01b038816179055610e5c60325482610e579190614ed4565b612dec565b5f60325560405184151581526001600160a01b0380881691908416907f243f9479bbdaf9f3395e726975293ee3724f3819f4322a018c98afb9de70a1e0906020015b60405180910390a3505050505050565b5f610a8482612bbb565b5f33610ec5858285612e01565b610ed0858585612e5f565b60019150505b9392505050565b5f336001600160a01b037f00000000000000000000000000000000000000000000000000000000000000001614610f275760405163799e780f60e01b815260040160405180910390fd5b5f610f3a6068546001600160a01b031690565b6001600160a01b031614610f5057610f506115a6565b5f610f6a610f5d85611a30565b610f65610a8a565b612ebc565b90505f198603610f78578095505b855f03610f88575f915050611190565b6069546001600160a01b03161580610fad57506069546001600160a01b038681169116145b8061102f5750606954604051632e704af760e11b81526001600160a01b0390911690635ce095ee90610fe790309088908b90600401614ef3565b602060405180830381865afa158015611002573d5f5f3e3d5ffd5b505050506040513d601f19601f820116820180604052508101906110269190614f17565b64ffffffffff16155b6069546001600160a01b03169061106a57604051632bc34ba360e01b81526001600160a01b0390911660048201526024015b60405180910390fd5b508581808211156110975760405163087da9fd60e01b815260048101929092526024820152604401611061565b50506067546001600160a01b0316158061111f5750606754604051639051c76360e01b81526001600160a01b0390911690639051c763906110e090309088908b90600401614ef3565b602060405180830381865afa1580156110fb573d5f5f3e3d5ffd5b505050506040513d601f19601f8201168201806040525081019061111f9190614f3b565b848790916111515760405163d38a933960e01b81526001600160a01b0390921660048301526024820152604401611061565b5050836001600160a01b0316856001600160a01b03161461117757611177848688612e01565b6111818487612ecb565b61118b8387612eff565b859150505b949350505050565b336001600160a01b037f000000000000000000000000000000000000000000000000000000000000000016146111e15760405163799e780f60e01b815260040160405180910390fd5b6067546001600160a01b0316158061130a57506067546040516337ee20dd60e01b81526001600160a01b03909116906337ee20dd9061122890309086908890600401614ef3565b602060405180830381865afa158015611243573d5f5f3e3d5ffd5b505050506040513d601f19601f820116820180604052508101906112679190614f3b565b801561130a5750806001600160a01b0316826001600160a01b0316148061130a5750606754604051635fcdca3760e01b81523060048201526001600160a01b03848116602483015283811660448301526064820186905290911690635fcdca3790608401602060405180830381865afa1580156112e6573d5f5f3e3d5ffd5b505050506040513d601f19601f8201168201806040525081019061130a9190614f3b565b8284909161133c576040516306d6c99360e51b81526001600160a01b0390921660048301526024820152604401611061565b50506113488184612fb8565b611350612ab0565b611358611887565b101561139057611366611887565b61136e612ab0565b6040516362464ab760e01b815260048101929092526024820152604401611061565b505050565b5f7f00000000000000000000000000000000000000000000000000000000000000006001600160a01b031663e5a6b10f6040518163ffffffff1660e01b8152600401602060405180830381865afa1580156113f2573d5f5f3e3d5ffd5b505050506040513d601f19601f820116820180604052508101906114169190614ea2565b6001600160a01b031663313ce5676040518163ffffffff1660e01b8152600401602060405180830381865afa158015611451573d5f5f3e3d5ffd5b505050506040513d601f19601f82011682018060405250810190610c219190614f56565b6001600160a01b0381165f90815260666020526040812080548390600160e01b900463ffffffff166114c657604051633d56093960e21b81526001600160a01b039091166004820152602401611061565b508054610ed6906001600160801b03166114e86114e1612573565b8490612fec565b6001600160601b031690613086565b5f610c216130a3565b335f81815260666020526040902054600160e01b900463ffffffff1661154557604051634e63eda360e11b81526001600160a01b039091166004820152602401611061565b50611552868686866130ac565b801561159e576115628282612eff565b816001600160a01b0316867fc8e60e828d888d5921f45ececd1bc138a29c2b6aacc8ab8a762f3f096492c56183604051610e9e91815260200190565b505050505050565b5f6115b96068546001600160a01b031690565b90506001600160a01b0381166115e257604051638959269160e01b815260040160405180910390fd5b6040516370a0823160e01b81523060048201525f906001600160a01b038316906307a2d13a9082906370a0823190602401602060405180830381865afa15801561162e573d5f5f3e3d5ffd5b505050506040513d601f19601f820116820180604052508101906116529190614ebd565b6040518263ffffffff1660e01b815260040161167091815260200190565b602060405180830381865afa15801561168b573d5f5f3e3d5ffd5b505050506040513d601f19601f820116820180604052508101906116af9190614ebd565b90505f603254826116c09190614ed4565b9050801561139057603282905561139081612dec565b6116de61318c565b6116e782613232565b6116f1828261323b565b5050565b5f610c21611701610c26565b6065906132f7565b335f81815260666020526040902054600160e01b900463ffffffff1661174e57604051634e63eda360e11b81526001600160a01b039091166004820152602401611061565b50611757611ed8565b8211156117895781611767611ed8565b6040516308f31df360e01b815260048101929092526024820152604401611061565b61179660645f606561331f565b80516064805460208401516040909401516001600160801b039093166001600160e01b031990911617600160801b6001600160601b0390941693909302929092176001600160e01b0316600160e01b63ffffffff928316021790915561180390606590849084906133dc16565b80516020909101516001600160801b03908116600160801b0291161760655560405183907f266dc24a75ea4c7d7c74f89a78dc3a44307babf0b588230497189fc46d71693d9061185f9084908690918252602082015260400190565b60405180910390a2505050565b5f6118756134ed565b505f5160206151c85f395f51905f5290565b5f610c21670de0b6b3a7640000306001600160a01b03166318160ddd6040518163ffffffff1660e01b8152600401602060405180830381865afa1580156118d0573d5f5f3e3d5ffd5b505050506040513d601f19601f820116820180604052508101906118f49190614ebd565b6065546001600160801b0316610ab2565b5f610c216065546001600160801b031690565b5f611921613536565b805490915060ff600160401b820416159067ffffffffffffffff165f811580156119485750825b90505f8267ffffffffffffffff1660011480156119645750303b155b905081158015611972575080155b156119905760405163f92ee8a960e01b815260040160405180910390fd5b845467ffffffffffffffff1916600117855583156119ba57845460ff60401b1916600160401b1785555b6119c261355e565b6119cc898961356e565b6119d589613580565b6119df87876135ab565b8315611a2557845460ff60401b19168555604051600181527fc7f505b2f371ae2175ee4913f4499e1f2633a7b5936321eed1cdaeb6115181d29060200160405180910390a15b505050505050505050565b5f610a84611a3d83612bbb565b610c4560646065612c0f565b336001600160a01b037f00000000000000000000000000000000000000000000000000000000000000001614611a925760405163799e780f60e01b815260040160405180910390fd5b806001600160a01b038116611ac657604051633d56093960e21b81526001600160a01b039091166004820152602401611061565b505f611ad182611475565b6001600160a01b0383165f818152606660205260408082209190915551919250907fe2ebfbed0df9004eae018a4ae91b24baa0cd1d83f495fab6dde3a1493f9dc6c690611b219084815260200190565b60405180910390a25050565b5f8115611b4f57610a84611b4360646065612c0f565b6001600160601b031690565b606454600160801b90046001600160601b0316610a84565b5f610a8482613611565b5f60608082808083815f5160206151a85f395f51905f528054909150158015611b9c57506001810154155b611be05760405162461bcd60e51b81526020600482015260156024820152741152540dcc4c8e88155b9a5b9a5d1a585b1a5e9959605a1b6044820152606401611061565b611be8613639565b611bf0613677565b604080515f80825260208201909252600f60f81b9c939b5091995046985030975095509350915050565b6001600160a01b0381161580611cc057507f00000000000000000000000000000000000000000000000000000000000000006001600160a01b0316816001600160a01b0316634d15eb036040518163ffffffff1660e01b8152600401602060405180830381865afa158015611c91573d5f5f3e3d5ffd5b505050506040513d601f19601f82011682018060405250810190611cb59190614ea2565b6001600160a01b0316145b8190611ceb57604051637ef0808b60e01b81526001600160a01b039091166004820152602401611061565b50606754604080516001600160a01b03928316815291831660208301527fdb0a396bdd47d29c2b55a6631f0b286785ea8ed9f585d34c8e32cdb022c3bc82910160405180910390a1606780546001600160a01b0319166001600160a01b0392909216919091179055565b6001600160a01b0381165f90815260666020526040902080548290600160e01b900463ffffffff16611da657604051633d56093960e21b81526001600160a01b039091166004820152602401611061565b50611dbb83611db3612573565b83919061368d565b506001600160a01b0383165f908152606660209081526040918290208351815492850151949093015163ffffffff16600160e01b026001600160e01b036001600160601b03909516600160801b026001600160e01b03199093166001600160801b03909416939093179190911792909216179055611e38836136c9565b816001600160a01b03167fa1aeb41f04a9a2aa1450e8edd0fa1a0a7971ff65c7bbb7b2ca0379b9327edbaf84604051611e7391815260200190565b60405180910390a2611390333085611e89612a2f565b6001600160a01b0316929190613732565b7f52c63247e1f47db19d5ce0460030c497f067ca4cebf71ba98eeadabe20bace0480546060915f5160206151885f395f51905f5291610b0990614e6a565b5f5f611ee2610c26565b6069549091506001600160a01b031615611fa25760695460405163f3f4370360e01b81523060048201525f916001600160a01b03169063f3f4370390602401602060405180830381865afa158015611f3c573d5f5f3e3d5ffd5b505050506040513d601f19601f82011682018060405250810190611f609190614ebd565b9050818110611f71575f9150611f9c565b611f99611f7e8284614e57565b610f65611f89612905565b8590670de0b6b3a7640000612afe565b91505b50611fc0565b611fbd611fad612905565b8290670de0b6b3a7640000612afe565b90505b610bfe6065826132f7565b611fd53382612ecb565b611fe6611fe182613768565b6136c9565b60405181815233907fa17978b5145b36c8c694b15cd193ab32fac45fbb1b2378e56ca71b11a5bc57229060200160405180910390a250565b335f81815260666020526040902054600160e01b900463ffffffff1661206357604051634e63eda360e11b81526001600160a01b039091166004820152602401611061565b50612070848484846130ac565b50505050565b5f33610b98818585612e5f565b5f6120966068546001600160a01b031690565b90506001600160a01b0381166120bf57604051638959269160e01b815260040160405180910390fd5b5f6120c8613798565b90505f1983036120da57809250612109565b8281808211156121065760405163531309fb60e11b815260048101929092526024820152604401611061565b50505b8260325f82825461211a9190614f71565b909155506121289050612a2f565b60405163095ea7b360e01b81526001600160a01b03848116600483015260248201869052919091169063095ea7b3906044016020604051808303815f875af1158015612176573d5f5f3e3d5ffd5b505050506040513d601f19601f8201168201806040525081019061219a9190614f3b565b50604051636e553f6560e01b8152600481018490523060248201526001600160a01b03831690636e553f65906044016020604051808303815f875af11580156121e5573d5f5f3e3d5ffd5b505050506040513d601f19601f820116820180604052508101906120709190614ebd565b6067545f90610c2190600160a01b900461ffff16613809565b5f82600381111561223557612235614f84565b036122aa57670b1a2bc2ec500000811015801561225a575067120a871cc00200008111155b829061227a5760405163f8f0178560e01b81526004016110619190614fb8565b506122848161381e565b6067805461ffff92909216600160a01b0261ffff60a01b199092169190911790556123e9565b60018260038111156122be576122be614f84565b0361231e5781670de0b6b3a76400008211156122ee5760405163f8f0178560e01b81526004016110619190614fb8565b506122f88161381e565b6067805461ffff92909216600160b01b0261ffff60b01b199092169190911790556123e9565b600282600381111561233257612332614f84565b036123925781670de0b6b3a76400008211156123625760405163f8f0178560e01b81526004016110619190614fb8565b5061236c8161381e565b6067805461ffff92909216600160c01b0261ffff60c01b199092169190911790556123e9565b816706f05b59d3b200008211156123bd5760405163f8f0178560e01b81526004016110619190614fb8565b506123c78161381e565b6067805461ffff92909216600160d01b0261ffff60d01b199092169190911790555b7feeeae4504d4c033c7da36bf41d8ece7c21842071ca9f9b423f8e8e36483dcd96828260405161241a929190614fc6565b60405180910390a15050565b335f81815260666020526040812054909190600160e01b900463ffffffff1661246e57604051634e63eda360e11b81526001600160a01b039091166004820152602401611061565b508261247c81610f65610c04565b9350835f0361248c579050610a84565b6124ad84612498612573565b335f9081526066602052604090209190613837565b50335f908152606660209081526040918290208351815492850151949093015163ffffffff16600160e01b026001600160e01b036001600160601b03909516600160801b026001600160e01b03199093166001600160801b03909416939093179190911792909216179055612524611fe185614fe1565b61252e8385612eff565b604080518581526020810183905233917f98697a4799dbd9db66c7168304c43cba77a27a50d2785625e09072e0d91fdd53910160405180910390a26111908482614e57565b6067545f90610c2190600160d01b900461ffff16613809565b6001600160a01b038116158061263257507f00000000000000000000000000000000000000000000000000000000000000006001600160a01b0316816001600160a01b0316634d15eb036040518163ffffffff1660e01b8152600401602060405180830381865afa158015612603573d5f5f3e3d5ffd5b505050506040513d601f19601f820116820180604052508101906126279190614ea2565b6001600160a01b0316145b819061265d5760405163f4ae198760e01b81526001600160a01b039091166004820152602401611061565b50606954604080516001600160a01b03928316815291831660208301527ff9f12db81524e0e7d35f2779daf818e6824509f85b09470f5c1c4d29304a756b910160405180910390a1606980546001600160a01b0319166001600160a01b0392909216919091179055565b5f6126d06115a6565b5f6126e36068546001600160a01b031690565b90505f1983036127565760405163ce96cb7760e01b81523060048201526001600160a01b0382169063ce96cb7790602401602060405180830381865afa15801561272f573d5f5f3e3d5ffd5b505050506040513d601f19601f820116820180604052508101906127539190614ebd565b92505b6127608184613867565b5090919050565b8342111561278b5760405163313c898160e11b815260048101859052602401611061565b5f7f6e71edae12b1b97f4d1f60370fef10105fa2faae0126114a169c64845d6126c98888886127f58c6001600160a01b03165f9081527f5ab42ced628888259c08ac98db1eb0cf702fc1501344311d8b100cd1bfe4bb006020526040902080546001810190915590565b6040805160208101969096526001600160a01b0394851690860152929091166060840152608083015260a082015260c0810186905260e0016040516020818303038152906040528051906020012090505f61284f8261391a565b90505f61285e82878787613946565b9050896001600160a01b0316816001600160a01b0316146128a5576040516325c0072360e11b81526001600160a01b0380831660048301528b166024820152604401611061565b6128b08a8a8a612bae565b50505050505050505050565b6001600160a01b039182165f9081527f52c63247e1f47db19d5ce0460030c497f067ca4cebf71ba98eeadabe20bace016020908152604080832093909416825291909152205490565b6067545f90610c2190600160c01b900461ffff16613809565b336001600160a01b037f000000000000000000000000000000000000000000000000000000000000000016146129675760405163799e780f60e01b815260040160405180910390fd5b806001600160a01b03811661299b57604051633d56093960e21b81526001600160a01b039091166004820152602401611061565b506001600160a01b0381165f90815260666020526040902080548290600160e01b900463ffffffff16156129ee57604051630a3e8f9b60e11b81526001600160a01b039091166004820152602401611061565b506129f881613972565b6040516001600160a01b038316907f66c0f28249c4fc4db79872a4405be78a93f19c65ac9ef2f173867a149065bcf2905f90a25050565b5f7f00000000000000000000000000000000000000000000000000000000000000006001600160a01b031663e5a6b10f6040518163ffffffff1660e01b8152600401602060405180830381865afa158015612a8c573d5f5f3e3d5ffd5b505050506040513d601f19601f82011682018060405250810190610c219190614ea2565b6067545f90610c2190600160b01b900461ffff16613809565b5f6001600160e01b031982166301ffc9a760e01b1480610a8457506001600160e01b03198216634d15eb0360e01b1492915050565b5f5f5f612b0b868661398e565b91509150815f03612b2f57838181612b2557612b25614ffb565b0492505050610ed6565b818411612b4657612b4660038515026011186139aa565b5f848688095f868103871696879004966002600389028118808a02820302808a02820302808a02820302808a02820302808a02820302808a02909103029181900381900460010185841190960395909502919093039390930492909217029150509392505050565b61139083838360016139bb565b5f805f5160206151885f395f51905f525b6001600160a01b039093165f9081526020939093525050604090205490565b80545f90610a84906001600160801b03166305f5e100670de0b6b3a7640000613a9f565b81545f908190612c2d908490600160e01b900463ffffffff16613ad4565b9050805f03612c4f5750508154600160801b90046001600160601b0316610a84565b835461119090612c73908390670de0b6b3a7640000906001600160801b0316613b20565b8554600160801b90046001600160601b031690613b3b565b5f610ed6826001600160601b0385165b670de0b6b3a7640000613b20565b604051636c82bbbf60e11b81523060048201525f9081906001600160a01b0385169063d905777e90602401602060405180830381865afa925050508015612d0d575060408051601f3d908101601f19168201909252612d0a91810190614ebd565b60015b15612d245783811015612d2257600191508093505b505b604051635d043b2960e11b815260048101849052306024820181905260448201526001600160a01b0385169063ba087652906064016020604051808303815f875af1925050508015612d93575060408051601f3d908101601f19168201909252612d9091810190614ebd565b60015b612de257836001600160a01b03167f25bce30047860a48c9d8830dbf31873be5434f4d28f14a5808a4ea8e35d0829684604051612dd291815260200190565b60405180910390a2506001612de5565b91505b9250929050565b612df5816136c9565b612dfe81613b57565b50565b5f612e0c84846128bc565b90505f198110156120705781811015612e5157604051637dc7a0d960e11b81526001600160a01b03841660048201526024810182905260448101839052606401611061565b61207084848484035f6139bb565b6001600160a01b038316612e8857604051634b637e8f60e11b81525f6004820152602401611061565b6001600160a01b038216612eb15760405163ec442f0560e01b81525f6004820152602401611061565b611390838383613b8d565b5f828218828410028218610ed6565b6001600160a01b038216612ef457604051634b637e8f60e11b81525f6004820152602401611061565b6116f1825f83613b8d565b816001600160a01b038116612f3357604051636427f27360e11b81526001600160a01b039091166004820152602401611061565b50805f03612f3f575050565b5f612f48613798565b905081811015612f8b575f612f656068546001600160a01b031690565b90506001600160a01b03811615612f8957612f8981612f848486614e57565b613867565b505b6001600160a01b0383163014611390576113908383612fa8612a2f565b6001600160a01b03169190613e15565b6001600160a01b038216612fe15760405163ec442f0560e01b81525f6004820152602401611061565b6116f15f8383613b8d565b81545f90429063ffffffff808316600160e01b90920416101561306657835461305e906301e133809061302c90600160e01b900463ffffffff168461500f565b61303c9063ffffffff168661502b565b6130469190615042565b8554600160801b90046001600160601b031690613e4a565b915050610a84565b50508154600160801b90046001600160601b0316610a84565b5092915050565b5f610ed6826001600160601b038516670de0b6b3a7640000613a9f565b5f610c21613e6d565b6130b9606482606561331f565b80516064805460208401516040909401516001600160801b039093166001600160e01b031990911617600160801b6001600160601b0390941693909302929092176001600160e01b0316600160e01b63ffffffff92831602179091556131269060659085908590613ee016565b80516020918201516001600160801b03908116600160801b0291161760655560408051848152918201859052810182905284907f82e3211b2071ba731d809bc922f607d914d7cb7d76b03e72acbe7753613e21f39060600160405180910390a250505050565b306001600160a01b037f000000000000000000000000000000000000000000000000000000000000000016148061321257507f00000000000000000000000000000000000000000000000000000000000000006001600160a01b03166132065f5160206151c85f395f51905f52546001600160a01b031690565b6001600160a01b031614155b156132305760405163703e46dd60e11b815260040160405180910390fd5b565b612dfe81613f7c565b816001600160a01b03166352d1902d6040518163ffffffff1660e01b8152600401602060405180830381865afa925050508015613295575060408051601f3d908101601f1916820190925261329291810190614ebd565b60015b6132bd57604051634c9c8ce360e01b81526001600160a01b0383166004820152602401611061565b5f5160206151c85f395f51905f5281146132ed57604051632a87526960e21b815260048101829052602401611061565b611390838361402d565b81545f906001600160801b0316808311156133165761305e8184614e57565b5f915050610a84565b604080516060810182525f80825260208201819052918101919091528354613355908390600160e01b900463ffffffff16613ad4565b61335f9084615061565b84549093505f906133a090613388908690670de0b6b3a7640000906001600160801b0316614082565b8654600160801b90046001600160601b03169061409d565b6040805160608101825287546001600160801b031681526001600160601b03909216602083015263ffffffff4216908201529150509392505050565b604080518082019091525f808252602082015283546001600160801b03165f0361343d576040518060400160405280613414856140e7565b6001600160801b0316815260200161342b846140e7565b6001600160801b031690529050610ed6565b83546001600160801b03165f6134538583614f71565b90505f6134aa61346c8688670de0b6b3a7640000613b20565b885461349190600160801b90046001600160801b031686670de0b6b3a7640000613b20565b61349b9190614f71565b670de0b6b3a764000084613b20565b905060405180604001604052806134c0846140e7565b6001600160801b031681526020016134d7836140e7565b6001600160801b03168152509350505050610ed6565b306001600160a01b037f000000000000000000000000000000000000000000000000000000000000000016146132305760405163703e46dd60e11b815260040160405180910390fd5b5f807ff0c57e16840df040f15088dc2f81fe391c3923bec73e23a9662efc9c229c6a00610a84565b61356661411a565b61323061413f565b61357661411a565b6116f18282614147565b61358861411a565b612dfe81604051806040016040528060018152602001603160f81b815250614197565b6135b361411a565b6135bd6064613972565b6040805160a0810182525f80825261271060208301529181018290526060810182905260800152606780546001600160e01b03191661027160a41b179055613606600283612222565b6116f1600382612222565b5f807f5ab42ced628888259c08ac98db1eb0cf702fc1501344311d8b100cd1bfe4bb00612bcc565b7fa16a46d94261c7517cc8ff89f61c0ce93598e3c849801011dee649a6a557d10280546060915f5160206151a85f395f51905f5291610b0990614e6a565b60605f5f5160206151a85f395f51905f52610af8565b604080516060810182525f80825260208201819052918101829052906136bd85856136b88287612fec565b6141f6565b91509150935093915050565b6136d6606482606561331f565b805160648054602084015160409094015163ffffffff16600160e01b026001600160e01b036001600160601b03909516600160801b026001600160e01b03199092166001600160801b0390941693909317179290921617905550565b6137408484848460016142bf565b61207057604051635274afe760e01b81526001600160a01b0385166004820152602401611061565b5f6001600160ff1b038211156137945760405163123baf0360e11b815260048101839052602401611061565b5090565b5f6137a1612a2f565b6040516370a0823160e01b81523060048201526001600160a01b0391909116906370a0823190602401602060405180830381865afa1580156137e5573d5f5f3e3d5ffd5b505050506040513d601f19601f82011682018060405250810190610c219190614ebd565b5f610a84655af3107a400061ffff841661502b565b5f610a84613832655af3107a400084615042565b61432c565b604080516060810182525f80825260208201819052918101829052906136bd85856138628287612fec565b61435a565b604051632d182be560e21b815260048101829052306024820181905260448201526001600160a01b0383169063b460af94906064016020604051808303815f875af11580156138b8573d5f5f3e3d5ffd5b505050506040513d601f19601f820116820180604052508101906138dc9190614ebd565b50603254811115613900576138f860325482610e579190614e57565b5f6032555050565b8060325f8282546139119190614e57565b90915550505050565b5f610a846139266130a3565b8360405161190160f01b8152600281019290925260228201526042902090565b5f5f5f5f613956888888886143ea565b92509250925061396682826144b2565b50909695505050505050565b63ffffffff4216600160e01b026503782dace9d960921b179055565b5f805f1983850993909202808410938190039390930393915050565b634e487b715f52806020526024601cfd5b5f5160206151885f395f51905f526001600160a01b0385166139f25760405163e602df0560e01b81525f6004820152602401611061565b6001600160a01b038416613a1b57604051634a1406b160e11b81525f6004820152602401611061565b6001600160a01b038086165f90815260018301602090815260408083209388168352929052208390558115613a9857836001600160a01b0316856001600160a01b03167f8c5be1e5ebec7d5bd14f71427d1e84f3dd0314c0f7b2291e5b200ac8c7c3b92585604051613a8f91815260200190565b60405180910390a35b5050505050565b5f613ab95f8380613ab257613ab2614ffb565b8587091190565b8284860281613aca57613aca614ffb565b0401949350505050565b81545f90610ed6906001600160801b03166301e13380613afa63ffffffff861642614e57565b8654613b169190600160801b90046001600160801b031661502b565b612c9b9190615042565b5f8183850281613b3257613b32614ffb565b04949350505050565b5f610ed6613b52836001600160601b038616614f71565b61456a565b6040518181527f731c439c5bae15be1344eec709967e046b4f7d3f7e37abeffc5247f448fa18bf9060200160405180910390a150565b5f6001600160a01b038416613c0a57613ba9606483606561459d565b815160648054602085015160409095015163ffffffff16600160e01b026001600160e01b036001600160601b03909616600160801b026001600160e01b03199092166001600160801b03909416939093171793909316179091559050613d06565b6001600160a01b038316613c2557613ba960648360656145c8565b6067546001600160a01b03161580613cb95750606754604051635fcdca3760e01b81523060048201526001600160a01b03868116602483015285811660448301526064820185905290911690635fcdca3790608401602060405180830381865afa158015613c95573d5f5f3e3d5ffd5b505050506040513d601f19601f82011682018060405250810190613cb99190614f3b565b848484909192613cdf576040516325cff2d360e11b815260040161106193929190614ef3565b50613d039150839050613cf460646065612c0f565b6001600160601b0316906145f3565b90505b5f5160206151885f395f51905f526001600160a01b03851615613da3576001600160a01b0385165f9081526020829052604090205482811015613d855785613d5482610c4560646065612c0f565b60405163391434e360e21b81526001600160a01b039092166004830152602482015260448101859052606401611061565b6001600160a01b0386165f9081526020839052604090209083900390555b6001600160a01b03841615613dd0576001600160a01b0384165f9081526020829052604090208054830190555b836001600160a01b0316856001600160a01b03167fddf252ad1be2c89b69c2b068fc378daa952ba7f163c4a11628f55a4df523b3ef85604051613a8f91815260200190565b613e228383836001614610565b61139057604051635274afe760e01b81526001600160a01b0384166004820152602401611061565b5f610ed6613b526001600160601b038516612c9b670de0b6b3a764000086614f71565b5f7f8b73c3c69bb8fe3d512ecc4cf759cc79239f7b179b0ffacaa9a75d522b39400f613e97614672565b613e9f6146da565b60408051602081019490945283019190915260608201524660808201523060a082015260c00160405160208183030381529060405280519060200120905090565b604080518082019091525f808252602082015283546001600160801b0316839003613f1e5750604080518082019091525f8082526020820152610ed6565b83546001600160801b03165f613f348583614e57565b90505f6134aa613f4d8688670de0b6b3a7640000613b20565b8854613f7290600160801b90046001600160801b031686670de0b6b3a7640000613b20565b61349b9190614e57565b7f00000000000000000000000000000000000000000000000000000000000000006001600160a01b0316816001600160a01b0316634d15eb036040518163ffffffff1660e01b8152600401602060405180830381865afa158015613fe2573d5f5f3e3d5ffd5b505050506040513d601f19601f820116820180604052508101906140069190614ea2565b6001600160a01b031614612dfe5760405163d2b3d33f60e01b815260040160405180910390fd5b6140368261471c565b6040516001600160a01b038316907fbc7cd75a20ee27fd9adebab32041f755214dbc6bffa90cc0225b39da2e5c2d3b905f90a280511561407a57611390828261477f565b6116f1614810565b5f818385028161409457614094614ffb565b05949350505050565b5f806140b2836001600160601b038616615061565b9050806305f5e1008110156140dd57604051636c53fb2b60e01b815260040161106191815260200190565b506111908161456a565b5f6001600160801b03821115613794576040516306dfcc6560e41b81526080600482015260248101839052604401611061565b61412261482f565b61323057604051631afcd79f60e31b815260040160405180910390fd5b61323061411a565b61414f61411a565b5f5160206151885f395f51905f527f52c63247e1f47db19d5ce0460030c497f067ca4cebf71ba98eeadabe20bace0361418884826150cc565b506004810161207083826150cc565b61419f61411a565b5f5160206151a85f395f51905f527fa16a46d94261c7517cc8ff89f61c0ce93598e3c849801011dee649a6a557d1026141d884826150cc565b50600381016141e783826150cc565b505f8082556001909101555050565b604080516060810182525f80825260208201819052918101829052906142256001600160601b038416856145f3565b85549091506001600160801b03168181038181111590810281614264576142556001600160601b03871688614848565b93506142618484614e57565b90505b805f0361427757670de0b6b3a764000095505b604051806060016040528061428b836140e7565b6001600160801b03168152602001876001600160601b031681526020014263ffffffff168152509450505050935093915050565b6040516323b872dd60e01b5f8181526001600160a01b038781166004528616602452604485905291602083606481808c5af1925060015f5114831661431b57838315161561430f573d5f823e3d81fd5b5f883b113d1516831692505b604052505f60605295945050505050565b5f61ffff821115613794576040516306dfcc6560e41b81526010600482015260248101839052604401611061565b604080516060810182525f80825260208201819052918101829052906143896001600160601b03841685614848565b604080516060810190915286549192509081906143b9906143b49085906001600160801b0316614f71565b6140e7565b6001600160801b03168152602001846001600160601b031681526020014263ffffffff168152509150935093915050565b5f80807f7fffffffffffffffffffffffffffffff5d576e7357a4501ddfe92f46681b20a084111561442357505f915060039050826144a8565b604080515f808252602082018084528a905260ff891692820192909252606081018790526080810186905260019060a0016020604051602081039080840390855afa158015614474573d5f5f3e3d5ffd5b5050604051601f1901519150506001600160a01b03811661449f57505f9250600191508290506144a8565b92505f91508190505b9450945094915050565b5f8260038111156144c5576144c5614f84565b036144ce575050565b60018260038111156144e2576144e2614f84565b036145005760405163f645eedf60e01b815260040160405180910390fd5b600282600381111561451457614514614f84565b036145355760405163fce698f760e01b815260048101829052602401611061565b600382600381111561454957614549614f84565b036116f1576040516335e2f38360e21b815260048101829052602401611061565b5f6001600160601b03821115613794576040516306dfcc6560e41b81526060600482015260248101839052604401611061565b604080516060810182525f80825260208201819052918101829052906136bd85856138628287612c0f565b604080516060810182525f80825260208201819052918101829052906136bd85856136b88287612c0f565b5f610ed682670de0b6b3a76400006001600160601b038616613a9f565b60405163a9059cbb60e01b5f8181526001600160a01b038616600452602485905291602083604481808b5af1925060015f5114831661466657838315161561465a573d5f823e3d81fd5b5f873b113d1516831692505b60405250949350505050565b5f5f5160206151a85f395f51905f528161468a613639565b8051909150156146a257805160209091012092915050565b815480156146b1579392505050565b7fc5d2460186f7233c927e7db2dcc703c0e500b653ca82273b7bfad8045d85a470935050505090565b5f5f5160206151a85f395f51905f52816146f2613677565b80519091501561470a57805160209091012092915050565b600182015480156146b1579392505050565b806001600160a01b03163b5f0361475157604051634c9c8ce360e01b81526001600160a01b0382166004820152602401611061565b5f5160206151c85f395f51905f5280546001600160a01b0319166001600160a01b0392909216919091179055565b60605f61478c8484614865565b90508080156147ad57505f3d11806147ad57505f846001600160a01b03163b115b156147ba5761305e614878565b80156147e457604051639996b31560e01b81526001600160a01b0385166004820152602401611061565b3d156147f7576147f2614891565b61307f565b60405163d6bda27560e01b815260040160405180910390fd5b34156132305760405163b398979f60e01b815260040160405180910390fd5b5f614838613536565b54600160401b900460ff16919050565b5f610ed682670de0b6b3a76400006001600160601b038616613b20565b5f5f5f835160208501865af49392505050565b6040513d81523d5f602083013e3d602001810160405290565b6040513d5f823e3d81fd5b5f602082840312156148ac575f5ffd5b81356001600160e01b031981168114610ed6575f5ffd5b5f81518084528060208401602086015e5f602082860101526020601f19601f83011685010191505092915050565b602081525f610ed660208301846148c3565b6001600160a01b0381168114612dfe575f5ffd5b5f5f60408385031215614928575f5ffd5b823561493381614903565b946020939093013593505050565b5f60208284031215614951575f5ffd5b8135610ed681614903565b8015158114612dfe575f5ffd5b5f5f6040838503121561497a575f5ffd5b823561498581614903565b915060208301356149958161495c565b809150509250929050565b5f5f5f606084860312156149b2575f5ffd5b83356149bd81614903565b925060208401356149cd81614903565b929592945050506040919091013590565b5f5f5f5f608085870312156149f1575f5ffd5b843593506020850135614a0381614903565b92506040850135614a1381614903565b91506060850135614a2381614903565b939692955090935050565b5f5f5f60608486031215614a40575f5ffd5b833592506020840135614a5281614903565b91506040840135614a6281614903565b809150509250925092565b5f5f5f5f5f5f60c08789031215614a82575f5ffd5b863595506020870135945060408701359350606087013592506080870135614aa981614903565b9598949750929591949360a090920135925050565b634e487b7160e01b5f52604160045260245ffd5b5f5f67ffffffffffffffff841115614aec57614aec614abe565b50604051601f19601f85018116603f0116810181811067ffffffffffffffff82111715614b1b57614b1b614abe565b604052838152905080828401851015614b32575f5ffd5b838360208301375f60208583010152509392505050565b5f5f60408385031215614b5a575f5ffd5b8235614b6581614903565b9150602083013567ffffffffffffffff811115614b80575f5ffd5b8301601f81018513614b90575f5ffd5b614b9f85823560208401614ad2565b9150509250929050565b5f5f5f60608486031215614bbb575f5ffd5b505081359360208301359350604090920135919050565b5f82601f830112614be1575f5ffd5b610ed683833560208501614ad2565b5f5f5f5f60808587031215614c03575f5ffd5b843567ffffffffffffffff811115614c19575f5ffd5b614c2587828801614bd2565b945050602085013567ffffffffffffffff811115614c41575f5ffd5b614c4d87828801614bd2565b949794965050505060408301359260600135919050565b5f60208284031215614c74575f5ffd5b8135610ed68161495c565b60ff60f81b8816815260e060208201525f614c9d60e08301896148c3565b8281036040840152614caf81896148c3565b606084018890526001600160a01b038716608085015260a0840186905283810360c0850152845180825260208087019350909101905f5b81811015614d04578351835260209384019390920191600101614ce6565b50909b9a5050505050505050505050565b5f5f60408385031215614d26575f5ffd5b82359150602083013561499581614903565b5f60208284031215614d48575f5ffd5b5035919050565b5f5f5f5f60808587031215614d62575f5ffd5b5050823594602084013594506040840135936060013592509050565b5f5f60408385031215614d8f575f5ffd5b823560048110614933575f5ffd5b60ff81168114612dfe575f5ffd5b5f5f5f5f5f5f5f60e0888a031215614dc1575f5ffd5b8735614dcc81614903565b96506020880135614ddc81614903565b955060408801359450606088013593506080880135614dfa81614d9d565b9699959850939692959460a0840135945060c09093013592915050565b5f5f60408385031215614e28575f5ffd5b8235614e3381614903565b9150602083013561499581614903565b634e487b7160e01b5f52601160045260245ffd5b81810381811115610a8457610a84614e43565b600181811c90821680614e7e57607f821691505b602082108103614e9c57634e487b7160e01b5f52602260045260245ffd5b50919050565b5f60208284031215614eb2575f5ffd5b8151610ed681614903565b5f60208284031215614ecd575f5ffd5b5051919050565b8181035f83128015838313168383128216171561307f5761307f614e43565b6001600160a01b039384168152919092166020820152604081019190915260600190565b5f60208284031215614f27575f5ffd5b815164ffffffffff81168114610ed6575f5ffd5b5f60208284031215614f4b575f5ffd5b8151610ed68161495c565b5f60208284031215614f66575f5ffd5b8151610ed681614d9d565b80820180821115610a8457610a84614e43565b634e487b7160e01b5f52602160045260245ffd5b60048110614fb457634e487b7160e01b5f52602160045260245ffd5b9052565b60208101610a848284614f98565b60408101614fd48285614f98565b8260208301529392505050565b5f600160ff1b8201614ff557614ff5614e43565b505f0390565b634e487b7160e01b5f52601260045260245ffd5b63ffffffff8281168282160390811115610a8457610a84614e43565b8082028115828204841417610a8457610a84614e43565b5f8261505c57634e487b7160e01b5f52601260045260245ffd5b500490565b8082018281125f83128015821682158216171561508057615080614e43565b505092915050565b601f82111561139057805f5260205f20601f840160051c810160208510156150ad5750805b601f840160051c820191505b81811015613a98575f81556001016150b9565b815167ffffffffffffffff8111156150e6576150e6614abe565b6150fa816150f48454614e6a565b84615088565b6020601f82116001811461512c575f83156151155750848201515b5f19600385901b1c1916600184901b178455613a98565b5f84815260208120601f198516915b8281101561515b578785015182556020948501946001909201910161513b565b508482101561517857868401515f19600387901b60f8161c191681555b50505050600190811b0190555056fe52c63247e1f47db19d5ce0460030c497f067ca4cebf71ba98eeadabe20bace00a16a46d94261c7517cc8ff89f61c0ce93598e3c849801011dee649a6a557d100360894a13ba1a3210667c828492db98dca3e2076cc3735a920a3ca505d382bbca2646970667358221220387925fe7fac64e45412c14292c29b2a68be85384429f1e6ca712cb840c3448c64736f6c634300081e0033",
  "linkReferences": {},
  "deployedLinkReferences": {}
}