{
  "_format": "hh-sol-artifact-1",
  "contractName": "PolicyPool",
  "sourceName": "contracts/PolicyPool.sol",
  "abi": [
    {
      "inputs": [
        {
          "internalType": "contract IERC20Metadata",
          "name": "currency_",
          "type": "address"
        }
      ],
      "stateMutability": "nonpayable",
      "type": "constructor"
    },
    {
      "inputs": [
        {
          "internalType": "address",
          "name": "target",
          "type": "address"
        }
      ],
      "name": "AddressEmptyCode",
      "type": "error"
    },
    {
      "inputs": [],
      "name": "ComponentAlreadyInThePool",
      "type": "error"
    },
    {
      "inputs": [
        {
          "internalType": "enum PolicyPool.ComponentKind",
          "name": "kind",
          "type": "uint8"
        },
        {
          "internalType": "uint256",
          "name": "amount",
          "type": "uint256"
        }
      ],
      "name": "ComponentInUseCannotRemove",
      "type": "error"
    },
    {
      "inputs": [],
      "name": "ComponentMustBeActiveOrDeprecated",
      "type": "error"
    },
    {
      "inputs": [],
      "name": "ComponentNotDeprecated",
      "type": "error"
    },
    {
      "inputs": [],
      "name": "ComponentNotFound",
      "type": "error"
    },
    {
      "inputs": [],
      "name": "ComponentNotFoundOrNotActive",
      "type": "error"
    },
    {
      "inputs": [],
      "name": "ComponentNotLinkedToThisPool",
      "type": "error"
    },
    {
      "inputs": [
        {
          "internalType": "contract IPolicyPoolComponent",
          "name": "component",
          "type": "address"
        },
        {
          "internalType": "enum PolicyPool.ComponentKind",
          "name": "expectedKind",
          "type": "uint8"
        }
      ],
      "name": "ComponentNotTheRightKind",
      "type": "error"
    },
    {
      "inputs": [
        {
          "internalType": "address",
          "name": "implementation",
          "type": "address"
        }
      ],
      "name": "ERC1967InvalidImplementation",
      "type": "error"
    },
    {
      "inputs": [],
      "name": "ERC1967NonPayable",
      "type": "error"
    },
    {
      "inputs": [
        {
          "internalType": "address",
          "name": "sender",
          "type": "address"
        },
        {
          "internalType": "uint256",
          "name": "tokenId",
          "type": "uint256"
        },
        {
          "internalType": "address",
          "name": "owner",
          "type": "address"
        }
      ],
      "name": "ERC721IncorrectOwner",
      "type": "error"
    },
    {
      "inputs": [
        {
          "internalType": "address",
          "name": "operator",
          "type": "address"
        },
        {
          "internalType": "uint256",
          "name": "tokenId",
          "type": "uint256"
        }
      ],
      "name": "ERC721InsufficientApproval",
      "type": "error"
    },
    {
      "inputs": [
        {
          "internalType": "address",
          "name": "approver",
          "type": "address"
        }
      ],
      "name": "ERC721InvalidApprover",
      "type": "error"
    },
    {
      "inputs": [
        {
          "internalType": "address",
          "name": "operator",
          "type": "address"
        }
      ],
      "name": "ERC721InvalidOperator",
      "type": "error"
    },
    {
      "inputs": [
        {
          "internalType": "address",
          "name": "owner",
          "type": "address"
        }
      ],
      "name": "ERC721InvalidOwner",
      "type": "error"
    },
    {
      "inputs": [
        {
          "internalType": "address",
          "name": "receiver",
          "type": "address"
        }
      ],
      "name": "ERC721InvalidReceiver",
      "type": "error"
    },
    {
      "inputs": [
        {
          "internalType": "address",
          "name": "sender",
          "type": "address"
        }
      ],
      "name": "ERC721InvalidSender",
      "type": "error"
    },
    {
      "inputs": [
        {
          "internalType": "uint256",
          "name": "tokenId",
          "type": "uint256"
        }
      ],
      "name": "ERC721NonexistentToken",
      "type": "error"
    },
    {
      "inputs": [],
      "name": "EnforcedPause",
      "type": "error"
    },
    {
      "inputs": [],
      "name": "ExpectedPause",
      "type": "error"
    },
    {
      "inputs": [
        {
          "internalType": "uint128",
          "name": "activeExposure",
          "type": "uint128"
        },
        {
          "internalType": "uint128",
          "name": "exposureLimit",
          "type": "uint128"
        }
      ],
      "name": "ExposureLimitExceeded",
      "type": "error"
    },
    {
      "inputs": [],
      "name": "FailedCall",
      "type": "error"
    },
    {
      "inputs": [],
      "name": "InvalidComponentStatus",
      "type": "error"
    },
    {
      "inputs": [],
      "name": "InvalidInitialization",
      "type": "error"
    },
    {
      "inputs": [
        {
          "internalType": "bytes4",
          "name": "response",
          "type": "bytes4"
        }
      ],
      "name": "InvalidNotificationResponse",
      "type": "error"
    },
    {
      "inputs": [
        {
          "components": [
            {
              "internalType": "uint256",
              "name": "id",
              "type": "uint256"
            },
            {
              "internalType": "uint256",
              "name": "payout",
              "type": "uint256"
            },
            {
              "internalType": "uint256",
              "name": "jrScr",
              "type": "uint256"
            },
            {
              "internalType": "uint256",
              "name": "srScr",
              "type": "uint256"
            },
            {
              "internalType": "uint256",
              "name": "lossProb",
              "type": "uint256"
            },
            {
              "internalType": "uint256",
              "name": "purePremium",
              "type": "uint256"
            },
            {
              "internalType": "uint256",
              "name": "ensuroCommission",
              "type": "uint256"
            },
            {
              "internalType": "uint256",
              "name": "partnerCommission",
              "type": "uint256"
            },
            {
              "internalType": "uint256",
              "name": "jrCoc",
              "type": "uint256"
            },
            {
              "internalType": "uint256",
              "name": "srCoc",
              "type": "uint256"
            },
            {
              "internalType": "uint40",
              "name": "start",
              "type": "uint40"
            },
            {
              "internalType": "uint40",
              "name": "expiration",
              "type": "uint40"
            }
          ],
          "internalType": "struct Policy.PolicyData",
          "name": "policyToCancel",
          "type": "tuple"
        },
        {
          "internalType": "uint256",
          "name": "purePremiumRefund",
          "type": "uint256"
        },
        {
          "internalType": "uint256",
          "name": "jrCocRefund",
          "type": "uint256"
        },
        {
          "internalType": "uint256",
          "name": "srCocRefund",
          "type": "uint256"
        }
      ],
      "name": "InvalidPolicyCancellation",
      "type": "error"
    },
    {
      "inputs": [
        {
          "components": [
            {
              "internalType": "uint256",
              "name": "id",
              "type": "uint256"
            },
            {
              "internalType": "uint256",
              "name": "payout",
              "type": "uint256"
            },
            {
              "internalType": "uint256",
              "name": "jrScr",
              "type": "uint256"
            },
            {
              "internalType": "uint256",
              "name": "srScr",
              "type": "uint256"
            },
            {
              "internalType": "uint256",
              "name": "lossProb",
              "type": "uint256"
            },
            {
              "internalType": "uint256",
              "name": "purePremium",
              "type": "uint256"
            },
            {
              "internalType": "uint256",
              "name": "ensuroCommission",
              "type": "uint256"
            },
            {
              "internalType": "uint256",
              "name": "partnerCommission",
              "type": "uint256"
            },
            {
              "internalType": "uint256",
              "name": "jrCoc",
              "type": "uint256"
            },
            {
              "internalType": "uint256",
              "name": "srCoc",
              "type": "uint256"
            },
            {
              "internalType": "uint40",
              "name": "start",
              "type": "uint40"
            },
            {
              "internalType": "uint40",
              "name": "expiration",
              "type": "uint40"
            }
          ],
          "internalType": "struct Policy.PolicyData",
          "name": "oldPolicy",
          "type": "tuple"
        },
        {
          "components": [
            {
              "internalType": "uint256",
              "name": "id",
              "type": "uint256"
            },
            {
              "internalType": "uint256",
              "name": "payout",
              "type": "uint256"
            },
            {
              "internalType": "uint256",
              "name": "jrScr",
              "type": "uint256"
            },
            {
              "internalType": "uint256",
              "name": "srScr",
              "type": "uint256"
            },
            {
              "internalType": "uint256",
              "name": "lossProb",
              "type": "uint256"
            },
            {
              "internalType": "uint256",
              "name": "purePremium",
              "type": "uint256"
            },
            {
              "internalType": "uint256",
              "name": "ensuroCommission",
              "type": "uint256"
            },
            {
              "internalType": "uint256",
              "name": "partnerCommission",
              "type": "uint256"
            },
            {
              "internalType": "uint256",
              "name": "jrCoc",
              "type": "uint256"
            },
            {
              "internalType": "uint256",
              "name": "srCoc",
              "type": "uint256"
            },
            {
              "internalType": "uint40",
              "name": "start",
              "type": "uint40"
            },
            {
              "internalType": "uint40",
              "name": "expiration",
              "type": "uint40"
            }
          ],
          "internalType": "struct Policy.PolicyData",
          "name": "newPolicy",
          "type": "tuple"
        }
      ],
      "name": "InvalidPolicyReplacement",
      "type": "error"
    },
    {
      "inputs": [
        {
          "internalType": "address",
          "name": "receiver",
          "type": "address"
        }
      ],
      "name": "InvalidReceiver",
      "type": "error"
    },
    {
      "inputs": [],
      "name": "NoEmptyName",
      "type": "error"
    },
    {
      "inputs": [],
      "name": "NoEmptySymbol",
      "type": "error"
    },
    {
      "inputs": [],
      "name": "NoZeroAccess",
      "type": "error"
    },
    {
      "inputs": [],
      "name": "NoZeroCurrency",
      "type": "error"
    },
    {
      "inputs": [],
      "name": "NoZeroTreasury",
      "type": "error"
    },
    {
      "inputs": [],
      "name": "NotInitializing",
      "type": "error"
    },
    {
      "inputs": [],
      "name": "OnlyRiskModuleAllowed",
      "type": "error"
    },
    {
      "inputs": [
        {
          "internalType": "uint256",
          "name": "payout",
          "type": "uint256"
        },
        {
          "internalType": "uint256",
          "name": "policyPayout",
          "type": "uint256"
        }
      ],
      "name": "PayoutExceedsLimit",
      "type": "error"
    },
    {
      "inputs": [
        {
          "internalType": "uint256",
          "name": "policyId",
          "type": "uint256"
        }
      ],
      "name": "PolicyAlreadyExists",
      "type": "error"
    },
    {
      "inputs": [
        {
          "internalType": "uint256",
          "name": "policyId",
          "type": "uint256"
        }
      ],
      "name": "PolicyAlreadyExpired",
      "type": "error"
    },
    {
      "inputs": [
        {
          "internalType": "uint256",
          "name": "policyId",
          "type": "uint256"
        },
        {
          "internalType": "uint40",
          "name": "expiration",
          "type": "uint40"
        },
        {
          "internalType": "uint256",
          "name": "now",
          "type": "uint256"
        }
      ],
      "name": "PolicyNotExpired",
      "type": "error"
    },
    {
      "inputs": [
        {
          "internalType": "uint256",
          "name": "policyId",
          "type": "uint256"
        }
      ],
      "name": "PolicyNotFound",
      "type": "error"
    },
    {
      "inputs": [
        {
          "internalType": "uint8",
          "name": "bits",
          "type": "uint8"
        },
        {
          "internalType": "uint256",
          "name": "value",
          "type": "uint256"
        }
      ],
      "name": "SafeCastOverflowedUintDowncast",
      "type": "error"
    },
    {
      "inputs": [
        {
          "internalType": "address",
          "name": "token",
          "type": "address"
        }
      ],
      "name": "SafeERC20FailedOperation",
      "type": "error"
    },
    {
      "inputs": [],
      "name": "UUPSUnauthorizedCallContext",
      "type": "error"
    },
    {
      "inputs": [
        {
          "internalType": "bytes32",
          "name": "slot",
          "type": "bytes32"
        }
      ],
      "name": "UUPSUnsupportedProxiableUUID",
      "type": "error"
    },
    {
      "inputs": [],
      "name": "UpgradeCannotChangeCurrency",
      "type": "error"
    },
    {
      "inputs": [
        {
          "components": [
            {
              "internalType": "uint256",
              "name": "id",
              "type": "uint256"
            },
            {
              "internalType": "uint256",
              "name": "payout",
              "type": "uint256"
            },
            {
              "internalType": "uint256",
              "name": "jrScr",
              "type": "uint256"
            },
            {
              "internalType": "uint256",
              "name": "srScr",
              "type": "uint256"
            },
            {
              "internalType": "uint256",
              "name": "lossProb",
              "type": "uint256"
            },
            {
              "internalType": "uint256",
              "name": "purePremium",
              "type": "uint256"
            },
            {
              "internalType": "uint256",
              "name": "ensuroCommission",
              "type": "uint256"
            },
            {
              "internalType": "uint256",
              "name": "partnerCommission",
              "type": "uint256"
            },
            {
              "internalType": "uint256",
              "name": "jrCoc",
              "type": "uint256"
            },
            {
              "internalType": "uint256",
              "name": "srCoc",
              "type": "uint256"
            },
            {
              "internalType": "uint40",
              "name": "start",
              "type": "uint40"
            },
            {
              "internalType": "uint40",
              "name": "expiration",
              "type": "uint40"
            }
          ],
          "internalType": "struct Policy.PolicyData",
          "name": "policy",
          "type": "tuple"
        }
      ],
      "name": "ZeroHash",
      "type": "error"
    },
    {
      "anonymous": false,
      "inputs": [
        {
          "indexed": true,
          "internalType": "address",
          "name": "owner",
          "type": "address"
        },
        {
          "indexed": true,
          "internalType": "address",
          "name": "approved",
          "type": "address"
        },
        {
          "indexed": true,
          "internalType": "uint256",
          "name": "tokenId",
          "type": "uint256"
        }
      ],
      "name": "Approval",
      "type": "event"
    },
    {
      "anonymous": false,
      "inputs": [
        {
          "indexed": true,
          "internalType": "address",
          "name": "owner",
          "type": "address"
        },
        {
          "indexed": true,
          "internalType": "address",
          "name": "operator",
          "type": "address"
        },
        {
          "indexed": false,
          "internalType": "bool",
          "name": "approved",
          "type": "bool"
        }
      ],
      "name": "ApprovalForAll",
      "type": "event"
    },
    {
      "anonymous": false,
      "inputs": [
        {
          "indexed": false,
          "internalType": "string",
          "name": "oldBaseURI",
          "type": "string"
        },
        {
          "indexed": false,
          "internalType": "string",
          "name": "newBaseURI",
          "type": "string"
        }
      ],
      "name": "BaseURIChanged",
      "type": "event"
    },
    {
      "anonymous": false,
      "inputs": [
        {
          "indexed": true,
          "internalType": "contract IPolicyPoolComponent",
          "name": "component",
          "type": "address"
        },
        {
          "indexed": false,
          "internalType": "enum PolicyPool.ComponentKind",
          "name": "kind",
          "type": "uint8"
        },
        {
          "indexed": false,
          "internalType": "enum PolicyPool.ComponentStatus",
          "name": "newStatus",
          "type": "uint8"
        }
      ],
      "name": "ComponentStatusChanged",
      "type": "event"
    },
    {
      "anonymous": false,
      "inputs": [
        {
          "indexed": true,
          "internalType": "contract IEToken",
          "name": "eToken",
          "type": "address"
        },
        {
          "indexed": true,
          "internalType": "address",
          "name": "sender",
          "type": "address"
        },
        {
          "indexed": true,
          "internalType": "address",
          "name": "owner",
          "type": "address"
        },
        {
          "indexed": false,
          "internalType": "uint256",
          "name": "amount",
          "type": "uint256"
        }
      ],
      "name": "Deposit",
      "type": "event"
    },
    {
      "anonymous": false,
      "inputs": [
        {
          "indexed": true,
          "internalType": "uint256",
          "name": "policyId",
          "type": "uint256"
        },
        {
          "indexed": false,
          "internalType": "contract IPolicyHolder",
          "name": "holder",
          "type": "address"
        }
      ],
      "name": "ExpirationNotificationFailed",
      "type": "event"
    },
    {
      "anonymous": false,
      "inputs": [
        {
          "indexed": true,
          "internalType": "contract IRiskModule",
          "name": "riskModule",
          "type": "address"
        },
        {
          "indexed": false,
          "internalType": "uint128",
          "name": "oldLimit",
          "type": "uint128"
        },
        {
          "indexed": false,
          "internalType": "uint128",
          "name": "newLimit",
          "type": "uint128"
        }
      ],
      "name": "ExposureLimitChanged",
      "type": "event"
    },
    {
      "anonymous": false,
      "inputs": [
        {
          "indexed": false,
          "internalType": "uint64",
          "name": "version",
          "type": "uint64"
        }
      ],
      "name": "Initialized",
      "type": "event"
    },
    {
      "anonymous": false,
      "inputs": [
        {
          "indexed": true,
          "internalType": "contract IRiskModule",
          "name": "riskModule",
          "type": "address"
        },
        {
          "components": [
            {
              "internalType": "uint256",
              "name": "id",
              "type": "uint256"
            },
            {
              "internalType": "uint256",
              "name": "payout",
              "type": "uint256"
            },
            {
              "internalType": "uint256",
              "name": "jrScr",
              "type": "uint256"
            },
            {
              "internalType": "uint256",
              "name": "srScr",
              "type": "uint256"
            },
            {
              "internalType": "uint256",
              "name": "lossProb",
              "type": "uint256"
            },
            {
              "internalType": "uint256",
              "name": "purePremium",
              "type": "uint256"
            },
            {
              "internalType": "uint256",
              "name": "ensuroCommission",
              "type": "uint256"
            },
            {
              "internalType": "uint256",
              "name": "partnerCommission",
              "type": "uint256"
            },
            {
              "internalType": "uint256",
              "name": "jrCoc",
              "type": "uint256"
            },
            {
              "internalType": "uint256",
              "name": "srCoc",
              "type": "uint256"
            },
            {
              "internalType": "uint40",
              "name": "start",
              "type": "uint40"
            },
            {
              "internalType": "uint40",
              "name": "expiration",
              "type": "uint40"
            }
          ],
          "indexed": false,
          "internalType": "struct Policy.PolicyData",
          "name": "policy",
          "type": "tuple"
        }
      ],
      "name": "NewPolicy",
      "type": "event"
    },
    {
      "anonymous": false,
      "inputs": [
        {
          "indexed": false,
          "internalType": "address",
          "name": "account",
          "type": "address"
        }
      ],
      "name": "Paused",
      "type": "event"
    },
    {
      "anonymous": false,
      "inputs": [
        {
          "indexed": true,
          "internalType": "contract IRiskModule",
          "name": "riskModule",
          "type": "address"
        },
        {
          "indexed": true,
          "internalType": "uint256",
          "name": "cancelledPolicyId",
          "type": "uint256"
        },
        {
          "indexed": false,
          "internalType": "uint256",
          "name": "purePremiumRefund",
          "type": "uint256"
        },
        {
          "indexed": false,
          "internalType": "uint256",
          "name": "jrCocRefund",
          "type": "uint256"
        },
        {
          "indexed": false,
          "internalType": "uint256",
          "name": "srCocRefund",
          "type": "uint256"
        }
      ],
      "name": "PolicyCancelled",
      "type": "event"
    },
    {
      "anonymous": false,
      "inputs": [
        {
          "indexed": true,
          "internalType": "contract IRiskModule",
          "name": "riskModule",
          "type": "address"
        },
        {
          "indexed": true,
          "internalType": "uint256",
          "name": "oldPolicyId",
          "type": "uint256"
        },
        {
          "indexed": true,
          "internalType": "uint256",
          "name": "newPolicyId",
          "type": "uint256"
        }
      ],
      "name": "PolicyReplaced",
      "type": "event"
    },
    {
      "anonymous": false,
      "inputs": [
        {
          "indexed": true,
          "internalType": "contract IRiskModule",
          "name": "riskModule",
          "type": "address"
        },
        {
          "indexed": true,
          "internalType": "uint256",
          "name": "policyId",
          "type": "uint256"
        },
        {
          "indexed": false,
          "internalType": "uint256",
          "name": "payout",
          "type": "uint256"
        }
      ],
      "name": "PolicyResolved",
      "type": "event"
    },
    {
      "anonymous": false,
      "inputs": [
        {
          "indexed": true,
          "internalType": "address",
          "name": "from",
          "type": "address"
        },
        {
          "indexed": true,
          "internalType": "address",
          "name": "to",
          "type": "address"
        },
        {
          "indexed": true,
          "internalType": "uint256",
          "name": "tokenId",
          "type": "uint256"
        }
      ],
      "name": "Transfer",
      "type": "event"
    },
    {
      "anonymous": false,
      "inputs": [
        {
          "indexed": false,
          "internalType": "address",
          "name": "oldTreasury",
          "type": "address"
        },
        {
          "indexed": false,
          "internalType": "address",
          "name": "newTreasury",
          "type": "address"
        }
      ],
      "name": "TreasuryChanged",
      "type": "event"
    },
    {
      "anonymous": false,
      "inputs": [
        {
          "indexed": false,
          "internalType": "address",
          "name": "account",
          "type": "address"
        }
      ],
      "name": "Unpaused",
      "type": "event"
    },
    {
      "anonymous": false,
      "inputs": [
        {
          "indexed": true,
          "internalType": "address",
          "name": "implementation",
          "type": "address"
        }
      ],
      "name": "Upgraded",
      "type": "event"
    },
    {
      "anonymous": false,
      "inputs": [
        {
          "indexed": true,
          "internalType": "contract IEToken",
          "name": "eToken",
          "type": "address"
        },
        {
          "indexed": true,
          "internalType": "address",
          "name": "sender",
          "type": "address"
        },
        {
          "indexed": true,
          "internalType": "address",
          "name": "receiver",
          "type": "address"
        },
        {
          "indexed": false,
          "internalType": "address",
          "name": "owner",
          "type": "address"
        },
        {
          "indexed": false,
          "internalType": "uint256",
          "name": "amount",
          "type": "uint256"
        }
      ],
      "name": "Withdraw",
      "type": "event"
    },
    {
      "inputs": [],
      "name": "UPGRADE_INTERFACE_VERSION",
      "outputs": [
        {
          "internalType": "string",
          "name": "",
          "type": "string"
        }
      ],
      "stateMutability": "view",
      "type": "function"
    },
    {
      "inputs": [
        {
          "internalType": "contract IPolicyPoolComponent",
          "name": "component",
          "type": "address"
        },
        {
          "internalType": "enum PolicyPool.ComponentKind",
          "name": "kind",
          "type": "uint8"
        }
      ],
      "name": "addComponent",
      "outputs": [],
      "stateMutability": "nonpayable",
      "type": "function"
    },
    {
      "inputs": [
        {
          "internalType": "address",
          "name": "to",
          "type": "address"
        },
        {
          "internalType": "uint256",
          "name": "tokenId",
          "type": "uint256"
        }
      ],
      "name": "approve",
      "outputs": [],
      "stateMutability": "nonpayable",
      "type": "function"
    },
    {
      "inputs": [
        {
          "internalType": "address",
          "name": "owner",
          "type": "address"
        }
      ],
      "name": "balanceOf",
      "outputs": [
        {
          "internalType": "uint256",
          "name": "",
          "type": "uint256"
        }
      ],
      "stateMutability": "view",
      "type": "function"
    },
    {
      "inputs": [
        {
          "components": [
            {
              "internalType": "uint256",
              "name": "id",
              "type": "uint256"
            },
            {
              "internalType": "uint256",
              "name": "payout",
              "type": "uint256"
            },
            {
              "internalType": "uint256",
              "name": "jrScr",
              "type": "uint256"
            },
            {
              "internalType": "uint256",
              "name": "srScr",
              "type": "uint256"
            },
            {
              "internalType": "uint256",
              "name": "lossProb",
              "type": "uint256"
            },
            {
              "internalType": "uint256",
              "name": "purePremium",
              "type": "uint256"
            },
            {
              "internalType": "uint256",
              "name": "ensuroCommission",
              "type": "uint256"
            },
            {
              "internalType": "uint256",
              "name": "partnerCommission",
              "type": "uint256"
            },
            {
              "internalType": "uint256",
              "name": "jrCoc",
              "type": "uint256"
            },
            {
              "internalType": "uint256",
              "name": "srCoc",
              "type": "uint256"
            },
            {
              "internalType": "uint40",
              "name": "start",
              "type": "uint40"
            },
            {
              "internalType": "uint40",
              "name": "expiration",
              "type": "uint40"
            }
          ],
          "internalType": "struct Policy.PolicyData",
          "name": "policyToCancel",
          "type": "tuple"
        },
        {
          "internalType": "uint256",
          "name": "purePremiumRefund",
          "type": "uint256"
        },
        {
          "internalType": "uint256",
          "name": "jrCocRefund",
          "type": "uint256"
        },
        {
          "internalType": "uint256",
          "name": "srCocRefund",
          "type": "uint256"
        }
      ],
      "name": "cancelPolicy",
      "outputs": [],
      "stateMutability": "nonpayable",
      "type": "function"
    },
    {
      "inputs": [
        {
          "internalType": "contract IPolicyPoolComponent",
          "name": "component",
          "type": "address"
        },
        {
          "internalType": "enum PolicyPool.ComponentStatus",
          "name": "newStatus",
          "type": "uint8"
        }
      ],
      "name": "changeComponentStatus",
      "outputs": [],
      "stateMutability": "nonpayable",
      "type": "function"
    },
    {
      "inputs": [],
      "name": "currency",
      "outputs": [
        {
          "internalType": "contract IERC20Metadata",
          "name": "",
          "type": "address"
        }
      ],
      "stateMutability": "view",
      "type": "function"
    },
    {
      "inputs": [
        {
          "internalType": "contract IEToken",
          "name": "eToken",
          "type": "address"
        },
        {
          "internalType": "uint256",
          "name": "amount",
          "type": "uint256"
        },
        {
          "internalType": "address",
          "name": "receiver",
          "type": "address"
        }
      ],
      "name": "deposit",
      "outputs": [],
      "stateMutability": "nonpayable",
      "type": "function"
    },
    {
      "inputs": [
        {
          "internalType": "contract IEToken",
          "name": "eToken",
          "type": "address"
        },
        {
          "internalType": "uint256",
          "name": "amount",
          "type": "uint256"
        },
        {
          "internalType": "address",
          "name": "receiver",
          "type": "address"
        },
        {
          "internalType": "uint256",
          "name": "deadline",
          "type": "uint256"
        },
        {
          "internalType": "uint8",
          "name": "v",
          "type": "uint8"
        },
        {
          "internalType": "bytes32",
          "name": "r",
          "type": "bytes32"
        },
        {
          "internalType": "bytes32",
          "name": "s",
          "type": "bytes32"
        }
      ],
      "name": "depositWithPermit",
      "outputs": [],
      "stateMutability": "nonpayable",
      "type": "function"
    },
    {
      "inputs": [
        {
          "components": [
            {
              "internalType": "uint256",
              "name": "id",
              "type": "uint256"
            },
            {
              "internalType": "uint256",
              "name": "payout",
              "type": "uint256"
            },
            {
              "internalType": "uint256",
              "name": "jrScr",
              "type": "uint256"
            },
            {
              "internalType": "uint256",
              "name": "srScr",
              "type": "uint256"
            },
            {
              "internalType": "uint256",
              "name": "lossProb",
              "type": "uint256"
            },
            {
              "internalType": "uint256",
              "name": "purePremium",
              "type": "uint256"
            },
            {
              "internalType": "uint256",
              "name": "ensuroCommission",
              "type": "uint256"
            },
            {
              "internalType": "uint256",
              "name": "partnerCommission",
              "type": "uint256"
            },
            {
              "internalType": "uint256",
              "name": "jrCoc",
              "type": "uint256"
            },
            {
              "internalType": "uint256",
              "name": "srCoc",
              "type": "uint256"
            },
            {
              "internalType": "uint40",
              "name": "start",
              "type": "uint40"
            },
            {
              "internalType": "uint40",
              "name": "expiration",
              "type": "uint40"
            }
          ],
          "internalType": "struct Policy.PolicyData",
          "name": "policy",
          "type": "tuple"
        }
      ],
      "name": "expirePolicy",
      "outputs": [],
      "stateMutability": "nonpayable",
      "type": "function"
    },
    {
      "inputs": [
        {
          "internalType": "uint256",
          "name": "tokenId",
          "type": "uint256"
        }
      ],
      "name": "getApproved",
      "outputs": [
        {
          "internalType": "address",
          "name": "",
          "type": "address"
        }
      ],
      "stateMutability": "view",
      "type": "function"
    },
    {
      "inputs": [
        {
          "internalType": "contract IPolicyPoolComponent",
          "name": "component",
          "type": "address"
        }
      ],
      "name": "getComponentStatus",
      "outputs": [
        {
          "internalType": "enum PolicyPool.ComponentStatus",
          "name": "",
          "type": "uint8"
        }
      ],
      "stateMutability": "view",
      "type": "function"
    },
    {
      "inputs": [
        {
          "internalType": "contract IRiskModule",
          "name": "rm",
          "type": "address"
        }
      ],
      "name": "getExposure",
      "outputs": [
        {
          "internalType": "uint256",
          "name": "active",
          "type": "uint256"
        },
        {
          "internalType": "uint256",
          "name": "limit",
          "type": "uint256"
        }
      ],
      "stateMutability": "view",
      "type": "function"
    },
    {
      "inputs": [
        {
          "internalType": "uint256",
          "name": "policyId",
          "type": "uint256"
        }
      ],
      "name": "getPolicyHash",
      "outputs": [
        {
          "internalType": "bytes32",
          "name": "",
          "type": "bytes32"
        }
      ],
      "stateMutability": "view",
      "type": "function"
    },
    {
      "inputs": [
        {
          "internalType": "string",
          "name": "name_",
          "type": "string"
        },
        {
          "internalType": "string",
          "name": "symbol_",
          "type": "string"
        },
        {
          "internalType": "address",
          "name": "treasury_",
          "type": "address"
        }
      ],
      "name": "initialize",
      "outputs": [],
      "stateMutability": "nonpayable",
      "type": "function"
    },
    {
      "inputs": [
        {
          "internalType": "uint256",
          "name": "policyId",
          "type": "uint256"
        }
      ],
      "name": "isActive",
      "outputs": [
        {
          "internalType": "bool",
          "name": "",
          "type": "bool"
        }
      ],
      "stateMutability": "view",
      "type": "function"
    },
    {
      "inputs": [
        {
          "internalType": "address",
          "name": "owner",
          "type": "address"
        },
        {
          "internalType": "address",
          "name": "operator",
          "type": "address"
        }
      ],
      "name": "isApprovedForAll",
      "outputs": [
        {
          "internalType": "bool",
          "name": "",
          "type": "bool"
        }
      ],
      "stateMutability": "view",
      "type": "function"
    },
    {
      "inputs": [
        {
          "internalType": "bytes[]",
          "name": "data",
          "type": "bytes[]"
        }
      ],
      "name": "multicall",
      "outputs": [
        {
          "internalType": "bytes[]",
          "name": "results",
          "type": "bytes[]"
        }
      ],
      "stateMutability": "nonpayable",
      "type": "function"
    },
    {
      "inputs": [],
      "name": "name",
      "outputs": [
        {
          "internalType": "string",
          "name": "",
          "type": "string"
        }
      ],
      "stateMutability": "view",
      "type": "function"
    },
    {
      "inputs": [
        {
          "components": [
            {
              "internalType": "uint256",
              "name": "id",
              "type": "uint256"
            },
            {
              "internalType": "uint256",
              "name": "payout",
              "type": "uint256"
            },
            {
              "internalType": "uint256",
              "name": "jrScr",
              "type": "uint256"
            },
            {
              "internalType": "uint256",
              "name": "srScr",
              "type": "uint256"
            },
            {
              "internalType": "uint256",
              "name": "lossProb",
              "type": "uint256"
            },
            {
              "internalType": "uint256",
              "name": "purePremium",
              "type": "uint256"
            },
            {
              "internalType": "uint256",
              "name": "ensuroCommission",
              "type": "uint256"
            },
            {
              "internalType": "uint256",
              "name": "partnerCommission",
              "type": "uint256"
            },
            {
              "internalType": "uint256",
              "name": "jrCoc",
              "type": "uint256"
            },
            {
              "internalType": "uint256",
              "name": "srCoc",
              "type": "uint256"
            },
            {
              "internalType": "uint40",
              "name": "start",
              "type": "uint40"
            },
            {
              "internalType": "uint40",
              "name": "expiration",
              "type": "uint40"
            }
          ],
          "internalType": "struct Policy.PolicyData",
          "name": "policy",
          "type": "tuple"
        },
        {
          "internalType": "address",
          "name": "payer",
          "type": "address"
        },
        {
          "internalType": "address",
          "name": "policyHolder",
          "type": "address"
        },
        {
          "internalType": "uint96",
          "name": "internalId",
          "type": "uint96"
        }
      ],
      "name": "newPolicy",
      "outputs": [
        {
          "internalType": "uint256",
          "name": "",
          "type": "uint256"
        }
      ],
      "stateMutability": "nonpayable",
      "type": "function"
    },
    {
      "inputs": [
        {
          "internalType": "uint256",
          "name": "tokenId",
          "type": "uint256"
        }
      ],
      "name": "ownerOf",
      "outputs": [
        {
          "internalType": "address",
          "name": "",
          "type": "address"
        }
      ],
      "stateMutability": "view",
      "type": "function"
    },
    {
      "inputs": [],
      "name": "pause",
      "outputs": [],
      "stateMutability": "nonpayable",
      "type": "function"
    },
    {
      "inputs": [],
      "name": "paused",
      "outputs": [
        {
          "internalType": "bool",
          "name": "",
          "type": "bool"
        }
      ],
      "stateMutability": "view",
      "type": "function"
    },
    {
      "inputs": [],
      "name": "proxiableUUID",
      "outputs": [
        {
          "internalType": "bytes32",
          "name": "",
          "type": "bytes32"
        }
      ],
      "stateMutability": "view",
      "type": "function"
    },
    {
      "inputs": [
        {
          "internalType": "contract IPolicyPoolComponent",
          "name": "component",
          "type": "address"
        }
      ],
      "name": "removeComponent",
      "outputs": [],
      "stateMutability": "nonpayable",
      "type": "function"
    },
    {
      "inputs": [
        {
          "components": [
            {
              "internalType": "uint256",
              "name": "id",
              "type": "uint256"
            },
            {
              "internalType": "uint256",
              "name": "payout",
              "type": "uint256"
            },
            {
              "internalType": "uint256",
              "name": "jrScr",
              "type": "uint256"
            },
            {
              "internalType": "uint256",
              "name": "srScr",
              "type": "uint256"
            },
            {
              "internalType": "uint256",
              "name": "lossProb",
              "type": "uint256"
            },
            {
              "internalType": "uint256",
              "name": "purePremium",
              "type": "uint256"
            },
            {
              "internalType": "uint256",
              "name": "ensuroCommission",
              "type": "uint256"
            },
            {
              "internalType": "uint256",
              "name": "partnerCommission",
              "type": "uint256"
            },
            {
              "internalType": "uint256",
              "name": "jrCoc",
              "type": "uint256"
            },
            {
              "internalType": "uint256",
              "name": "srCoc",
              "type": "uint256"
            },
            {
              "internalType": "uint40",
              "name": "start",
              "type": "uint40"
            },
            {
              "internalType": "uint40",
              "name": "expiration",
              "type": "uint40"
            }
          ],
          "internalType": "struct Policy.PolicyData",
          "name": "oldPolicy",
          "type": "tuple"
        },
        {
          "components": [
            {
              "internalType": "uint256",
              "name": "id",
              "type": "uint256"
            },
            {
              "internalType": "uint256",
              "name": "payout",
              "type": "uint256"
            },
            {
              "internalType": "uint256",
              "name": "jrScr",
              "type": "uint256"
            },
            {
              "internalType": "uint256",
              "name": "srScr",
              "type": "uint256"
            },
            {
              "internalType": "uint256",
              "name": "lossProb",
              "type": "uint256"
            },
            {
              "internalType": "uint256",
              "name": "purePremium",
              "type": "uint256"
            },
            {
              "internalType": "uint256",
              "name": "ensuroCommission",
              "type": "uint256"
            },
            {
              "internalType": "uint256",
              "name": "partnerCommission",
              "type": "uint256"
            },
            {
              "internalType": "uint256",
              "name": "jrCoc",
              "type": "uint256"
            },
            {
              "internalType": "uint256",
              "name": "srCoc",
              "type": "uint256"
            },
            {
              "internalType": "uint40",
              "name": "start",
              "type": "uint40"
            },
            {
              "internalType": "uint40",
              "name": "expiration",
              "type": "uint40"
            }
          ],
          "internalType": "struct Policy.PolicyData",
          "name": "newPolicy_",
          "type": "tuple"
        },
        {
          "internalType": "address",
          "name": "payer",
          "type": "address"
        },
        {
          "internalType": "uint96",
          "name": "internalId",
          "type": "uint96"
        }
      ],
      "name": "replacePolicy",
      "outputs": [
        {
          "internalType": "uint256",
          "name": "",
          "type": "uint256"
        }
      ],
      "stateMutability": "nonpayable",
      "type": "function"
    },
    {
      "inputs": [
        {
          "components": [
            {
              "internalType": "uint256",
              "name": "id",
              "type": "uint256"
            },
            {
              "internalType": "uint256",
              "name": "payout",
              "type": "uint256"
            },
            {
              "internalType": "uint256",
              "name": "jrScr",
              "type": "uint256"
            },
            {
              "internalType": "uint256",
              "name": "srScr",
              "type": "uint256"
            },
            {
              "internalType": "uint256",
              "name": "lossProb",
              "type": "uint256"
            },
            {
              "internalType": "uint256",
              "name": "purePremium",
              "type": "uint256"
            },
            {
              "internalType": "uint256",
              "name": "ensuroCommission",
              "type": "uint256"
            },
            {
              "internalType": "uint256",
              "name": "partnerCommission",
              "type": "uint256"
            },
            {
              "internalType": "uint256",
              "name": "jrCoc",
              "type": "uint256"
            },
            {
              "internalType": "uint256",
              "name": "srCoc",
              "type": "uint256"
            },
            {
              "internalType": "uint40",
              "name": "start",
              "type": "uint40"
            },
            {
              "internalType": "uint40",
              "name": "expiration",
              "type": "uint40"
            }
          ],
          "internalType": "struct Policy.PolicyData",
          "name": "policy",
          "type": "tuple"
        },
        {
          "internalType": "uint256",
          "name": "payout",
          "type": "uint256"
        }
      ],
      "name": "resolvePolicy",
      "outputs": [],
      "stateMutability": "nonpayable",
      "type": "function"
    },
    {
      "inputs": [
        {
          "internalType": "address",
          "name": "from",
          "type": "address"
        },
        {
          "internalType": "address",
          "name": "to",
          "type": "address"
        },
        {
          "internalType": "uint256",
          "name": "tokenId",
          "type": "uint256"
        }
      ],
      "name": "safeTransferFrom",
      "outputs": [],
      "stateMutability": "nonpayable",
      "type": "function"
    },
    {
      "inputs": [
        {
          "internalType": "address",
          "name": "from",
          "type": "address"
        },
        {
          "internalType": "address",
          "name": "to",
          "type": "address"
        },
        {
          "internalType": "uint256",
          "name": "tokenId",
          "type": "uint256"
        },
        {
          "internalType": "bytes",
          "name": "data",
          "type": "bytes"
        }
      ],
      "name": "safeTransferFrom",
      "outputs": [],
      "stateMutability": "nonpayable",
      "type": "function"
    },
    {
      "inputs": [
        {
          "internalType": "address",
          "name": "operator",
          "type": "address"
        },
        {
          "internalType": "bool",
          "name": "approved",
          "type": "bool"
        }
      ],
      "name": "setApprovalForAll",
      "outputs": [],
      "stateMutability": "nonpayable",
      "type": "function"
    },
    {
      "inputs": [
        {
          "internalType": "string",
          "name": "nftBaseURI_",
          "type": "string"
        }
      ],
      "name": "setBaseURI",
      "outputs": [],
      "stateMutability": "nonpayable",
      "type": "function"
    },
    {
      "inputs": [
        {
          "internalType": "contract IRiskModule",
          "name": "rm",
          "type": "address"
        },
        {
          "internalType": "uint256",
          "name": "newLimit",
          "type": "uint256"
        }
      ],
      "name": "setExposureLimit",
      "outputs": [],
      "stateMutability": "nonpayable",
      "type": "function"
    },
    {
      "inputs": [
        {
          "internalType": "address",
          "name": "treasury_",
          "type": "address"
        }
      ],
      "name": "setTreasury",
      "outputs": [],
      "stateMutability": "nonpayable",
      "type": "function"
    },
    {
      "inputs": [
        {
          "internalType": "bytes4",
          "name": "interfaceId",
          "type": "bytes4"
        }
      ],
      "name": "supportsInterface",
      "outputs": [
        {
          "internalType": "bool",
          "name": "",
          "type": "bool"
        }
      ],
      "stateMutability": "view",
      "type": "function"
    },
    {
      "inputs": [],
      "name": "symbol",
      "outputs": [
        {
          "internalType": "string",
          "name": "",
          "type": "string"
        }
      ],
      "stateMutability": "view",
      "type": "function"
    },
    {
      "inputs": [
        {
          "internalType": "uint256",
          "name": "tokenId",
          "type": "uint256"
        }
      ],
      "name": "tokenURI",
      "outputs": [
        {
          "internalType": "string",
          "name": "",
          "type": "string"
        }
      ],
      "stateMutability": "view",
      "type": "function"
    },
    {
      "inputs": [
        {
          "internalType": "address",
          "name": "from",
          "type": "address"
        },
        {
          "internalType": "address",
          "name": "to",
          "type": "address"
        },
        {
          "internalType": "uint256",
          "name": "tokenId",
          "type": "uint256"
        }
      ],
      "name": "transferFrom",
      "outputs": [],
      "stateMutability": "nonpayable",
      "type": "function"
    },
    {
      "inputs": [],
      "name": "treasury",
      "outputs": [
        {
          "internalType": "address",
          "name": "",
          "type": "address"
        }
      ],
      "stateMutability": "view",
      "type": "function"
    },
    {
      "inputs": [],
      "name": "unpause",
      "outputs": [],
      "stateMutability": "nonpayable",
      "type": "function"
    },
    {
      "inputs": [
        {
          "internalType": "address",
          "name": "newImplementation",
          "type": "address"
        },
        {
          "internalType": "bytes",
          "name": "data",
          "type": "bytes"
        }
      ],
      "name": "upgradeToAndCall",
      "outputs": [],
      "stateMutability": "payable",
      "type": "function"
    },
    {
      "inputs": [
        {
          "internalType": "contract IEToken",
          "name": "eToken",
          "type": "address"
        },
        {
          "internalType": "uint256",
          "name": "amount",
          "type": "uint256"
        },
        {
          "internalType": "address",
          "name": "receiver",
          "type": "address"
        },
        {
          "internalType": "address",
          "name": "owner",
          "type": "address"
        }
      ],
      "name": "withdraw",
      "outputs": [
        {
          "internalType": "uint256",
          "name": "amountWithdrawn",
          "type": "uint256"
        }
      ],
      "stateMutability": "nonpayable",
      "type": "function"
    }
  ],
  "bytecode": "0x60c060405230608052348015610013575f5ffd5b5060405161541f38038061541f83398101604081905261003291610124565b6001600160a01b0381166100595760405163559a03cd60e01b815260040160405180910390fd5b610061610072565b6001600160a01b031660a052610151565b7ff0c57e16840df040f15088dc2f81fe391c3923bec73e23a9662efc9c229c6a00805468010000000000000000900460ff16156100c25760405163f92ee8a960e01b815260040160405180910390fd5b80546001600160401b03908116146101215780546001600160401b0319166001600160401b0390811782556040519081527fc7f505b2f371ae2175ee4913f4499e1f2633a7b5936321eed1cdaeb6115181d29060200160405180910390a15b50565b5f60208284031215610134575f5ffd5b81516001600160a01b038116811461014a575f5ffd5b9392505050565b60805160a0516152606101bf5f395f818161075001528181610bb801528181610c6701528181610cb001528181610cef01528181610e19015281816124b701528181612bf201528181612e0f015261375801525f8181612b5301528181612b7c0152612d6801526152605ff3fe60806040526004361061023e575f3560e01c80636f86c89711610134578063ad3cb1cc116100b3578063dfcd412e11610078578063dfcd412e14610723578063e5a6b10f14610742578063e985e9c514610774578063f0f4426014610793578063f45346dc146107b2578063f720bbbf146107d1575f5ffd5b8063ad3cb1cc14610677578063b88d4fde146106a7578063bd644c56146106c6578063c87b56dd146106e5578063de27010a14610704575f5ffd5b806395d89b41116100f957806395d89b411461059b5780639760905e146105af5780639e2d8922146105ce578063a22cb4651461062c578063ac9650d81461064b575f5ffd5b80636f86c897146104f157806370a0823114610510578063792da09e1461052f57806382afd23b1461055a5780638456cb5914610587575f5ffd5b80634f1ef286116101c057806361d027b31161018557806361d027b3146104595780636352211e14610475578063663d8337146104945780636b8734e7146104b35780636f520b73146104d2575f5ffd5b80634f1ef286146103d157806352d1902d146103e457806355f804b3146103f85780635c975abb146104175780635fcbf4451461043a575f5ffd5b80630d100acb116102065780630d100acb1461030e57806323b872dd1461033b57806333d6157a1461035a5780633f4ba83a1461039e57806342842e0e146103b2575f5ffd5b806301ffc9a71461024257806306fdde0314610276578063077f224a14610297578063081812fc146102b8578063095ea7b3146102ef575b5f5ffd5b34801561024d575f5ffd5b5061026161025c36600461426b565b6107f0565b60405190151581526020015b60405180910390f35b348015610281575f5ffd5b5061028a61081b565b60405161026d91906142b4565b3480156102a2575f5ffd5b506102b66102b13660046143a6565b6108bc565b005b3480156102c3575f5ffd5b506102d76102d236600461441c565b610a08565b6040516001600160a01b03909116815260200161026d565b3480156102fa575f5ffd5b506102b6610309366004614433565b610a1c565b348015610319575f5ffd5b5061032d610328366004614533565b610a2b565b60405190815260200161026d565b348015610346575f5ffd5b506102b661035536600461458d565b610e90565b348015610365575f5ffd5b506103916103743660046145cb565b6001600160a01b03165f9081526001602052604090205460ff1690565b60405161026d9190614616565b3480156103a9575f5ffd5b506102b6610f19565b3480156103bd575f5ffd5b506102b66103cc36600461458d565b610f23565b6102b66103df366004614629565b610f42565b3480156103ef575f5ffd5b5061032d610f5d565b348015610403575f5ffd5b506102b6610412366004614675565b610f78565b348015610422575f5ffd5b505f51602061520b5f395f51905f525460ff16610261565b348015610445575f5ffd5b506102b66104543660046146ed565b610fc1565b348015610464575f5ffd5b505f546001600160a01b03166102d7565b348015610480575f5ffd5b506102d761048f36600461441c565b6110b4565b34801561049f575f5ffd5b5061032d6104ae366004614735565b6110be565b3480156104be575f5ffd5b506102b66104cd3660046146ed565b6115c4565b3480156104dd575f5ffd5b506102b66104ec366004614783565b611a9f565b3480156104fc575f5ffd5b506102b661050b3660046145cb565b611cec565b34801561051b575f5ffd5b5061032d61052a3660046145cb565b61219a565b34801561053a575f5ffd5b5061032d61054936600461441c565b5f9081526002602052604090205490565b348015610565575f5ffd5b5061026161057436600461441c565b5f90815260026020526040902054151590565b348015610592575f5ffd5b506102b66121f2565b3480156105a6575f5ffd5b5061028a6121fa565b3480156105ba575f5ffd5b506102b66105c9366004614433565b612238565b3480156105d9575f5ffd5b506106176105e83660046145cb565b6001600160a01b03165f908152600460205260409020546001600160801b0380821692600160801b9092041690565b6040805192835260208301919091520161026d565b348015610637575f5ffd5b506102b66106463660046147cb565b612317565b348015610656575f5ffd5b5061066a6106653660046147f7565b612322565b60405161026d9190614856565b348015610682575f5ffd5b5061028a604051806040016040528060058152602001640352e302e360dc1b81525081565b3480156106b2575f5ffd5b506102b66106c13660046148b9565b612407565b3480156106d1575f5ffd5b506102b66106e0366004614920565b61241f565b3480156106f0575f5ffd5b5061028a6106ff36600461441c565b612440565b34801561070f575f5ffd5b506102b661071e36600461494b565b6124a5565b34801561072e575f5ffd5b5061032d61073d3660046149bc565b612563565b34801561074d575f5ffd5b507f00000000000000000000000000000000000000000000000000000000000000006102d7565b34801561077f575f5ffd5b5061026161078e366004614a0c565b61269a565b34801561079e575f5ffd5b506102b66107ad3660046145cb565b6126e6565b3480156107bd575f5ffd5b506102b66107cc366004614a38565b6126f2565b3480156107dc575f5ffd5b506102b66107eb366004614a6c565b612705565b5f6107fa8261278a565b8061081557506001600160e01b0319821663c476978760e01b145b92915050565b5f5160206151cb5f395f51905f52805460609190819061083a90614a87565b80601f016020809104026020016040519081016040528092919081815260200182805461086690614a87565b80156108b15780601f10610888576101008083540402835291602001916108b1565b820191905f5260205f20905b81548152906001019060200180831161089457829003601f168201915b505050505091505090565b5f6108c56127d9565b805490915060ff600160401b82041615906001600160401b03165f811580156108eb5750825b90505f826001600160401b031660011480156109065750303b155b905081158015610914575080155b156109325760405163f92ee8a960e01b815260040160405180910390fd5b845467ffffffffffffffff19166001178555831561095c57845460ff60401b1916600160401b1785555b87515f0361097c57604051620beefb60e01b815260040160405180910390fd5b86515f0361099d576040516343b47bcb60e01b815260040160405180910390fd5b6109a78888612801565b6109af612813565b6109b88661281b565b83156109fe57845460ff60401b19168555604051600181527fc7f505b2f371ae2175ee4913f4499e1f2633a7b5936321eed1cdaeb6115181d29060200160405180910390a15b5050505050505050565b5f610a1282612823565b506108158261285a565b610a27828233612893565b5050565b5f610a346128a0565b33610a408160026128d0565b5f816001600160a01b03166373a952e86040518163ffffffff1660e01b8152600401602060405180830381865afa158015610a7d573d5f5f3e3d5ffd5b505050506040513d601f19601f82011682018060405250810190610aa19190614ab9565b9050610aae8160036128d0565b610ab8828561290b565b80885264ffffffffff42166101408901525f9081526002602052604090205487519015610b04576040516315e46fbb60e01b8152600401610afb91815260200190565b60405180910390fd5b50610b0e87612937565b87515f9081526002602090815260408083209390935589518351918201909352908152610b3c918791612989565b610b4c82600189602001516129a0565b60405163f79ac18360e01b81526001600160a01b0382169063f79ac18390610b78908a90600401614b6b565b5f604051808303815f87803b158015610b8f575f5ffd5b505af1158015610ba1573d5f5f3e3d5ffd5b50505060a0880151610be291506001600160a01b037f0000000000000000000000000000000000000000000000000000000000000000169088908490612a97565b5f5f826001600160a01b0316635e4458596040518163ffffffff1660e01b81526004016040805180830381865afa158015610c1f573d5f5f3e3d5ffd5b505050506040513d601f19601f82011682018060405250810190610c439190614b7a565b6101208b0151919350915015610c9157610120890151610c91906001600160a01b037f000000000000000000000000000000000000000000000000000000000000000016908a908490612a97565b61010089015115610cda57610100890151610cda906001600160a01b037f000000000000000000000000000000000000000000000000000000000000000016908a908590612a97565b5f5460c08a0151610d1d916001600160a01b037f00000000000000000000000000000000000000000000000000000000000000008116928c929190911690612a97565b5f8960e00151118015610da15750836001600160a01b031663521eb2736040518163ffffffff1660e01b8152600401602060405180830381865afa158015610d67573d5f5f3e3d5ffd5b505050506040513d601f19601f82011682018060405250810190610d8b9190614ab9565b6001600160a01b0316886001600160a01b031614155b15610e4157610e4188856001600160a01b031663521eb2736040518163ffffffff1660e01b8152600401602060405180830381865afa158015610de6573d5f5f3e3d5ffd5b505050506040513d601f19601f82011682018060405250810190610e0a9190614ab9565b60e08c01516001600160a01b037f000000000000000000000000000000000000000000000000000000000000000016929190612a97565b836001600160a01b03167f988ac1a1c4820f963124b6fa0394627ad4fa3de7583a76399b998c1d7e43af3f8a604051610e7a9190614b6b565b60405180910390a2505095519695505050505050565b6001600160a01b038216610eb957604051633250574960e11b81525f6004820152602401610afb565b5f610ec5838333612acd565b9050836001600160a01b0316816001600160a01b031614610f13576040516364283d7b60e01b81526001600160a01b0380861660048301526024820184905282166044820152606401610afb565b50505050565b610f21612ae9565b565b610f3d83838360405180602001604052805f815250612407565b505050565b610f4a612b48565b610f5382612bec565b610a278282612ca1565b5f610f66612d5d565b505f5160206151eb5f395f51905f5290565b7fc41b7cb64e5be01af4afc2641afc861432136270f4206b7773f229b658b9669960038383604051610fac93929190614bcf565b60405180910390a16003610f3d828483614caf565b6001600160a01b0382165f90815260016020526040812090815460ff166003811115610fef57610fef6145e6565b0361100d57604051637d91856360e01b815260040160405180910390fd5b5f826003811115611020576110206145e6565b0361103e576040516332b409a160e01b815260040160405180910390fd5b80548290829060ff1916600183600381111561105c5761105c6145e6565b021790555080546040516001600160a01b038516917ffe4c6998a06520b63340a48710b374432cb395da90e4e5360e1ec7aeefebecef916110a791610100900460ff16908690614d68565b60405180910390a2505050565b5f61081582612823565b5f6110c76128a0565b6110de6110d936879003870187614d8e565b612da6565b33853560601c811461110357604051634ace04f960e01b815260040160405180910390fd5b61110e8160026128d0565b5f816001600160a01b03166373a952e86040518163ffffffff1660e01b8152600401602060405180830381865afa15801561114b573d5f5f3e3d5ffd5b505050506040513d601f19601f8201168201806040525081019061116f9190614ab9565b905061117c8160036128d0565b64ffffffffff421661119661018089016101608a01614da9565b64ffffffffff161180156111bd57504264ffffffffff1686610160015164ffffffffff1610155b8735906111e057604051630422552f60e11b8152600401610afb91815260200190565b5085610140015164ffffffffff16876101400160208101906112029190614da9565b64ffffffffff1614801561121e57508560a001518760a0013511155b801561123257508560c001518760c0013511155b8015611248575085610100015187610100013511155b801561125e575085610120015187610120013511155b801561127257508560e001518760e0013511155b87879091611295576040516301ff548560e61b8152600401610afb929190614e5c565b50506112a1828561290b565b8087525f90815260026020526040902054865190156112d6576040516315e46fbb60e01b8152600401610afb91815260200190565b506112e086612937565b86515f908152600260205260408120919091556112fd88356110b4565b905061131b81885f015160405180602001604052805f815250612989565b87602001358760200151111561134f5761134a8360018a602001358a602001516113459190614e8d565b6129a0565b611368565b611368835f89602001518b602001356113459190614e8d565b87355f908152600260205260408082209190915551636ae360b360e11b81526001600160a01b0383169063d5c6c166906113a8908b908b90600401614e5c565b5f604051808303815f87803b1580156113bf575f5ffd5b505af11580156113d1573d5f5f3e3d5ffd5b505050506113e986838960a001518b60a00135612def565b5f5f836001600160a01b0316635e4458596040518163ffffffff1660e01b81526004016040805180830381865afa158015611426573d5f5f3e3d5ffd5b505050506040513d601f19601f8201168201806040525081019061144a9190614b7a565b9150915061146488828b61012001518d6101200135612def565b61147a88838b61010001518d6101000135612def565b5f5460c0808b015161149d928b926001600160a01b0390911691908e0135612def565b5f856001600160a01b031663521eb2736040518163ffffffff1660e01b8152600401602060405180830381865afa1580156114da573d5f5f3e3d5ffd5b505050506040513d601f19601f820116820180604052508101906114fe9190614ab9565b9050806001600160a01b0316896001600160a01b03161461152d5761152d89828c60e001518e60e00135612def565b856001600160a01b03167f988ac1a1c4820f963124b6fa0394627ad4fa3de7583a76399b998c1d7e43af3f8b6040516115669190614b6b565b60405180910390a289516040518c35906001600160a01b038916907f4ff4ac703cb703b7ea535d47e65e64b4cabf11b3e2eb41f152dab17971953add905f90a489516115b4908c3590612e3e565b5050965198975050505050505050565b6001600160a01b0382165f90815260016020526040812090815460ff1660038111156115f2576115f26145e6565b146116105760405163cf9a96f360e01b815260040160405180910390fd5b306001600160a01b0316836001600160a01b0316634d15eb036040518163ffffffff1660e01b8152600401602060405180830381865afa158015611656573d5f5f3e3d5ffd5b505050506040513d601f19601f8201168201806040525081019061167a9190614ab9565b6001600160a01b0316146116a157604051630fdee24360e11b815260040160405180910390fd5b60018260038111156116b5576116b56145e6565b14801561173157506040516301ffc9a760e01b81526001600160a01b038416906301ffc9a7906116f090636d5136b160e11b90600401614ea0565b602060405180830381865afa15801561170b573d5f5f3e3d5ffd5b505050506040513d601f19601f8201168201806040525081019061172f9190614eb5565b155b806117c75750600382600381111561174b5761174b6145e6565b1480156117c757506040516301ffc9a760e01b81526001600160a01b038416906301ffc9a7906117869063f7e4b01b60e01b90600401614ea0565b602060405180830381865afa1580156117a1573d5f5f3e3d5ffd5b505050506040513d601f19601f820116820180604052508101906117c59190614eb5565b155b8061185d575060028260038111156117e1576117e16145e6565b14801561185d57506040516301ffc9a760e01b81526001600160a01b038416906301ffc9a79061181c906321b7e09b60e01b90600401614ea0565b602060405180830381865afa158015611837573d5f5f3e3d5ffd5b505050506040513d601f19601f8201168201806040525081019061185b9190614eb5565b155b1561187f57828260405163502c9a5f60e01b8152600401610afb929190614ed0565b8054600160ff198216811783558391839161ffff19909116176101008360038111156118ad576118ad6145e6565b021790555060038260038111156118c6576118c66145e6565b03611a63575f8390505f816001600160a01b031663536ebbfc6040518163ffffffff1660e01b8152600401602060405180830381865afa15801561190c573d5f5f3e3d5ffd5b505050506040513d601f19601f820116820180604052508101906119309190614ab9565b90506001600160a01b03811615611998576040516338ea38a760e21b81526001600160a01b03838116600483015282169063e3a8e29c906024015f604051808303815f87803b158015611981575f5ffd5b505af1158015611993573d5f5f3e3d5ffd5b505050505b816001600160a01b0316637b83037b6040518163ffffffff1660e01b8152600401602060405180830381865afa1580156119d4573d5f5f3e3d5ffd5b505050506040513d601f19601f820116820180604052508101906119f89190614ab9565b90506001600160a01b03811615611a60576040516338ea38a760e21b81526001600160a01b03838116600483015282169063e3a8e29c906024015f604051808303815f87803b158015611a49575f5ffd5b505af1158015611a5b573d5f5f3e3d5ffd5b505050505b50505b826001600160a01b03167ffe4c6998a06520b63340a48710b374432cb395da90e4e5360e1ec7aeefebecef8360016040516110a7929190614d68565b611aa76128a0565b611ab96110d936869003860186614d8e565b33843560601c8114611ade57604051634ace04f960e01b815260040160405180910390fd5b611ae9816002612f25565b5f816001600160a01b03166373a952e86040518163ffffffff1660e01b8152600401602060405180830381865afa158015611b26573d5f5f3e3d5ffd5b505050506040513d601f19601f82011682018060405250810190611b4a9190614ab9565b9050611b57816003612f25565b64ffffffffff4216611b7161018088016101608901614da9565b64ffffffffff1611865f013590611b9e57604051630422552f60e11b8152600401610afb91815260200190565b508560a001358511158015611bb857508561010001358411155b8015611bc957508561012001358311155b8686868690919293611bf25760405163a02db78360e01b8152600401610afb9493929190614ee9565b505050505f611c03875f01356110b4565b9050611c14835f89602001356129a0565b86355f90815260026020526040808220919091555163770fcd3560e11b81526001600160a01b0383169063ee1f9a6a90611c5a908a908a908a908a908890600401614f16565b5f604051808303815f87803b158015611c71575f5ffd5b505af1158015611c83573d5f5f3e3d5ffd5b50506040805189815260208101899052908101879052893592506001600160a01b03861691507f825c3ee6eecaa4b0dc3573e9732b65613d705cadfc4ba69cc76cb7d9227e59719060600160405180910390a3611ce38735878787612f84565b50505050505050565b6001600160a01b0381165f9081526001602052604090206002815460ff166003811115611d1b57611d1b6145e6565b14611d3957604051635c92b23960e11b815260040160405180910390fd5b60018154610100900460ff166003811115611d5657611d566145e6565b03611e5157816001600160a01b03166318160ddd6040518163ffffffff1660e01b8152600401602060405180830381865afa158015611d97573d5f5f3e3d5ffd5b505050506040513d601f19601f82011682018060405250810190611dbb9190614f55565b15611e4c57805f0160019054906101000a900460ff16826001600160a01b03166318160ddd6040518163ffffffff1660e01b8152600401602060405180830381865afa158015611e0d573d5f5f3e3d5ffd5b505050506040513d601f19601f82011682018060405250810190611e319190614f55565b604051631d0ec0ab60e01b8152600401610afb929190614f6c565b61212a565b60028154610100900460ff166003811115611e6e57611e6e6145e6565b03611ee0576001600160a01b0382165f908152600460205260409020546001600160801b031615611e4c5780546001600160a01b0383165f90815260046020819052604091829020549151631d0ec0ab60e01b8152610afb93610100900460ff16926001600160801b03169101614f83565b5f829050806001600160a01b03166326ccbd226040518163ffffffff1660e01b8152600401602060405180830381865afa158015611f20573d5f5f3e3d5ffd5b505050506040513d601f19601f82011682018060405250810190611f449190614f55565b15611f9657815f0160019054906101000a900460ff16816001600160a01b03166326ccbd226040518163ffffffff1660e01b8152600401602060405180830381865afa158015611e0d573d5f5f3e3d5ffd5b5f816001600160a01b031663536ebbfc6040518163ffffffff1660e01b8152600401602060405180830381865afa158015611fd3573d5f5f3e3d5ffd5b505050506040513d601f19601f82011682018060405250810190611ff79190614ab9565b90506001600160a01b0381161561205f576040516376c7fc5560e01b81526001600160a01b0383811660048301528216906376c7fc55906024015f604051808303815f87803b158015612048575f5ffd5b505af115801561205a573d5f5f3e3d5ffd5b505050505b816001600160a01b0316637b83037b6040518163ffffffff1660e01b8152600401602060405180830381865afa15801561209b573d5f5f3e3d5ffd5b505050506040513d601f19601f820116820180604052508101906120bf9190614ab9565b90506001600160a01b03811615612127576040516376c7fc5560e01b81526001600160a01b0383811660048301528216906376c7fc55906024015f604051808303815f87803b158015612110575f5ffd5b505af1158015612122573d5f5f3e3d5ffd5b505050505b50505b80546040516001600160a01b038416917ffe4c6998a06520b63340a48710b374432cb395da90e4e5360e1ec7aeefebecef9161217091610100900460ff16905f90614d68565b60405180910390a2506001600160a01b03165f908152600160205260409020805461ffff19169055565b5f5f5160206151cb5f395f51905f526001600160a01b0383166121d2576040516322718ad960e21b81525f6004820152602401610afb565b6001600160a01b039092165f908152600390920160205250604090205490565b610f21613082565b7f80bb2b638cc20bc4d0a60d66940f3ab4a00c1d7b313497ca82fb0b4ab007930180546060915f5160206151cb5f395f51905f529161083a90614a87565b6001600160a01b0382165f90815260046020526040812090612259836130ca565b82549091506001600160801b0390811690829081168211156122a157604051630ce06d1360e31b81526001600160801b03928316600482015291166024820152604401610afb565b5050815460408051600160801b9092046001600160801b039081168352831660208301526001600160a01b038616917f7e1092696182a6d6922c9583db468951527f21f67f9f2f4911ed3f7bbf02b330910160405180910390a281546001600160801b03918216600160801b0291161790555050565b610a27338383613101565b604080515f815260208101909152606090826001600160401b0381111561234b5761234b6142c6565b60405190808252806020026020018201604052801561237e57816020015b60608152602001906001900390816123695790505b5091505f5b838110156123ff576123da308686848181106123a1576123a1614fa8565b90506020028101906123b39190614fbc565b856040516020016123c69392919061501c565b6040516020818303038152906040526131b0565b8382815181106123ec576123ec614fa8565b6020908102919091010152600101612383565b505092915050565b612412848484610e90565b610f133385858585613250565b6124276128a0565b610a2761243936849003840184614d8e565b825f61336f565b606061244b82612823565b505f6124556135f4565b90505f8151116124735760405180602001604052805f81525061249e565b8061247d84613684565b60405160200161248e929190615031565b6040516020818303038152906040525b9392505050565b6124ad6128a0565b6001600160a01b037f00000000000000000000000000000000000000000000000000000000000000001663d505accf336040516001600160e01b031960e084901b1681526001600160a01b039091166004820152306024820152604481018990526064810187905260ff8616608482015260a4810185905260c4810184905260e4015f604051808303815f87803b158015612546575f5ffd5b505af1925050508015612557575060015b50611ce3878787613713565b5f61256c6128a0565b826001600160a01b0381166125a057604051639cfea58360e01b81526001600160a01b039091166004820152602401610afb565b506125ac856001612f25565b6001600160a01b0385166323e103a885336040516001600160e01b031960e085901b16815260048101929092526001600160a01b0390811660248301528086166044830152861660648201526084016020604051808303815f875af1158015612617573d5f5f3e3d5ffd5b505050506040513d601f19601f8201168201806040525081019061263b9190614f55565b90506001600160a01b03831633604080516001600160a01b03868116825260208201869052928316928916917fe826ecb5c03d4897f8ab426ee94064e06179dff39cd9fdd0776904cd935c95d8910160405180910390a4949350505050565b6001600160a01b039182165f9081527f80bb2b638cc20bc4d0a60d66940f3ab4a00c1d7b313497ca82fb0b4ab00793056020908152604080832093909416825291909152205460ff1690565b6126ef8161385e565b50565b6126fa6128a0565b610f3d838383613713565b61270d6128a0565b4261272061018083016101608401614da9565b64ffffffffff16111561277057803561274161018083016101608401614da9565b60405163312bfdd760e11b8152600481019290925264ffffffffff166024820152426044820152606401610afb565b6126ef61278236839003830183614d8e565b5f600161336f565b5f6001600160e01b031982166380ac58cd60e01b14806127ba57506001600160e01b03198216635b5e139f60e01b145b8061081557506301ffc9a760e01b6001600160e01b0319831614610815565b5f807ff0c57e16840df040f15088dc2f81fe391c3923bec73e23a9662efc9c229c6a00610815565b6128096138ec565b610a278282613911565b610f216138ec565b6126e66138ec565b5f5f61282e83613941565b90506001600160a01b03811661081557604051637e27328960e01b815260048101849052602401610afb565b5f9081527f80bb2b638cc20bc4d0a60d66940f3ab4a00c1d7b313497ca82fb0b4ab007930460205260409020546001600160a01b031690565b610f3d838383600161397a565b5f51602061520b5f395f51905f525460ff1615610f215760405163d93c066560e01b815260040160405180910390fd5b60016128dc8383613a8d565b60038111156128ed576128ed6145e6565b14610a2757604051630422f25f60e01b815260040160405180910390fd5b5f61249e6bffffffffffffffffffffffff83166bffffffffffffffffffffffff19606086901b16615045565b5f816040516020016129499190614b6b565b60408051601f1981840301815291905280516020909101209050818161298357604051636ee9f64760e01b8152600401610afb9190614b6b565b50919050565b6129938383613afe565b610f3d335f858585613250565b6001600160a01b0383165f9081526004602052604090208215612a4a576129c6826130ca565b815482905f906129e09084906001600160801b0316615058565b82546101009290920a6001600160801b0381810219909316918316021790915582548082169250600160801b90041680821115612a4357604051630ce06d1360e31b81526001600160801b03928316600482015291166024820152604401610afb565b5050610f13565b612a53826130ca565b815482905f90612a6d9084906001600160801b0316615077565b92506101000a8154816001600160801b0302191690836001600160801b0316021790555050505050565b612aa5848484846001613b5f565b610f1357604051635274afe760e01b81526001600160a01b0385166004820152602401610afb565b5f612ad66128a0565b612ae1848484613bcc565b949350505050565b612af1613cce565b5f51602061520b5f395f51905f52805460ff191681557f5db9ee0a495bf2e6ff9c91a7834c1ba4fdd244a5e8aa4e537bd38aeae4b073aa335b6040516001600160a01b03909116815260200160405180910390a150565b306001600160a01b037f0000000000000000000000000000000000000000000000000000000000000000161480612bce57507f00000000000000000000000000000000000000000000000000000000000000006001600160a01b0316612bc25f5160206151eb5f395f51905f52546001600160a01b031690565b6001600160a01b031614155b15610f215760405163703e46dd60e11b815260040160405180910390fd5b5f8190507f00000000000000000000000000000000000000000000000000000000000000006001600160a01b0316816001600160a01b031663e5a6b10f6040518163ffffffff1660e01b8152600401602060405180830381865afa158015612c56573d5f5f3e3d5ffd5b505050506040513d601f19601f82011682018060405250810190612c7a9190614ab9565b6001600160a01b031614610a27576040516324a41b4360e11b815260040160405180910390fd5b816001600160a01b03166352d1902d6040518163ffffffff1660e01b8152600401602060405180830381865afa925050508015612cfb575060408051601f3d908101601f19168201909252612cf891810190614f55565b60015b612d2357604051634c9c8ce360e01b81526001600160a01b0383166004820152602401610afb565b5f5160206151eb5f395f51905f528114612d5357604051632a87526960e21b815260048101829052602401610afb565b610f3d8383613cfd565b306001600160a01b037f00000000000000000000000000000000000000000000000000000000000000001614610f215760405163703e46dd60e11b815260040160405180910390fd5b805115801590612dcc575080515f90815260026020526040902054612dca82612937565b145b815190610a27576040516321df5fa560e11b8152600401610afb91815260200190565b5f612dfa8284614e8d565b90508015612e3757612e376001600160a01b037f000000000000000000000000000000000000000000000000000000000000000016868684612a97565b5050505050565b5f612e48836110b4565b9050612e5b81630162fc8560e11b613d52565b612e6457505050565b5f6001600160a01b038216635ee0c7dd336040516001600160e01b031960e084901b1681526001600160a01b03909116600482015230602482015260448101879052606481018690526084016020604051808303815f875af1158015612ecc573d5f5f3e3d5ffd5b505050506040513d601f19601f82011682018060405250810190612ef09190615096565b90506001600160e01b03198116635ee0c7dd60e01b14610f1357806040516381784a5160e01b8152600401610afb9190614ea0565b5f612f308383613a8d565b90506001816003811115612f4657612f466145e6565b14158015612f6657506002816003811115612f6357612f636145e6565b14155b15610f3d5760405163d08ef1ff60e01b815260040160405180910390fd5b5f612f8e856110b4565b9050612fa181630162fc8560e11b613d52565b612fab5750610f13565b5f6001600160a01b0382166362eb345e336040516001600160e01b031960e084901b1681526001600160a01b03909116600482015230602482015260448101899052606481018890526084810187905260a4810186905260c4016020604051808303815f875af1158015613021573d5f5f3e3d5ffd5b505050506040513d601f19601f820116820180604052508101906130459190615096565b90506001600160e01b031981166331759a2f60e11b1461307a57806040516381784a5160e01b8152600401610afb9190614ea0565b505050505050565b61308a6128a0565b5f51602061520b5f395f51905f52805460ff191660011781557f62e78cea01bee320cd4e420270b5ea74000d11b0c9f74754ebdbfc544b05a25833612b2a565b5f6001600160801b038211156130fd576040516306dfcc6560e41b81526080600482015260248101839052604401610afb565b5090565b5f5160206151cb5f395f51905f526001600160a01b03831661314157604051630b61174360e31b81526001600160a01b0384166004820152602401610afb565b6001600160a01b038481165f818152600584016020908152604080832094881680845294825291829020805460ff191687151590811790915591519182527f17307eab39ab6107e8899845ad3d59bd9653f200f220920489ca2b5937696c31910160405180910390a350505050565b60605f6131bd8484613d6d565b90508080156131de57505f3d11806131de57505f846001600160a01b03163b115b156131f3576131eb613d80565b915050610815565b801561321d57604051639996b31560e01b81526001600160a01b0385166004820152602401610afb565b3d156132305761322b613d99565b613249565b60405163d6bda27560e01b815260040160405180910390fd5b5092915050565b6001600160a01b0383163b15612e3757604051630a85bd0160e11b81526001600160a01b0384169063150b7a02906132929088908890879087906004016150b1565b6020604051808303815f875af19250505080156132cc575060408051601f3d908101601f191682019092526132c991810190615096565b60015b613333573d8080156132f9576040519150601f19603f3d011682016040523d82523d5f602084013e6132fe565b606091505b5080515f0361332b57604051633250574960e11b81526001600160a01b0385166004820152602401610afb565b805160208201fd5b6001600160e01b03198116630a85bd0160e11b1461307a57604051633250574960e11b81526001600160a01b0385166004820152602401610afb565b61337883612da6565b825160601c8115801561339457506001600160a01b0381163314155b156133b257604051634ace04f960e01b815260040160405180910390fd5b8215806133ca57504284610160015164ffffffffff16115b8451906133ed57604051630422552f60e11b8152600401610afb91815260200190565b506133f9816002612f25565b602084015183908082111561342a576040516317d3b4f960e01b815260048101929092526024820152604401610afb565b50505f5f841190505f826001600160a01b03166373a952e86040518163ffffffff1660e01b8152600401602060405180830381865afa15801561346f573d5f5f3e3d5ffd5b505050506040513d601f19601f820116820180604052508101906134939190614ab9565b90506134a0816003612f25565b85515f908152600260205260408120558115613529575f6134c3875f01516110b4565b604051631dda289960e01b81529091506001600160a01b03831690631dda2899906134f69084908b908b906004016150e3565b5f604051808303815f87803b15801561350d575f5ffd5b505af115801561351f573d5f5f3e3d5ffd5b5050505050613583565b6040516376185ff160e01b81526001600160a01b038216906376185ff190613555908990600401614b6b565b5f604051808303815f87803b15801561356c575f5ffd5b505af115801561357e573d5f5f3e3d5ffd5b505050505b613592835f88602001516129a0565b85516040518681526001600160a01b038516907f54f4a270ea08f88dc23b2520d6b063fecb24d956c4496f447926d736338f545e9060200160405180910390a384156135e95785516135e49086613da4565b61307a565b855161307a90613e8b565b60606003805461360390614a87565b80601f016020809104026020016040519081016040528092919081815260200182805461362f90614a87565b801561367a5780601f106136515761010080835404028352916020019161367a565b820191905f5260205f20905b81548152906001019060200180831161365d57829003601f168201915b5050505050905090565b60605f61369083613f79565b60010190505f816001600160401b038111156136ae576136ae6142c6565b6040519080825280601f01601f1916602001820160405280156136d8576020820181803683370190505b5090508181016020015b5f19016f181899199a1a9b1b9c1cb0b131b232b360811b600a86061a8153600a85049450846136e257509392505050565b806001600160a01b03811661374757604051639cfea58360e01b81526001600160a01b039091166004820152602401610afb565b506137538360016128d0565b6137887f00000000000000000000000000000000000000000000000000000000000000006001600160a01b0316338585612a97565b6001600160a01b038316632e2d298483336040516001600160e01b031960e085901b16815260048101929092526001600160a01b039081166024830152841660448201526064015f604051808303815f87803b1580156137e6575f5ffd5b505af11580156137f8573d5f5f3e3d5ffd5b50505050806001600160a01b031661380d3390565b6001600160a01b0316846001600160a01b03167f7cfff908a4b583f36430b25d75964c458d8ede8a99bd61be750e97ee1b2f3a968560405161385191815260200190565b60405180910390a4505050565b6001600160a01b038116613885576040516307a2ee8b60e11b815260040160405180910390fd5b5f54604080516001600160a01b03928316815291831660208301527f8c3aa5f43a388513435861bf27dfad7829cd248696fed367c62d441f62954496910160405180910390a15f80546001600160a01b0319166001600160a01b0392909216919091179055565b6138f4614050565b610f2157604051631afcd79f60e31b815260040160405180910390fd5b6139196138ec565b5f5160206151cb5f395f51905f52806139328482615110565b5060018101610f138382615110565b5f9081527f80bb2b638cc20bc4d0a60d66940f3ab4a00c1d7b313497ca82fb0b4ab007930260205260409020546001600160a01b031690565b5f5160206151cb5f395f51905f52818061399c57506001600160a01b03831615155b15613a5d575f6139ab85612823565b90506001600160a01b038416158015906139d75750836001600160a01b0316816001600160a01b031614155b80156139ea57506139e8818561269a565b155b15613a135760405163a9fbf51f60e01b81526001600160a01b0385166004820152602401610afb565b8215613a5b5784866001600160a01b0316826001600160a01b03167f8c5be1e5ebec7d5bd14f71427d1e84f3dd0314c0f7b2291e5b200ac8c7c3b92560405160405180910390a45b505b5f93845260040160205250506040902080546001600160a01b0319166001600160a01b0392909216919091179055565b6001600160a01b0382165f908152600160205260408120826003811115613ab657613ab66145e6565b8154610100900460ff166003811115613ad157613ad16145e6565b14613af357838360405163502c9a5f60e01b8152600401610afb929190614ed0565b5460ff169392505050565b6001600160a01b038216613b2757604051633250574960e11b81525f6004820152602401610afb565b5f613b3383835f612acd565b90506001600160a01b03811615610f3d576040516339e3563760e11b81525f6004820152602401610afb565b6040516323b872dd60e01b5f8181526001600160a01b038781166004528616602452604485905291602083606481808c5af1925060015f51148316613bbb578383151615613baf573d5f823e3d81fd5b5f883b113d1516831692505b604052505f60605295945050505050565b5f5f5160206151cb5f395f51905f5281613be585613941565b90506001600160a01b03841615613c0157613c01818587614069565b6001600160a01b03811615613c3d57613c1c5f865f5f61397a565b6001600160a01b0381165f908152600383016020526040902080545f190190555b6001600160a01b03861615613c6d576001600160a01b0386165f9081526003830160205260409020805460010190555b5f85815260028301602052604080822080546001600160a01b0319166001600160a01b038a811691821790925591518893918516917fddf252ad1be2c89b69c2b068fc378daa952ba7f163c4a11628f55a4df523b3ef91a495945050505050565b5f51602061520b5f395f51905f525460ff16610f2157604051638dfc202b60e01b815260040160405180910390fd5b613d06826140cd565b6040516001600160a01b038316907fbc7cd75a20ee27fd9adebab32041f755214dbc6bffa90cc0225b39da2e5c2d3b905f90a2805115613d4a57610f3d82826131b0565b610a27614130565b5f613d5c8361414f565b801561249e575061249e838361419a565b5f5f5f835160208501865af49392505050565b6040513d81523d5f602083013e3d602001810160405290565b6040513d5f823e3d81fd5b5f613dae836110b4565b9050613dc181630162fc8560e11b613d52565b613dca57505050565b5f6001600160a01b03821663d6281d3e336040516001600160e01b031960e084901b1681526001600160a01b03909116600482015230602482015260448101879052606481018690526084016020604051808303815f875af1158015613e32573d5f5f3e3d5ffd5b505050506040513d601f19601f82011682018060405250810190613e569190615096565b90506001600160e01b03198116636b140e9f60e11b14610f1357806040516381784a5160e01b8152600401610afb9190614ea0565b5f613e95826110b4565b9050613ea881630162fc8560e11b613d52565b613eb0575050565b6001600160a01b03811663e8e617b7620249f0336040516001600160e01b031960e085901b1681526001600160a01b039091166004820152306024820152604481018690526064016020604051808303815f8887f193505050508015613f33575060408051601f3d908101601f19168201909252613f3091810190615096565b60015b610f3d576040516001600160a01b038216815282907f6ce8016f81523f240956bca9a698e643d09e84e7d0e931470b1016baf1027bd09060200160405180910390a25050565b5f8072184f03e93ff9f4daa797ed6e38ed64bf6a1f0160401b8310613fb75772184f03e93ff9f4daa797ed6e38ed64bf6a1f0160401b830492506040015b6d04ee2d6d415b85acef81000000008310613fe3576d04ee2d6d415b85acef8100000000830492506020015b662386f26fc10000831061400157662386f26fc10000830492506010015b6305f5e1008310614019576305f5e100830492506008015b612710831061402d57612710830492506004015b6064831061403f576064830492506002015b600a83106108155760010192915050565b5f6140596127d9565b54600160401b900460ff16919050565b6140748383836141be565b610f3d576001600160a01b0383166140a257604051637e27328960e01b815260048101829052602401610afb565b60405163177e802f60e01b81526001600160a01b038316600482015260248101829052604401610afb565b806001600160a01b03163b5f0361410257604051634c9c8ce360e01b81526001600160a01b0382166004820152602401610afb565b5f5160206151eb5f395f51905f5280546001600160a01b0319166001600160a01b0392909216919091179055565b3415610f215760405163b398979f60e01b815260040160405180910390fd5b5f614161826301ffc9a760e01b61419a565b1561418e575f8061417a846001600160e01b0319614222565b91509150818015612ae15750159392505050565b505f919050565b919050565b5f5f5f6141a78585614222565b915091508180156141b55750805b95945050505050565b5f6001600160a01b03831615801590612ae15750826001600160a01b0316846001600160a01b031614806141f757506141f7848461269a565b80612ae15750826001600160a01b03166142108361285a565b6001600160a01b031614949350505050565b6301ffc9a760e01b5f818152600483905290819060208260248188617530fa92505f511515601f3d11169150509250929050565b6001600160e01b0319811681146126ef575f5ffd5b5f6020828403121561427b575f5ffd5b813561249e81614256565b5f81518084528060208401602086015e5f602082860101526020601f19601f83011685010191505092915050565b602081525f61249e6020830184614286565b634e487b7160e01b5f52604160045260245ffd5b60405161018081016001600160401b03811182821017156142fd576142fd6142c6565b60405290565b5f82601f830112614312575f5ffd5b8135602083015f5f6001600160401b03841115614331576143316142c6565b50604051601f19601f85018116603f011681018181106001600160401b038211171561435f5761435f6142c6565b604052838152905080828401871015614376575f5ffd5b838360208301375f602085830101528094505050505092915050565b6001600160a01b03811681146126ef575f5ffd5b5f5f5f606084860312156143b8575f5ffd5b83356001600160401b038111156143cd575f5ffd5b6143d986828701614303565b93505060208401356001600160401b038111156143f4575f5ffd5b61440086828701614303565b925050604084013561441181614392565b809150509250925092565b5f6020828403121561442c575f5ffd5b5035919050565b5f5f60408385031215614444575f5ffd5b823561444f81614392565b946020939093013593505050565b803564ffffffffff81168114614195575f5ffd5b5f6101808284031215614482575f5ffd5b61448a6142da565b823581526020808401359082015260408084013590820152606080840135908201526080808401359082015260a0808401359082015260c0808401359082015260e080840135908201526101008084013590820152610120808401359082015290506144f9610140830161445d565b61014082015261450c610160830161445d565b61016082015292915050565b80356bffffffffffffffffffffffff81168114614195575f5ffd5b5f5f5f5f6101e08587031215614547575f5ffd5b6145518686614471565b935061018085013561456281614392565b92506101a085013561457381614392565b91506145826101c08601614518565b905092959194509250565b5f5f5f6060848603121561459f575f5ffd5b83356145aa81614392565b925060208401356145ba81614392565b929592945050506040919091013590565b5f602082840312156145db575f5ffd5b813561249e81614392565b634e487b7160e01b5f52602160045260245ffd5b600481106126ef57634e487b7160e01b5f52602160045260245ffd5b60208101614623836145fa565b91905290565b5f5f6040838503121561463a575f5ffd5b823561464581614392565b915060208301356001600160401b0381111561465f575f5ffd5b61466b85828601614303565b9150509250929050565b5f5f60208385031215614686575f5ffd5b82356001600160401b0381111561469b575f5ffd5b8301601f810185136146ab575f5ffd5b80356001600160401b038111156146c0575f5ffd5b8560208284010111156146d1575f5ffd5b6020919091019590945092505050565b600481106126ef575f5ffd5b5f5f604083850312156146fe575f5ffd5b823561470981614392565b91506020830135614719816146e1565b809150509250929050565b5f6101808284031215612983575f5ffd5b5f5f5f5f6103408587031215614749575f5ffd5b6147538686614724565b9350614763866101808701614471565b925061030085013561477481614392565b91506145826103208601614518565b5f5f5f5f6101e08587031215614797575f5ffd5b6147a18686614724565b9661018086013596506101a0860135956101c00135945092505050565b80151581146126ef575f5ffd5b5f5f604083850312156147dc575f5ffd5b82356147e781614392565b91506020830135614719816147be565b5f5f60208385031215614808575f5ffd5b82356001600160401b0381111561481d575f5ffd5b8301601f8101851361482d575f5ffd5b80356001600160401b03811115614842575f5ffd5b8560208260051b84010111156146d1575f5ffd5b5f602082016020835280845180835260408501915060408160051b8601019250602086015f5b828110156148ad57603f19878603018452614898858351614286565b9450602093840193919091019060010161487c565b50929695505050505050565b5f5f5f5f608085870312156148cc575f5ffd5b84356148d781614392565b935060208501356148e781614392565b92506040850135915060608501356001600160401b03811115614908575f5ffd5b61491487828801614303565b91505092959194509250565b5f5f6101a08385031215614932575f5ffd5b61493c8484614724565b94610180939093013593505050565b5f5f5f5f5f5f5f60e0888a031215614961575f5ffd5b873561496c81614392565b965060208801359550604088013561498381614392565b945060608801359350608088013560ff8116811461499f575f5ffd5b9699959850939692959460a0840135945060c09093013592915050565b5f5f5f5f608085870312156149cf575f5ffd5b84356149da81614392565b93506020850135925060408501356149f181614392565b91506060850135614a0181614392565b939692955090935050565b5f5f60408385031215614a1d575f5ffd5b8235614a2881614392565b9150602083013561471981614392565b5f5f5f60608486031215614a4a575f5ffd5b8335614a5581614392565b925060208401359150604084013561441181614392565b5f6101808284031215614a7d575f5ffd5b61249e8383614724565b600181811c90821680614a9b57607f821691505b60208210810361298357634e487b7160e01b5f52602260045260245ffd5b5f60208284031215614ac9575f5ffd5b815161249e81614392565b805182526020810151602083015260408101516040830152606081015160608301526080810151608083015260a081015160a083015260c081015160c083015260e081015160e0830152610100810151610100830152610120810151610120830152610140810151614b5061014084018264ffffffffff169052565b50610160810151610f3d61016084018264ffffffffff169052565b61018081016108158284614ad4565b5f5f60408385031215614b8b575f5ffd5b8251614b9681614392565b602084015190925061471981614392565b81835281816020850137505f828201602090810191909152601f909101601f19169091010190565b604081525f5f8554614be081614a87565b806040860152600182165f8114614bfe5760018114614c1a57614c4b565b60ff1983166060870152606082151560051b8701019350614c4b565b885f5260205f205f5b83811015614c4257815488820160600152600190910190602001614c23565b87016060019450505b5050508281036020840152614c61818587614ba7565b9695505050505050565b601f821115610f3d57805f5260205f20601f840160051c81016020851015614c905750805b601f840160051c820191505b81811015612e37575f8155600101614c9c565b6001600160401b03831115614cc657614cc66142c6565b614cda83614cd48354614a87565b83614c6b565b5f601f841160018114614d0b575f8515614cf45750838201355b5f19600387901b1c1916600186901b178355612e37565b5f83815260208120601f198716915b82811015614d3a5786850135825560209485019460019092019101614d1a565b5086821015614d56575f1960f88860031b161c19848701351681555b505060018560011b0183555050505050565b60408101614d75846145fa565b838252614d81836145fa565b8260208301529392505050565b5f6101808284031215614d9f575f5ffd5b61249e8383614471565b5f60208284031215614db9575f5ffd5b61249e8261445d565b803582526020808201359083015260408082013590830152606080820135908301526080808201359083015260a0808201359083015260c0808201359083015260e0808201359083015261010080820135908301526101208082013590830152614e2f610140820161445d565b64ffffffffff16610140830152614e49610160820161445d565b64ffffffffff8116610160840152505050565b6103008101614e6b8285614dc2565b61249e610180830184614ad4565b634e487b7160e01b5f52601160045260245ffd5b8181038181111561081557610815614e79565b6001600160e01b031991909116815260200190565b5f60208284031215614ec5575f5ffd5b815161249e816147be565b6001600160a01b038316815260408101614d81836145fa565b6101e08101614ef88287614dc2565b84610180830152836101a0830152826101c083015295945050505050565b6102008101614f258288614dc2565b6101808201959095526101a08101939093526101c08301919091526001600160a01b03166101e090910152919050565b5f60208284031215614f65575f5ffd5b5051919050565b60408101614f79846145fa565b9281526020015290565b60408101614f90846145fa565b9281526001600160801b039190911660209091015290565b634e487b7160e01b5f52603260045260245ffd5b5f5f8335601e19843603018112614fd1575f5ffd5b8301803591506001600160401b03821115614fea575f5ffd5b602001915036819003821315614ffe575f5ffd5b9250929050565b5f81518060208401855e5f93019283525090919050565b828482375f8382015f8152614c618185615005565b5f612ae161503f8386615005565b84615005565b8082018082111561081557610815614e79565b6001600160801b03818116838216019081111561081557610815614e79565b6001600160801b03828116828216039081111561081557610815614e79565b5f602082840312156150a6575f5ffd5b815161249e81614256565b6001600160a01b03858116825284166020820152604081018390526080606082018190525f90614c6190830184614286565b6001600160a01b03841681526101c081016151016020830185614ad4565b826101a0830152949350505050565b81516001600160401b03811115615129576151296142c6565b61513d816151378454614a87565b84614c6b565b6020601f82116001811461516f575f83156151585750848201515b5f19600385901b1c1916600184901b178455612e37565b5f84815260208120601f198516915b8281101561519e578785015182556020948501946001909201910161517e565b50848210156151bb57868401515f19600387901b60f8161c191681555b50505050600190811b0190555056fe80bb2b638cc20bc4d0a60d66940f3ab4a00c1d7b313497ca82fb0b4ab0079300360894a13ba1a3210667c828492db98dca3e2076cc3735a920a3ca505d382bbccd5ed15c6e187e77e9aee88184c21f4f2182ab5827cb3b7e07fbedcd63f03300a26469706673582212201886fe100d15e0182da4ce6812e18ebcbc356c94179478260b8afc679cf1af8164736f6c634300081e0033",
  "linkReferences": {},
  "deployedLinkReferences": {}
}