{
  "_format": "hh-sol-artifact-1",
  "contractName": "Cooler",
  "sourceName": "contracts/Cooler.sol",
  "abi": [
    {
      "inputs": [
        {
          "internalType": "contract IPolicyPool",
          "name": "policyPool_",
          "type": "address"
        }
      ],
      "stateMutability": "nonpayable",
      "type": "constructor"
    },
    {
      "inputs": [
        {
          "internalType": "address",
          "name": "target",
          "type": "address"
        }
      ],
      "name": "AddressEmptyCode",
      "type": "error"
    },
    {
      "inputs": [],
      "name": "CannotDoZeroWithdrawals",
      "type": "error"
    },
    {
      "inputs": [
        {
          "internalType": "address",
          "name": "implementation",
          "type": "address"
        }
      ],
      "name": "ERC1967InvalidImplementation",
      "type": "error"
    },
    {
      "inputs": [],
      "name": "ERC1967NonPayable",
      "type": "error"
    },
    {
      "inputs": [
        {
          "internalType": "address",
          "name": "sender",
          "type": "address"
        },
        {
          "internalType": "uint256",
          "name": "tokenId",
          "type": "uint256"
        },
        {
          "internalType": "address",
          "name": "owner",
          "type": "address"
        }
      ],
      "name": "ERC721IncorrectOwner",
      "type": "error"
    },
    {
      "inputs": [
        {
          "internalType": "address",
          "name": "operator",
          "type": "address"
        },
        {
          "internalType": "uint256",
          "name": "tokenId",
          "type": "uint256"
        }
      ],
      "name": "ERC721InsufficientApproval",
      "type": "error"
    },
    {
      "inputs": [
        {
          "internalType": "address",
          "name": "approver",
          "type": "address"
        }
      ],
      "name": "ERC721InvalidApprover",
      "type": "error"
    },
    {
      "inputs": [
        {
          "internalType": "address",
          "name": "operator",
          "type": "address"
        }
      ],
      "name": "ERC721InvalidOperator",
      "type": "error"
    },
    {
      "inputs": [
        {
          "internalType": "address",
          "name": "owner",
          "type": "address"
        }
      ],
      "name": "ERC721InvalidOwner",
      "type": "error"
    },
    {
      "inputs": [
        {
          "internalType": "address",
          "name": "receiver",
          "type": "address"
        }
      ],
      "name": "ERC721InvalidReceiver",
      "type": "error"
    },
    {
      "inputs": [
        {
          "internalType": "address",
          "name": "sender",
          "type": "address"
        }
      ],
      "name": "ERC721InvalidSender",
      "type": "error"
    },
    {
      "inputs": [
        {
          "internalType": "uint256",
          "name": "tokenId",
          "type": "uint256"
        }
      ],
      "name": "ERC721NonexistentToken",
      "type": "error"
    },
    {
      "inputs": [],
      "name": "FailedCall",
      "type": "error"
    },
    {
      "inputs": [
        {
          "internalType": "contract IEToken",
          "name": "eToken",
          "type": "address"
        }
      ],
      "name": "InvalidEToken",
      "type": "error"
    },
    {
      "inputs": [],
      "name": "InvalidInitialization",
      "type": "error"
    },
    {
      "inputs": [
        {
          "internalType": "uint256",
          "name": "tokenId",
          "type": "uint256"
        }
      ],
      "name": "InvalidWithdrawalRequest",
      "type": "error"
    },
    {
      "inputs": [],
      "name": "NoZeroPolicyPool",
      "type": "error"
    },
    {
      "inputs": [],
      "name": "NotInitializing",
      "type": "error"
    },
    {
      "inputs": [],
      "name": "OnlyPolicyPool",
      "type": "error"
    },
    {
      "inputs": [
        {
          "internalType": "uint8",
          "name": "bits",
          "type": "uint8"
        },
        {
          "internalType": "uint256",
          "name": "value",
          "type": "uint256"
        }
      ],
      "name": "SafeCastOverflowedUintDowncast",
      "type": "error"
    },
    {
      "inputs": [
        {
          "internalType": "address",
          "name": "token",
          "type": "address"
        }
      ],
      "name": "SafeERC20FailedOperation",
      "type": "error"
    },
    {
      "inputs": [],
      "name": "UUPSUnauthorizedCallContext",
      "type": "error"
    },
    {
      "inputs": [
        {
          "internalType": "bytes32",
          "name": "slot",
          "type": "bytes32"
        }
      ],
      "name": "UUPSUnsupportedProxiableUUID",
      "type": "error"
    },
    {
      "inputs": [],
      "name": "UpgradeCannotChangePolicyPool",
      "type": "error"
    },
    {
      "inputs": [
        {
          "internalType": "uint256",
          "name": "tokenId",
          "type": "uint256"
        },
        {
          "internalType": "uint40",
          "name": "expiration",
          "type": "uint40"
        }
      ],
      "name": "WithdrawalNotReady",
      "type": "error"
    },
    {
      "inputs": [
        {
          "internalType": "uint40",
          "name": "minRequestTime",
          "type": "uint40"
        },
        {
          "internalType": "uint40",
          "name": "timeRequested",
          "type": "uint40"
        }
      ],
      "name": "WithdrawalRequestEarlierThanMin",
      "type": "error"
    },
    {
      "anonymous": false,
      "inputs": [
        {
          "indexed": true,
          "internalType": "address",
          "name": "owner",
          "type": "address"
        },
        {
          "indexed": true,
          "internalType": "address",
          "name": "approved",
          "type": "address"
        },
        {
          "indexed": true,
          "internalType": "uint256",
          "name": "tokenId",
          "type": "uint256"
        }
      ],
      "name": "Approval",
      "type": "event"
    },
    {
      "anonymous": false,
      "inputs": [
        {
          "indexed": true,
          "internalType": "address",
          "name": "owner",
          "type": "address"
        },
        {
          "indexed": true,
          "internalType": "address",
          "name": "operator",
          "type": "address"
        },
        {
          "indexed": false,
          "internalType": "bool",
          "name": "approved",
          "type": "bool"
        }
      ],
      "name": "ApprovalForAll",
      "type": "event"
    },
    {
      "anonymous": false,
      "inputs": [
        {
          "indexed": true,
          "internalType": "contract IEToken",
          "name": "eToken",
          "type": "address"
        },
        {
          "indexed": false,
          "internalType": "uint40",
          "name": "oldCooldownPeriod",
          "type": "uint40"
        },
        {
          "indexed": false,
          "internalType": "uint40",
          "name": "newCooldownPeriod",
          "type": "uint40"
        }
      ],
      "name": "CooldownPeriodChanged",
      "type": "event"
    },
    {
      "anonymous": false,
      "inputs": [
        {
          "indexed": false,
          "internalType": "uint64",
          "name": "version",
          "type": "uint64"
        }
      ],
      "name": "Initialized",
      "type": "event"
    },
    {
      "anonymous": false,
      "inputs": [
        {
          "indexed": true,
          "internalType": "address",
          "name": "from",
          "type": "address"
        },
        {
          "indexed": true,
          "internalType": "address",
          "name": "to",
          "type": "address"
        },
        {
          "indexed": true,
          "internalType": "uint256",
          "name": "tokenId",
          "type": "uint256"
        }
      ],
      "name": "Transfer",
      "type": "event"
    },
    {
      "anonymous": false,
      "inputs": [
        {
          "indexed": true,
          "internalType": "address",
          "name": "implementation",
          "type": "address"
        }
      ],
      "name": "Upgraded",
      "type": "event"
    },
    {
      "anonymous": false,
      "inputs": [
        {
          "indexed": true,
          "internalType": "contract IEToken",
          "name": "eToken",
          "type": "address"
        },
        {
          "indexed": true,
          "internalType": "uint256",
          "name": "tokenId",
          "type": "uint256"
        },
        {
          "indexed": true,
          "internalType": "address",
          "name": "receiver",
          "type": "address"
        },
        {
          "indexed": false,
          "internalType": "uint256",
          "name": "amountRequested",
          "type": "uint256"
        },
        {
          "indexed": false,
          "internalType": "uint256",
          "name": "amountWithdrawn",
          "type": "uint256"
        }
      ],
      "name": "WithdrawalExecuted",
      "type": "event"
    },
    {
      "anonymous": false,
      "inputs": [
        {
          "indexed": true,
          "internalType": "contract IEToken",
          "name": "eToken",
          "type": "address"
        },
        {
          "indexed": true,
          "internalType": "uint256",
          "name": "tokenId",
          "type": "uint256"
        },
        {
          "indexed": true,
          "internalType": "address",
          "name": "owner",
          "type": "address"
        },
        {
          "indexed": false,
          "internalType": "uint40",
          "name": "when",
          "type": "uint40"
        },
        {
          "indexed": false,
          "internalType": "ETKLib.Scale",
          "name": "scaleAtRequest",
          "type": "uint96"
        },
        {
          "indexed": false,
          "internalType": "uint256",
          "name": "amount",
          "type": "uint256"
        }
      ],
      "name": "WithdrawalRequested",
      "type": "event"
    },
    {
      "inputs": [],
      "name": "UPGRADE_INTERFACE_VERSION",
      "outputs": [
        {
          "internalType": "string",
          "name": "",
          "type": "string"
        }
      ],
      "stateMutability": "view",
      "type": "function"
    },
    {
      "inputs": [
        {
          "internalType": "address",
          "name": "to",
          "type": "address"
        },
        {
          "internalType": "uint256",
          "name": "tokenId",
          "type": "uint256"
        }
      ],
      "name": "approve",
      "outputs": [],
      "stateMutability": "nonpayable",
      "type": "function"
    },
    {
      "inputs": [
        {
          "internalType": "address",
          "name": "owner",
          "type": "address"
        }
      ],
      "name": "balanceOf",
      "outputs": [
        {
          "internalType": "uint256",
          "name": "",
          "type": "uint256"
        }
      ],
      "stateMutability": "view",
      "type": "function"
    },
    {
      "inputs": [
        {
          "internalType": "contract IEToken",
          "name": "eToken",
          "type": "address"
        },
        {
          "internalType": "address",
          "name": "",
          "type": "address"
        },
        {
          "internalType": "uint256",
          "name": "",
          "type": "uint256"
        }
      ],
      "name": "cooldownPeriod",
      "outputs": [
        {
          "internalType": "uint40",
          "name": "",
          "type": "uint40"
        }
      ],
      "stateMutability": "view",
      "type": "function"
    },
    {
      "inputs": [],
      "name": "currency",
      "outputs": [
        {
          "internalType": "contract IERC20Metadata",
          "name": "",
          "type": "address"
        }
      ],
      "stateMutability": "view",
      "type": "function"
    },
    {
      "inputs": [
        {
          "internalType": "uint256",
          "name": "tokenId",
          "type": "uint256"
        }
      ],
      "name": "executeWithdrawal",
      "outputs": [],
      "stateMutability": "nonpayable",
      "type": "function"
    },
    {
      "inputs": [
        {
          "internalType": "uint256",
          "name": "tokenId",
          "type": "uint256"
        }
      ],
      "name": "getApproved",
      "outputs": [
        {
          "internalType": "address",
          "name": "",
          "type": "address"
        }
      ],
      "stateMutability": "view",
      "type": "function"
    },
    {
      "inputs": [
        {
          "internalType": "uint256",
          "name": "tokenId",
          "type": "uint256"
        }
      ],
      "name": "getCurrentValue",
      "outputs": [
        {
          "internalType": "uint256",
          "name": "",
          "type": "uint256"
        }
      ],
      "stateMutability": "view",
      "type": "function"
    },
    {
      "inputs": [
        {
          "internalType": "string",
          "name": "name_",
          "type": "string"
        },
        {
          "internalType": "string",
          "name": "symbol_",
          "type": "string"
        }
      ],
      "name": "initialize",
      "outputs": [],
      "stateMutability": "nonpayable",
      "type": "function"
    },
    {
      "inputs": [
        {
          "internalType": "address",
          "name": "owner",
          "type": "address"
        },
        {
          "internalType": "address",
          "name": "operator",
          "type": "address"
        }
      ],
      "name": "isApprovedForAll",
      "outputs": [
        {
          "internalType": "bool",
          "name": "",
          "type": "bool"
        }
      ],
      "stateMutability": "view",
      "type": "function"
    },
    {
      "inputs": [],
      "name": "name",
      "outputs": [
        {
          "internalType": "string",
          "name": "",
          "type": "string"
        }
      ],
      "stateMutability": "view",
      "type": "function"
    },
    {
      "inputs": [
        {
          "internalType": "uint256",
          "name": "tokenId",
          "type": "uint256"
        }
      ],
      "name": "ownerOf",
      "outputs": [
        {
          "internalType": "address",
          "name": "",
          "type": "address"
        }
      ],
      "stateMutability": "view",
      "type": "function"
    },
    {
      "inputs": [
        {
          "internalType": "contract IEToken",
          "name": "eToken",
          "type": "address"
        }
      ],
      "name": "pendingWithdrawals",
      "outputs": [
        {
          "internalType": "uint256",
          "name": "",
          "type": "uint256"
        }
      ],
      "stateMutability": "view",
      "type": "function"
    },
    {
      "inputs": [],
      "name": "policyPool",
      "outputs": [
        {
          "internalType": "contract IPolicyPool",
          "name": "",
          "type": "address"
        }
      ],
      "stateMutability": "view",
      "type": "function"
    },
    {
      "inputs": [],
      "name": "proxiableUUID",
      "outputs": [
        {
          "internalType": "bytes32",
          "name": "",
          "type": "bytes32"
        }
      ],
      "stateMutability": "view",
      "type": "function"
    },
    {
      "inputs": [
        {
          "internalType": "address",
          "name": "from",
          "type": "address"
        },
        {
          "internalType": "address",
          "name": "to",
          "type": "address"
        },
        {
          "internalType": "uint256",
          "name": "tokenId",
          "type": "uint256"
        }
      ],
      "name": "safeTransferFrom",
      "outputs": [],
      "stateMutability": "nonpayable",
      "type": "function"
    },
    {
      "inputs": [
        {
          "internalType": "address",
          "name": "from",
          "type": "address"
        },
        {
          "internalType": "address",
          "name": "to",
          "type": "address"
        },
        {
          "internalType": "uint256",
          "name": "tokenId",
          "type": "uint256"
        },
        {
          "internalType": "bytes",
          "name": "data",
          "type": "bytes"
        }
      ],
      "name": "safeTransferFrom",
      "outputs": [],
      "stateMutability": "nonpayable",
      "type": "function"
    },
    {
      "inputs": [
        {
          "internalType": "contract IEToken",
          "name": "eToken",
          "type": "address"
        },
        {
          "internalType": "uint40",
          "name": "when",
          "type": "uint40"
        },
        {
          "internalType": "uint256",
          "name": "amount",
          "type": "uint256"
        }
      ],
      "name": "scheduleWithdrawal",
      "outputs": [
        {
          "internalType": "uint256",
          "name": "tokenId",
          "type": "uint256"
        }
      ],
      "stateMutability": "nonpayable",
      "type": "function"
    },
    {
      "inputs": [
        {
          "internalType": "contract IEToken",
          "name": "eToken",
          "type": "address"
        },
        {
          "internalType": "uint40",
          "name": "when",
          "type": "uint40"
        },
        {
          "internalType": "uint256",
          "name": "amount",
          "type": "uint256"
        },
        {
          "internalType": "uint256",
          "name": "deadline",
          "type": "uint256"
        },
        {
          "internalType": "uint8",
          "name": "v",
          "type": "uint8"
        },
        {
          "internalType": "bytes32",
          "name": "r",
          "type": "bytes32"
        },
        {
          "internalType": "bytes32",
          "name": "s",
          "type": "bytes32"
        }
      ],
      "name": "scheduleWithdrawalWithPermit",
      "outputs": [
        {
          "internalType": "uint256",
          "name": "tokenId",
          "type": "uint256"
        }
      ],
      "stateMutability": "nonpayable",
      "type": "function"
    },
    {
      "inputs": [
        {
          "internalType": "address",
          "name": "operator",
          "type": "address"
        },
        {
          "internalType": "bool",
          "name": "approved",
          "type": "bool"
        }
      ],
      "name": "setApprovalForAll",
      "outputs": [],
      "stateMutability": "nonpayable",
      "type": "function"
    },
    {
      "inputs": [
        {
          "internalType": "contract IEToken",
          "name": "eToken",
          "type": "address"
        },
        {
          "internalType": "uint40",
          "name": "newCooldownPeriod",
          "type": "uint40"
        }
      ],
      "name": "setCooldownPeriod",
      "outputs": [],
      "stateMutability": "nonpayable",
      "type": "function"
    },
    {
      "inputs": [
        {
          "internalType": "bytes4",
          "name": "interfaceId",
          "type": "bytes4"
        }
      ],
      "name": "supportsInterface",
      "outputs": [
        {
          "internalType": "bool",
          "name": "",
          "type": "bool"
        }
      ],
      "stateMutability": "view",
      "type": "function"
    },
    {
      "inputs": [],
      "name": "symbol",
      "outputs": [
        {
          "internalType": "string",
          "name": "",
          "type": "string"
        }
      ],
      "stateMutability": "view",
      "type": "function"
    },
    {
      "inputs": [
        {
          "internalType": "uint256",
          "name": "tokenId",
          "type": "uint256"
        }
      ],
      "name": "tokenURI",
      "outputs": [
        {
          "internalType": "string",
          "name": "",
          "type": "string"
        }
      ],
      "stateMutability": "view",
      "type": "function"
    },
    {
      "inputs": [
        {
          "internalType": "address",
          "name": "from",
          "type": "address"
        },
        {
          "internalType": "address",
          "name": "to",
          "type": "address"
        },
        {
          "internalType": "uint256",
          "name": "tokenId",
          "type": "uint256"
        }
      ],
      "name": "transferFrom",
      "outputs": [],
      "stateMutability": "nonpayable",
      "type": "function"
    },
    {
      "inputs": [
        {
          "internalType": "address",
          "name": "newImplementation",
          "type": "address"
        },
        {
          "internalType": "bytes",
          "name": "data",
          "type": "bytes"
        }
      ],
      "name": "upgradeToAndCall",
      "outputs": [],
      "stateMutability": "payable",
      "type": "function"
    }
  ],
  "bytecode": "0x60c060405230608052348015610013575f5ffd5b50604051612ae6380380612ae683398101604081905261003291610126565b806001600160a01b03811661005a57604051636b23cf0160e01b815260040160405180910390fd5b610062610074565b6001600160a01b031660a05250610153565b7ff0c57e16840df040f15088dc2f81fe391c3923bec73e23a9662efc9c229c6a00805468010000000000000000900460ff16156100c45760405163f92ee8a960e01b815260040160405180910390fd5b80546001600160401b03908116146101235780546001600160401b0319166001600160401b0390811782556040519081527fc7f505b2f371ae2175ee4913f4499e1f2633a7b5936321eed1cdaeb6115181d29060200160405180910390a15b50565b5f60208284031215610136575f5ffd5b81516001600160a01b038116811461014c575f5ffd5b9392505050565b60805160a05161294f6101975f395f81816102e30152818161081001528181610d630152611cf701525f81816111f10152818161121a015261135f015261294f5ff3fe60806040526004361061017b575f3560e01c80636352211e116100cd578063b88d4fde11610087578063e5a6b10f11610062578063e5a6b10f1461049e578063e985e9c5146104b2578063f3f43703146104d1578063f630ffe714610505575f5ffd5b8063b88d4fde14610441578063c87b56dd14610460578063d3b59bf41461047f575f5ffd5b80636352211e1461038157806370a08231146103a057806395d89b41146103bf578063a0358077146103d3578063a22cb465146103f2578063ad3cb1cc14610411575f5ffd5b80633fcad964116101385780634d15eb03116101135780634d15eb03146102d55780634f1ef2861461030757806352d1902d1461031a5780635ce095ee1461032e575f5ffd5b80633fcad9641461026a57806342842e0e146102975780634cd88b76146102b6575f5ffd5b806301ffc9a71461017f57806306fdde03146101b3578063081812fc146101d4578063095ea7b31461020b57806323b872dd1461022c57806324f13a761461024b575b5f5ffd5b34801561018a575f5ffd5b5061019e61019936600461226c565b610524565b60405190151581526020015b60405180910390f35b3480156101be575f5ffd5b506101c761055e565b6040516101aa91906122b5565b3480156101df575f5ffd5b506101f36101ee3660046122c7565b6105ff565b6040516001600160a01b0390911681526020016101aa565b348015610216575f5ffd5b5061022a6102253660046122f2565b610613565b005b348015610237575f5ffd5b5061022a61024636600461231c565b610622565b348015610256575f5ffd5b5061022a6102653660046122c7565b6106b0565b348015610275575f5ffd5b506102896102843660046122c7565b6109d2565b6040519081526020016101aa565b3480156102a2575f5ffd5b5061022a6102b136600461231c565b610a26565b3480156102c1575f5ffd5b5061022a6102d03660046123ff565b610a45565b3480156102e0575f5ffd5b507f00000000000000000000000000000000000000000000000000000000000000006101f3565b61022a610315366004612464565b610b40565b348015610325575f5ffd5b50610289610b5b565b348015610339575f5ffd5b5061036b61034836600461231c565b50506001600160a01b03165f9081526033602052604090205464ffffffffff1690565b60405164ffffffffff90911681526020016101aa565b34801561038c575f5ffd5b506101f361039b3660046122c7565b610b76565b3480156103ab575f5ffd5b506102896103ba36600461249b565b610b80565b3480156103ca575f5ffd5b506101c7610bd8565b3480156103de575f5ffd5b506102896103ed3660046124cf565b610c16565b3480156103fd575f5ffd5b5061022a61040c3660046124fa565b610c2a565b34801561041c575f5ffd5b506101c7604051806040016040528060058152602001640352e302e360dc1b81525081565b34801561044c575f5ffd5b5061022a61045b366004612535565b610c35565b34801561046b575f5ffd5b506101c761047a3660046122c7565b610c4d565b34801561048a575f5ffd5b5061028961049936600461259d565b610cbd565b3480156104a9575f5ffd5b506101f3610d60565b3480156104bd575f5ffd5b5061019e6104cc36600461260c565b610de6565b3480156104dc575f5ffd5b506102896104eb36600461249b565b6001600160a01b03165f9081526034602052604090205490565b348015610510575f5ffd5b5061022a61051f366004612638565b610e32565b5f61052e82610ec4565b8061053d575061053d82610f13565b8061055857506001600160e01b0319821663af14a2ed60e01b145b92915050565b5f5160206128da5f395f51905f52805460609190819061057d9061266b565b80601f01602080910402602001604051908101604052809291908181526020018280546105a99061266b565b80156105f45780601f106105cb576101008083540402835291602001916105f4565b820191905f5260205f20905b8154815290600101906020018083116105d757829003601f168201915b505050505091505090565b5f61060982610f48565b5061055882610f7f565b61061e828233610fb8565b5050565b6001600160a01b03821661065057604051633250574960e11b81525f60048201526024015b60405180910390fd5b5f61065c838333610fc5565b9050836001600160a01b0316816001600160a01b0316146106aa576040516364283d7b60e01b81526001600160a01b0380861660048301526024820184905282166044820152606401610647565b50505050565b5f81815260326020526040902060018101548290600160801b900464ffffffffff166106f2576040516347f23c9760e11b815260040161064791815260200190565b5060018101548290600160a81b900464ffffffffff16428111156107395760405163234d921f60e21b8152600481019290925264ffffffffff166024820152604401610647565b50505f61074583610b76565b90505f610751836110c7565b60018401549091505f9061076f9083906001600160801b031661115d565b60018501805464ffffffffff60801b19169055905061078d8561116c565b60018401548454600160601b90046001600160a01b03165f90815260346020526040812080546001600160801b03909316929091906107cd9084906126b7565b90915550508354604051636fe6a09760e11b8152600160601b9091046001600160a01b0390811660048301526024820183905284811660448301523060648301527f0000000000000000000000000000000000000000000000000000000000000000169063dfcd412e906084016020604051808303815f875af1158015610856573d5f5f3e3d5ffd5b505050506040513d601f19601f8201168201806040525081019061087a91906126ca565b5080821115610967578354600160601b90046001600160a01b031663a0ce552d61091b6108a784866126b7565b87546040516370a0823160e01b8152306004820152600160601b9091046001600160a01b0316906370a0823190602401602060405180830381865afa1580156108f2573d5f5f3e3d5ffd5b505050506040513d601f19601f8201168201806040525081019061091691906126ca565b61115d565b6040518263ffffffff1660e01b815260040161093991815260200190565b5f604051808303815f87803b158015610950575f5ffd5b505af1158015610962573d5f5f3e3d5ffd5b505050505b83546001850154604080516001600160801b039092168252602082018490526001600160a01b03868116938993600160601b909104909116917f5c7b80d3b1a3296ffcd888e34c2c2eccd66bb3edb1d128e65a384a38115cb582910160405180910390a45050505050565b5f8181526032602052604081206001810154600160801b900464ffffffffff168203610a0057505f92915050565b610a1f610a0c826110c7565b60018301546001600160801b031661115d565b9392505050565b610a4083838360405180602001604052805f815250610c35565b505050565b5f610a4e6111a4565b805490915060ff600160401b820416159067ffffffffffffffff165f81158015610a755750825b90505f8267ffffffffffffffff166001148015610a915750303b155b905081158015610a9f575080155b15610abd5760405163f92ee8a960e01b815260040160405180910390fd5b845467ffffffffffffffff191660011785558315610ae757845460ff60401b1916600160401b1785555b610af187876111cc565b8315610b3757845460ff60401b19168555604051600181527fc7f505b2f371ae2175ee4913f4499e1f2633a7b5936321eed1cdaeb6115181d29060200160405180910390a15b50505050505050565b610b486111e6565b610b518261128c565b61061e8282611298565b5f610b64611354565b505f5160206128fa5f395f51905f5290565b5f61055882610f48565b5f5f5160206128da5f395f51905f526001600160a01b038316610bb8576040516322718ad960e21b81525f6004820152602401610647565b6001600160a01b039092165f908152600390920160205250604090205490565b7f80bb2b638cc20bc4d0a60d66940f3ab4a00c1d7b313497ca82fb0b4ab007930180546060915f5160206128da5f395f51905f529161057d9061266b565b5f610c2284848461139d565b949350505050565b61061e3383836117ef565b610c40848484610622565b6106aa338585858561189e565b6060610c5882610f48565b505f610c6e60408051602081019091525f815290565b90505f815111610c8c5760405180602001604052805f815250610a1f565b80610c96846119c6565b604051602001610ca79291906126f8565b6040516020818303038152906040529392505050565b5f6001600160a01b03881663d505accf336040516001600160e01b031960e084901b1681526001600160a01b039091166004820152306024820152604481018990526064810188905260ff8716608482015260a4810186905260c4810185905260e4015f604051808303815f87803b158015610d37575f5ffd5b505af1925050508015610d48575060015b50610d5488888861139d565b98975050505050505050565b5f7f00000000000000000000000000000000000000000000000000000000000000006001600160a01b031663e5a6b10f6040518163ffffffff1660e01b8152600401602060405180830381865afa158015610dbd573d5f5f3e3d5ffd5b505050506040513d601f19601f82011682018060405250810190610de1919061270c565b905090565b6001600160a01b039182165f9081527f80bb2b638cc20bc4d0a60d66940f3ab4a00c1d7b313497ca82fb0b4ab00793056020908152604080832093909416825291909152205460ff1690565b6001600160a01b0382165f8181526033602090815260409182902054825164ffffffffff9182168152908516918101919091527f08dfa5493c453115ee7c83f7c1ecb7bf389adaaeade84190f2a6dca91ccaabbd910160405180910390a26001600160a01b03919091165f908152603360205260409020805464ffffffffff191664ffffffffff909216919091179055565b5f6001600160e01b031982166380ac58cd60e01b1480610ef457506001600160e01b03198216635b5e139f60e01b145b8061055857506301ffc9a760e01b6001600160e01b0319831614610558565b5f6001600160e01b031982166301ffc9a760e01b148061055857506001600160e01b03198216634d15eb0360e01b1492915050565b5f5f610f5383611a56565b90506001600160a01b03811661055857604051637e27328960e01b815260048101849052602401610647565b5f9081527f80bb2b638cc20bc4d0a60d66940f3ab4a00c1d7b313497ca82fb0b4ab007930460205260409020546001600160a01b031690565b610a408383836001611a8f565b5f5f5160206128da5f395f51905f5281610fde85611a56565b90506001600160a01b03841615610ffa57610ffa818587611ba2565b6001600160a01b03811615611036576110155f865f5f611a8f565b6001600160a01b0381165f908152600383016020526040902080545f190190555b6001600160a01b03861615611066576001600160a01b0386165f9081526003830160205260409020805460010190555b5f85815260028301602052604080822080546001600160a01b0319166001600160a01b038a811691821790925591518893918516917fddf252ad1be2c89b69c2b068fc378daa952ba7f163c4a11628f55a4df523b3ef91a495945050505050565b80546040516379d989fb60e01b8152600160048201525f9161055891600160601b9091046001600160a01b0316906379d989fb90602401602060405180830381865afa158015611119573d5f5f3e3d5ffd5b505050506040513d601f19601f8201168201806040525081019061113d91906126ca565b835460018501546001600160801b031691906001600160601b0316611c06565b5f828218828410028218610a1f565b5f6111785f835f610fc5565b90506001600160a01b03811661061e57604051637e27328960e01b815260048101839052602401610647565b5f807ff0c57e16840df040f15088dc2f81fe391c3923bec73e23a9662efc9c229c6a00610558565b6111d4611cb6565b6111dc611cdb565b61061e8282611ce3565b306001600160a01b037f000000000000000000000000000000000000000000000000000000000000000016148061126c57507f00000000000000000000000000000000000000000000000000000000000000006001600160a01b03166112605f5160206128fa5f395f51905f52546001600160a01b031690565b6001600160a01b031614155b1561128a5760405163703e46dd60e11b815260040160405180910390fd5b565b61129581611cf5565b50565b816001600160a01b03166352d1902d6040518163ffffffff1660e01b8152600401602060405180830381865afa9250505080156112f2575060408051601f3d908101601f191682019092526112ef918101906126ca565b60015b61131a57604051634c9c8ce360e01b81526001600160a01b0383166004820152602401610647565b5f5160206128fa5f395f51905f52811461134a57604051632a87526960e21b815260048101829052602401610647565b610a408383611da6565b306001600160a01b037f0000000000000000000000000000000000000000000000000000000000000000161461128a5760405163703e46dd60e11b815260040160405180910390fd5b5f306001600160a01b0316846001600160a01b031663cf6a9a946040518163ffffffff1660e01b8152600401602060405180830381865afa1580156113e4573d5f5f3e3d5ffd5b505050506040513d601f19601f82011682018060405250810190611408919061270c565b6001600160a01b031614849061143d5760405163f1b1ee5d60e01b81526001600160a01b039091166004820152602401610647565b505f1982036114bf576001600160a01b0384166370a08231336040516001600160e01b031960e084901b1681526001600160a01b039091166004820152602401602060405180830381865afa158015611498573d5f5f3e3d5ffd5b505050506040513d601f19601f820116820180604052508101906114bc91906126ca565b91505b5f82116114df576040516390633d3160e01b815260040160405180910390fd5b6001600160a01b0384165f9081526033602052604081205464ffffffffff166115089042612727565b90508364ffffffffff165f0361152057809350611560565b8064ffffffffff168464ffffffffff161015611560576040516380be8b5960e01b815264ffffffffff808316600483015285166024820152604401610647565b60355f815461156e90612744565b91829055506040516379d989fb60e01b8152600160048201529092505f906001600160a01b038716906379d989fb90602401602060405180830381865afa1580156115bb573d5f5f3e3d5ffd5b505050506040513d601f19601f820116820180604052508101906115df91906126ca565b90506040518060a00160405280826001600160601b03168152602001876001600160a01b0316815260200161161386611dfb565b6001600160801b0390811682524264ffffffffff9081166020808501919091528982166040948501525f888152603282528481208651878401516001600160601b03909116600160601b6001600160a01b0392831602178255878701516001909201805460608a01516080909a0151939097166001600160a81b031990971696909617600160801b988616989098029790971764ffffffffff60a81b1916600160a81b919094160292909217909255928916835260349052812080548692906116dd90849061275c565b909155506116f890506001600160a01b038716333087611e32565b611787338460325f8781526020019081526020015f2060405160200161177391905f60a08201905082546001600160601b03811683528060601c60208401525060018301546001600160801b038116604084015264ffffffffff8160801c16606084015264ffffffffff8160a81c1660808401525092915050565b604051602081830303815290604052611e68565b6040805164ffffffffff871681526001600160601b03831660208201528082018690529051339185916001600160a01b038a16917feb35eeca4c5d42d89fa3326185659928510d45c4e520668ad306241d7e288315919081900360600190a450509392505050565b5f5160206128da5f395f51905f526001600160a01b03831661182f57604051630b61174360e31b81526001600160a01b0384166004820152602401610647565b6001600160a01b038481165f818152600584016020908152604080832094881680845294825291829020805460ff191687151590811790915591519182527f17307eab39ab6107e8899845ad3d59bd9653f200f220920489ca2b5937696c31910160405180910390a350505050565b6001600160a01b0383163b156119bf57604051630a85bd0160e11b81526001600160a01b0384169063150b7a02906118e090889088908790879060040161276f565b6020604051808303815f875af192505050801561191a575060408051601f3d908101601f19168201909252611917918101906127ab565b60015b611981573d808015611947576040519150601f19603f3d011682016040523d82523d5f602084013e61194c565b606091505b5080515f0361197957604051633250574960e11b81526001600160a01b0385166004820152602401610647565b805160208201fd5b6001600160e01b03198116630a85bd0160e11b146119bd57604051633250574960e11b81526001600160a01b0385166004820152602401610647565b505b5050505050565b60605f6119d283611e7f565b60010190505f8167ffffffffffffffff8111156119f1576119f161235a565b6040519080825280601f01601f191660200182016040528015611a1b576020820181803683370190505b5090508181016020015b5f19016f181899199a1a9b1b9c1cb0b131b232b360811b600a86061a8153600a8504945084611a2557509392505050565b5f9081527f80bb2b638cc20bc4d0a60d66940f3ab4a00c1d7b313497ca82fb0b4ab007930260205260409020546001600160a01b031690565b5f5160206128da5f395f51905f528180611ab157506001600160a01b03831615155b15611b72575f611ac085610f48565b90506001600160a01b03841615801590611aec5750836001600160a01b0316816001600160a01b031614155b8015611aff5750611afd8185610de6565b155b15611b285760405163a9fbf51f60e01b81526001600160a01b0385166004820152602401610647565b8215611b705784866001600160a01b0316826001600160a01b03167f8c5be1e5ebec7d5bd14f71427d1e84f3dd0314c0f7b2291e5b200ac8c7c3b92560405160405180910390a45b505b5f93845260040160205250506040902080546001600160a01b0319166001600160a01b0392909216919091179055565b611bad838383611f56565b610a40576001600160a01b038316611bdb57604051637e27328960e01b815260048101829052602401610647565b60405163177e802f60e01b81526001600160a01b038316600482015260248101829052604401610647565b5f5f5f611c138686611fba565b91509150815f03611c3757838181611c2d57611c2d6127c6565b0492505050610a1f565b818411611c4e57611c4e6003851502601118611fd6565b5f848688095f868103871696879004966002600389028118808a02820302808a02820302808a02820302808a02820302808a02820302808a02909103029181900381900460010185841190960395909502919093039390930492909217029150509392505050565b611cbe611fe7565b61128a57604051631afcd79f60e31b815260040160405180910390fd5b61128a611cb6565b611ceb611cb6565b61061e8282612000565b7f00000000000000000000000000000000000000000000000000000000000000006001600160a01b0316816001600160a01b0316634d15eb036040518163ffffffff1660e01b8152600401602060405180830381865afa158015611d5b573d5f5f3e3d5ffd5b505050506040513d601f19601f82011682018060405250810190611d7f919061270c565b6001600160a01b0316146112955760405163d2b3d33f60e01b815260040160405180910390fd5b611daf82612030565b6040516001600160a01b038316907fbc7cd75a20ee27fd9adebab32041f755214dbc6bffa90cc0225b39da2e5c2d3b905f90a2805115611df357610a408282612093565b61061e612133565b5f6001600160801b03821115611e2e576040516306dfcc6560e41b81526080600482015260248101839052604401610647565b5090565b611e40848484846001612152565b6106aa57604051635274afe760e01b81526001600160a01b0385166004820152602401610647565b611e7283836121bf565b610a40335f85858561189e565b5f8072184f03e93ff9f4daa797ed6e38ed64bf6a1f0160401b8310611ebd5772184f03e93ff9f4daa797ed6e38ed64bf6a1f0160401b830492506040015b6d04ee2d6d415b85acef81000000008310611ee9576d04ee2d6d415b85acef8100000000830492506020015b662386f26fc100008310611f0757662386f26fc10000830492506010015b6305f5e1008310611f1f576305f5e100830492506008015b6127108310611f3357612710830492506004015b60648310611f45576064830492506002015b600a83106105585760010192915050565b5f6001600160a01b03831615801590610c225750826001600160a01b0316846001600160a01b03161480611f8f5750611f8f8484610de6565b80610c225750826001600160a01b0316611fa883610f7f565b6001600160a01b031614949350505050565b5f805f1983850993909202808410938190039390930393915050565b634e487b715f52806020526024601cfd5b5f611ff06111a4565b54600160401b900460ff16919050565b612008611cb6565b5f5160206128da5f395f51905f5280612021848261281e565b50600181016106aa838261281e565b806001600160a01b03163b5f0361206557604051634c9c8ce360e01b81526001600160a01b0382166004820152602401610647565b5f5160206128fa5f395f51905f5280546001600160a01b0319166001600160a01b0392909216919091179055565b60605f6120a08484612220565b90508080156120c157505f3d11806120c157505f846001600160a01b03163b115b156120d6576120ce612233565b915050610558565b801561210057604051639996b31560e01b81526001600160a01b0385166004820152602401610647565b3d156121135761210e61224c565b61212c565b60405163d6bda27560e01b815260040160405180910390fd5b5092915050565b341561128a5760405163b398979f60e01b815260040160405180910390fd5b6040516323b872dd60e01b5f8181526001600160a01b038781166004528616602452604485905291602083606481808c5af1925060015f511483166121ae5783831516156121a2573d5f823e3d81fd5b5f883b113d1516831692505b604052505f60605295945050505050565b6001600160a01b0382166121e857604051633250574960e11b81525f6004820152602401610647565b5f6121f483835f610fc5565b90506001600160a01b03811615610a40576040516339e3563760e11b81525f6004820152602401610647565b5f5f5f835160208501865af49392505050565b6040513d81523d5f602083013e3d602001810160405290565b6040513d5f823e3d81fd5b6001600160e01b031981168114611295575f5ffd5b5f6020828403121561227c575f5ffd5b8135610a1f81612257565b5f81518084528060208401602086015e5f602082860101526020601f19601f83011685010191505092915050565b602081525f610a1f6020830184612287565b5f602082840312156122d7575f5ffd5b5035919050565b6001600160a01b0381168114611295575f5ffd5b5f5f60408385031215612303575f5ffd5b823561230e816122de565b946020939093013593505050565b5f5f5f6060848603121561232e575f5ffd5b8335612339816122de565b92506020840135612349816122de565b929592945050506040919091013590565b634e487b7160e01b5f52604160045260245ffd5b5f82601f83011261237d575f5ffd5b8135602083015f5f67ffffffffffffffff84111561239d5761239d61235a565b50604051601f19601f85018116603f0116810181811067ffffffffffffffff821117156123cc576123cc61235a565b6040528381529050808284018710156123e3575f5ffd5b838360208301375f602085830101528094505050505092915050565b5f5f60408385031215612410575f5ffd5b823567ffffffffffffffff811115612426575f5ffd5b6124328582860161236e565b925050602083013567ffffffffffffffff81111561244e575f5ffd5b61245a8582860161236e565b9150509250929050565b5f5f60408385031215612475575f5ffd5b8235612480816122de565b9150602083013567ffffffffffffffff81111561244e575f5ffd5b5f602082840312156124ab575f5ffd5b8135610a1f816122de565b803564ffffffffff811681146124ca575f5ffd5b919050565b5f5f5f606084860312156124e1575f5ffd5b83356124ec816122de565b9250612349602085016124b6565b5f5f6040838503121561250b575f5ffd5b8235612516816122de565b91506020830135801515811461252a575f5ffd5b809150509250929050565b5f5f5f5f60808587031215612548575f5ffd5b8435612553816122de565b93506020850135612563816122de565b925060408501359150606085013567ffffffffffffffff811115612585575f5ffd5b6125918782880161236e565b91505092959194509250565b5f5f5f5f5f5f5f60e0888a0312156125b3575f5ffd5b87356125be816122de565b96506125cc602089016124b6565b95506040880135945060608801359350608088013560ff811681146125ef575f5ffd5b9699959850939692959460a0840135945060c09093013592915050565b5f5f6040838503121561261d575f5ffd5b8235612628816122de565b9150602083013561252a816122de565b5f5f60408385031215612649575f5ffd5b8235612654816122de565b9150612662602084016124b6565b90509250929050565b600181811c9082168061267f57607f821691505b60208210810361269d57634e487b7160e01b5f52602260045260245ffd5b50919050565b634e487b7160e01b5f52601160045260245ffd5b81810381811115610558576105586126a3565b5f602082840312156126da575f5ffd5b5051919050565b5f81518060208401855e5f93019283525090919050565b5f610c2261270683866126e1565b846126e1565b5f6020828403121561271c575f5ffd5b8151610a1f816122de565b64ffffffffff8181168382160190811115610558576105586126a3565b5f60018201612755576127556126a3565b5060010190565b80820180821115610558576105586126a3565b6001600160a01b03858116825284166020820152604081018390526080606082018190525f906127a190830184612287565b9695505050505050565b5f602082840312156127bb575f5ffd5b8151610a1f81612257565b634e487b7160e01b5f52601260045260245ffd5b601f821115610a4057805f5260205f20601f840160051c810160208510156127ff5750805b601f840160051c820191505b818110156119bf575f815560010161280b565b815167ffffffffffffffff8111156128385761283861235a565b61284c81612846845461266b565b846127da565b6020601f82116001811461287e575f83156128675750848201515b5f19600385901b1c1916600184901b1784556119bf565b5f84815260208120601f198516915b828110156128ad578785015182556020948501946001909201910161288d565b50848210156128ca57868401515f19600387901b60f8161c191681555b50505050600190811b0190555056fe80bb2b638cc20bc4d0a60d66940f3ab4a00c1d7b313497ca82fb0b4ab0079300360894a13ba1a3210667c828492db98dca3e2076cc3735a920a3ca505d382bbca264697066735822122095a67893053e056dc926553ac7411b86bacf0e499f57eb50b318a832ea7c8ab564736f6c634300081e0033",
  "linkReferences": {},
  "deployedLinkReferences": {}
}