{
  "contractName": "XBRNetworkProxy",
  "abi": [
    {
      "anonymous": false,
      "inputs": [
        {
          "indexed": true,
          "internalType": "address",
          "name": "account",
          "type": "address"
        }
      ],
      "name": "MaintainerAdded",
      "type": "event"
    },
    {
      "anonymous": false,
      "inputs": [
        {
          "indexed": true,
          "internalType": "address",
          "name": "account",
          "type": "address"
        }
      ],
      "name": "MaintainerRemoved",
      "type": "event"
    },
    {
      "anonymous": false,
      "inputs": [
        {
          "indexed": true,
          "internalType": "bytes32",
          "name": "role",
          "type": "bytes32"
        },
        {
          "indexed": true,
          "internalType": "bytes32",
          "name": "previousAdminRole",
          "type": "bytes32"
        },
        {
          "indexed": true,
          "internalType": "bytes32",
          "name": "newAdminRole",
          "type": "bytes32"
        }
      ],
      "name": "RoleAdminChanged",
      "type": "event"
    },
    {
      "anonymous": false,
      "inputs": [
        {
          "indexed": true,
          "internalType": "bytes32",
          "name": "role",
          "type": "bytes32"
        },
        {
          "indexed": true,
          "internalType": "address",
          "name": "account",
          "type": "address"
        },
        {
          "indexed": true,
          "internalType": "address",
          "name": "sender",
          "type": "address"
        }
      ],
      "name": "RoleGranted",
      "type": "event"
    },
    {
      "anonymous": false,
      "inputs": [
        {
          "indexed": true,
          "internalType": "bytes32",
          "name": "role",
          "type": "bytes32"
        },
        {
          "indexed": true,
          "internalType": "address",
          "name": "account",
          "type": "address"
        },
        {
          "indexed": true,
          "internalType": "address",
          "name": "sender",
          "type": "address"
        }
      ],
      "name": "RoleRevoked",
      "type": "event"
    },
    {
      "inputs": [],
      "name": "DEFAULT_ADMIN_ROLE",
      "outputs": [
        {
          "internalType": "bytes32",
          "name": "",
          "type": "bytes32"
        }
      ],
      "stateMutability": "view",
      "type": "function"
    },
    {
      "inputs": [],
      "name": "MAINTAINER_ROLE",
      "outputs": [
        {
          "internalType": "bytes32",
          "name": "",
          "type": "bytes32"
        }
      ],
      "stateMutability": "view",
      "type": "function"
    },
    {
      "inputs": [
        {
          "internalType": "address",
          "name": "account",
          "type": "address"
        }
      ],
      "name": "addMaintainer",
      "outputs": [],
      "stateMutability": "nonpayable",
      "type": "function"
    },
    {
      "inputs": [
        {
          "internalType": "bytes32",
          "name": "role",
          "type": "bytes32"
        }
      ],
      "name": "getRoleAdmin",
      "outputs": [
        {
          "internalType": "bytes32",
          "name": "",
          "type": "bytes32"
        }
      ],
      "stateMutability": "view",
      "type": "function"
    },
    {
      "inputs": [
        {
          "internalType": "bytes32",
          "name": "role",
          "type": "bytes32"
        },
        {
          "internalType": "uint256",
          "name": "index",
          "type": "uint256"
        }
      ],
      "name": "getRoleMember",
      "outputs": [
        {
          "internalType": "address",
          "name": "",
          "type": "address"
        }
      ],
      "stateMutability": "view",
      "type": "function"
    },
    {
      "inputs": [
        {
          "internalType": "bytes32",
          "name": "role",
          "type": "bytes32"
        }
      ],
      "name": "getRoleMemberCount",
      "outputs": [
        {
          "internalType": "uint256",
          "name": "",
          "type": "uint256"
        }
      ],
      "stateMutability": "view",
      "type": "function"
    },
    {
      "inputs": [
        {
          "internalType": "bytes32",
          "name": "role",
          "type": "bytes32"
        },
        {
          "internalType": "address",
          "name": "account",
          "type": "address"
        }
      ],
      "name": "grantRole",
      "outputs": [],
      "stateMutability": "nonpayable",
      "type": "function"
    },
    {
      "inputs": [
        {
          "internalType": "bytes32",
          "name": "role",
          "type": "bytes32"
        },
        {
          "internalType": "address",
          "name": "account",
          "type": "address"
        }
      ],
      "name": "hasRole",
      "outputs": [
        {
          "internalType": "bool",
          "name": "",
          "type": "bool"
        }
      ],
      "stateMutability": "view",
      "type": "function"
    },
    {
      "inputs": [
        {
          "internalType": "address",
          "name": "account",
          "type": "address"
        }
      ],
      "name": "isMaintainer",
      "outputs": [
        {
          "internalType": "bool",
          "name": "",
          "type": "bool"
        }
      ],
      "stateMutability": "view",
      "type": "function"
    },
    {
      "inputs": [],
      "name": "renounceMaintainer",
      "outputs": [],
      "stateMutability": "nonpayable",
      "type": "function"
    },
    {
      "inputs": [
        {
          "internalType": "bytes32",
          "name": "role",
          "type": "bytes32"
        },
        {
          "internalType": "address",
          "name": "account",
          "type": "address"
        }
      ],
      "name": "renounceRole",
      "outputs": [],
      "stateMutability": "nonpayable",
      "type": "function"
    },
    {
      "inputs": [
        {
          "internalType": "bytes32",
          "name": "role",
          "type": "bytes32"
        },
        {
          "internalType": "address",
          "name": "account",
          "type": "address"
        }
      ],
      "name": "revokeRole",
      "outputs": [],
      "stateMutability": "nonpayable",
      "type": "function"
    },
    {
      "inputs": [
        {
          "internalType": "address",
          "name": "networkContract",
          "type": "address"
        }
      ],
      "name": "setNetworkContract",
      "outputs": [],
      "stateMutability": "nonpayable",
      "type": "function"
    }
  ],
  "bytecode": "0x608060405234801561001057600080fd5b5061003b7f339759585899103d2ace64958e37e18ccb0504652c81d4a1b8aa80fe2126ab9533610040565b610145565b61004a828261004e565b5050565b6000828152602081815260409091206100709183906104c86100c1821b17901c565b1561004a5761007d6100df565b6001600160a01b0316816001600160a01b0316837f2f8788117e7eff1d82e926ec794901d17c78024a50270940304540a733656f0d60405160405180910390a45050565b60006100d6836001600160a01b0384166100e3565b90505b92915050565b3390565b60006100ef838361012d565b610125575081546001818101845560008481526020808220909301849055845484825282860190935260409020919091556100d9565b5060006100d9565b60009081526001919091016020526040902054151590565b610928806101546000396000f3fe608060405234801561001057600080fd5b50600436106100cf5760003560e01c80639010d07c1161008c578063ca15c87311610066578063ca15c87314610238578063d547741f14610255578063dd57366a14610281578063f8742254146102a7576100cf565b80639010d07c146101b157806391d14854146101f0578063a217fddf14610230576100cf565b8063248a9ca3146100d45780632f2ff15d14610103578063314db06b1461013157806336568abe14610139578063599b9348146101655780636b453c1f1461018b575b600080fd5b6100f1600480360360208110156100ea57600080fd5b50356102af565b60408051918252519081900360200190f35b61012f6004803603604081101561011957600080fd5b50803590602001356001600160a01b03166102c4565b005b61012f610330565b61012f6004803603604081101561014f57600080fd5b50803590602001356001600160a01b031661033b565b61012f6004803603602081101561017b57600080fd5b50356001600160a01b031661039c565b61012f600480360360208110156101a157600080fd5b50356001600160a01b03166103d0565b6101d4600480360360408110156101c757600080fd5b50803590602001356103ee565b604080516001600160a01b039092168252519081900360200190f35b61021c6004803603604081101561020657600080fd5b50803590602001356001600160a01b031661040f565b604080519115158252519081900360200190f35b6100f1610427565b6100f16004803603602081101561024e57600080fd5b503561042c565b61012f6004803603604081101561026b57600080fd5b50803590602001356001600160a01b0316610443565b61021c6004803603602081101561029757600080fd5b50356001600160a01b031661049c565b6100f16104b6565b60009081526020819052604090206002015490565b6000828152602081905260409020600201546102e7906102e26104dd565b61040f565b6103225760405162461bcd60e51b815260040180806020018281038252602f815260200180610845602f913960400191505060405180910390fd5b61032c82826104e1565b5050565b6103393361054a565b565b6103436104dd565b6001600160a01b0316816001600160a01b0316146103925760405162461bcd60e51b815260040180806020018281038252602f8152602001806108c4602f913960400191505060405180910390fd5b61032c8282610599565b6103a53361049c565b6103ae57600080fd5b600180546001600160a01b0319166001600160a01b0392909216919091179055565b6103d93361049c565b6103e257600080fd5b6103eb81610602565b50565b60008281526020819052604081206104069083610651565b90505b92915050565b6000828152602081905260408120610406908361065d565b600081565b600081815260208190526040812061040990610672565b600082815260208190526040902060020154610461906102e26104dd565b6103925760405162461bcd60e51b81526004018080602001828103825260308152602001806108746030913960400191505060405180910390fd5b60006104096000805160206108a48339815191528361040f565b6000805160206108a483398151915281565b6000610406836001600160a01b03841661067d565b3390565b60008281526020819052604090206104f990826104c8565b1561032c576105066104dd565b6001600160a01b0316816001600160a01b0316837f2f8788117e7eff1d82e926ec794901d17c78024a50270940304540a733656f0d60405160405180910390a45050565b6105626000805160206108a483398151915282610443565b6040516001600160a01b038216907fa7b36d52bea726c3aa90d876d0e52a1089a347b3e3408a03f08eae32f96fdbb490600090a250565b60008281526020819052604090206105b190826106c7565b1561032c576105be6104dd565b6001600160a01b0316816001600160a01b0316837ff6391f5c32d9c69d2a47ea670b442974b53935d1edc7fd64eb21e047a839171b60405160405180910390a45050565b61061a6000805160206108a4833981519152826102c4565b6040516001600160a01b038216907f1390a149489c82e9e2e89927bdb17ad1ea3f0cc314fce06c96369721d3afb8f090600090a250565b600061040683836106dc565b6000610406836001600160a01b038416610740565b600061040982610758565b60006106898383610740565b6106bf57508154600181810184556000848152602080822090930184905584548482528286019093526040902091909155610409565b506000610409565b6000610406836001600160a01b03841661075c565b8154600090821061071e5760405162461bcd60e51b81526004018080602001828103825260228152602001806108236022913960400191505060405180910390fd5b82600001828154811061072d57fe5b9060005260206000200154905092915050565b60009081526001919091016020526040902054151590565b5490565b60008181526001830160205260408120548015610818578354600019808301919081019060009087908390811061078f57fe5b90600052602060002001549050808760000184815481106107ac57fe5b6000918252602080832090910192909255828152600189810190925260409020908401905586548790806107dc57fe5b60019003818190600052602060002001600090559055866001016000878152602001908152602001600020600090556001945050505050610409565b600091505061040956fe456e756d657261626c655365743a20696e646578206f7574206f6620626f756e6473416363657373436f6e74726f6c3a2073656e646572206d75737420626520616e2061646d696e20746f206772616e74416363657373436f6e74726f6c3a2073656e646572206d75737420626520616e2061646d696e20746f207265766f6b65339759585899103d2ace64958e37e18ccb0504652c81d4a1b8aa80fe2126ab95416363657373436f6e74726f6c3a2063616e206f6e6c792072656e6f756e636520726f6c657320666f722073656c66a2646970667358221220a06ccf2e27eeda0c7c7664a0b35f31a09036deab61a716151d76795f6dbd09a164736f6c634300060c0033",
  "immutableReferences": {},
  "source": "// SPDX-License-Identifier: Apache-2.0\n\n///////////////////////////////////////////////////////////////////////////////\n//\n//  Copyright (C) 2018-2021 Crossbar.io Technologies GmbH and contributors.\n//\n//  Licensed under the Apache License, Version 2.0 (the \"License\");\n//  you may not use this file except in compliance with the License.\n//  You may obtain a copy of the License at\n//\n//      http://www.apache.org/licenses/LICENSE-2.0\n//\n//  Unless required by applicable law or agreed to in writing, software\n//  distributed under the License is distributed on an \"AS IS\" BASIS,\n//  WITHOUT WARRANTIES OR CONDITIONS OF ANY KIND, either express or implied.\n//  See the License for the specific language governing permissions and\n//  limitations under the License.\n//\n///////////////////////////////////////////////////////////////////////////////\n\npragma solidity >=0.6.0 <0.8.0;\n\nimport \"./XBRMaintained.sol\";\n\n\n/**\n * @title XBR Network root SC\n * @author The XBR Project\n */\ncontract XBRNetworkProxy is XBRMaintained {\n\n    address internal _networkContract;\n\n    function setNetworkContract (address networkContract) public onlyMaintainer {\n        _networkContract = networkContract;\n    }\n}\n",
  "sourcePath": "/home/runner/work/wamp-xbr/wamp-xbr/contracts/XBRNetworkProxy.sol",
  "compiler": {
    "name": "solc",
    "version": "0.6.12+commit.27d51765.Emscripten.clang"
  },
  "schemaVersion": "3.4.16",
  "updatedAt": "2025-12-17T07:24:38.702Z",
  "devdoc": {
    "author": "The XBR Project",
    "kind": "dev",
    "methods": {
      "addMaintainer(address)": {
        "params": {
          "account": "The account to grant maintainer rights to."
        }
      },
      "getRoleAdmin(bytes32)": {
        "details": "Returns the admin role that controls `role`. See {grantRole} and {revokeRole}. To change a role's admin, use {_setRoleAdmin}."
      },
      "getRoleMember(bytes32,uint256)": {
        "details": "Returns one of the accounts that have `role`. `index` must be a value between 0 and {getRoleMemberCount}, non-inclusive. Role bearers are not sorted in any particular way, and their ordering may change at any point. WARNING: When using {getRoleMember} and {getRoleMemberCount}, make sure you perform all queries on the same block. See the following https://forum.openzeppelin.com/t/iterating-over-elements-on-enumerableset-in-openzeppelin-contracts/2296[forum post] for more information."
      },
      "getRoleMemberCount(bytes32)": {
        "details": "Returns the number of accounts that have `role`. Can be used together with {getRoleMember} to enumerate all bearers of a role."
      },
      "grantRole(bytes32,address)": {
        "details": "Grants `role` to `account`. If `account` had not been already granted `role`, emits a {RoleGranted} event. Requirements: - the caller must have ``role``'s admin role."
      },
      "hasRole(bytes32,address)": {
        "details": "Returns `true` if `account` has been granted `role`."
      },
      "isMaintainer(address)": {
        "params": {
          "account": "The account to check."
        },
        "returns": {
          "_0": "`true` if the account is maintainer, otherwise `false`."
        }
      },
      "renounceRole(bytes32,address)": {
        "details": "Revokes `role` from the calling account. Roles are often managed via {grantRole} and {revokeRole}: this function's purpose is to provide a mechanism for accounts to lose their privileges if they are compromised (such as when a trusted device is misplaced). If the calling account had been granted `role`, emits a {RoleRevoked} event. Requirements: - the caller must be `account`."
      },
      "revokeRole(bytes32,address)": {
        "details": "Revokes `role` from `account`. If `account` had been granted `role`, emits a {RoleRevoked} event. Requirements: - the caller must have ``role``'s admin role."
      }
    },
    "title": "XBR Network root SC",
    "version": 1
  },
  "userdoc": {
    "events": {
      "MaintainerAdded(address)": {
        "notice": "Event fired when a maintainer was added."
      },
      "MaintainerRemoved(address)": {
        "notice": "Event fired when a maintainer was removed."
      }
    },
    "kind": "user",
    "methods": {
      "addMaintainer(address)": {
        "notice": "Add a new maintainer to the list of maintainers."
      },
      "isMaintainer(address)": {
        "notice": "Check if the given address is currently a maintainer."
      },
      "renounceMaintainer()": {
        "notice": "Give away maintainer rights."
      }
    },
    "version": 1
  }
}